:020000040800F2
:100000004833002075020008EF070008EB070008DE
:10001000ED07000839070008290C0008000000005F
:10002000000000000000000000000000DD010008EA
:100030003B0700080000000021020008D509000865
:100040008F0200088F0200088F0200088F0200084C
:100050008F0200088F0200088F0200088F0200083C
:100060008F0200088F0200088F0200088F0200082C
:100070008F0200088F0200088F0200088F0200081C
:100080008F0200088F0200088F0200088F0200080C
:100090008F0200088F0200088F0200088F020008FC
:1000A0008F0200088F0200088F0200088F020008EC
:1000B0008F020008390A00088F0200088F0200082A
:1000C0008F0200088F0200088F0200088F020008CC
:1000D0008F0200088D0A00088F0200088F020008B6
:1000E0008F0200088F0200088F0200088F020008AC
:1000F0008F0200088F0200088F0200088F0200089C
:100100008F0200088F0200088F0200088F0200088B
:100110008F0200088F0200088F0200088F0200087B
:100120008F0200088F0200088F0200088F0200086B
:1001300000F002F800F042F80AA090E8000C8244B7
:100140008344AAF10107DA4501D100F037F8AFF294
:10015000090EBAE80F0013F0010F18BFFB1A43F0A5
:1001600001031847E428000004290000103A24BFC6
:1001700078C878C1FAD8520724BF30C830C144BF0C
:1001800004680C607047000000230024002500264E
:10019000103A28BF78C1FBD8520728BF30C148BFEA
:1001A0000B607047642900F0F180732900F026820B
:1001B000002070471FB51FBD10B510BD00F08CFAB0
:1001C0001146FFF7F7FF00F09FFE00F0AAFA03B414
:1001D000FFF7F2FF03BC00F028FD0000224B196876
:1001E0000868B0E8F00F80F30988BFF36F8F4FF015
:1001F000000080F311884EF00D0E704700000000E3
:1002000006480068006880F3088862B661B6BFF3EC
:100210004F8FBFF36F8F00DF00BF00BF08ED00E01E
:10022000EFF30980BFF36F8F0F4B1A6820E9F00FCF
:10023000106008B54FF0500080F31188BFF34F8F66
:10024000BFF36F8F01F0E0FE4FF0000080F31188E4
:10025000BDE8084019680868B0E8F00F80F3098825
:10026000BFF36F8F704700BF50000020EFF3058091
:10027000704700000948804709480047FEE7FEE74D
:10028000FEE7FEE7FEE7FEE7FEE7FEE7FEE7FEE746
:1002900004480549054A064B70470000E909000873
:1002A00031010008482D002048330020482F00204D
:1002B000482F0020704700000FB4044910B503AA6E
:1002C000029800F09FF910BC5DF814FB3800002084
:1002D0002DE9F0410E460446002020622046E168E8
:1002E000884730B3252805D0D4E901219047206AFA
:1002F000401CF2E7E168204600278847050018D037
:10030000A5F14100192802D820354FF40067324684
:10031000294620462760FFF745FF40B1012804D059
:10032000F61D26F007060836D8E7361DD6E728461C
:10033000DAE7206ABDE8F08170B50C460546012A6F
:1003400005D02878800600D5EA69002302E0012361
:1003500005E05B1C934202D2E05C0028F9D1A86959
:10036000E618C01AA861286A184428622846AFF324
:10037000008004E0D5E9012114F8010B9047B44254
:10038000F8D32846AFF3008070BD00002DE9F0419E
:100390000646002410687529314616A510D0AFF323
:1003A0000080002802DA404213A507E031688A077E
:1003B00001D512A502E0490704D511A5012401E0E9
:1003C000AFF3008000210A2206F1240709E0B0FB08
:1003D000F2FCB0FBF2F302FB1C00303078541846FC
:1003E000491C0028F3D123462A463046BDE8F04197
:1003F00000F080B8000000002D0000002B0000007D
:1004000020000000032A40F2308010F0030C00F0BE
:10041000158011F8013BBCF1020F624498BF11F83E
:1004200001CB00F8013B38BF11F8013BA2F10402F7
:1004300098BF00F801CB38BF00F8013B11F003036F
:1004400000F0F280083AC0F0088051F8043B083A06
:1004500051F804CBA0E80810F5E7121D5CBF51F875
:10046000043B40F8043BAFF30080D20724BF11F8EF
:10047000013B11F801CB48BF11F8012B24BF00F854
:10048000013B00F801CB48BF00F8012B704702F098
:10049000FF0343EA032242EA024200F0F9B84FF0B8
:1004A000000200B5134694469646203922BFA0E8C4
:1004B0000C50A0E80C50B1F12001BFF4F7AF0907D0
:1004C00028BFA0E80C5048BF0CC05DF804EB8900C1
:1004D00028BF40F8042B08BF704748BF20F8022B04
:1004E00011F0804F18BF00F8012B7047704770471C
:1004F000704770472DE9F0470D46994692460446ED
:1005000000F124080168880604D5E06921F0100193
:10051000216000E00120A84201DD471B00E0002728
:10052000A1697A1902EB0900081AA0612078C006B7
:1005300002D42046AFF30080002608E0D4E9012170
:100540001AF806009047206A401C761C20624E452F
:10055000F4DB2078C0060AD52046AFF3008006E021
:10056000D4E9012130209047206A401C2062381EC7
:10057000A7F10107F4DC07E0D4E9012118F8050030
:100580009047206A401C2062281EA5F10105F3DC7B
:100590002046AFF300802078000602D50220BDE897
:1005A000F0870120FBE7000001694A1C026108781E
:1005B000704700B58FB0CDE90131002105910549A3
:1005C0007944CDE9031011466846FFF781FE0FB06C
:1005D00000BD0000E5FFFFFF10B5436913B1AFF3A5
:1005E000008001E0FFF7A8FE012010BD127800F1A5
:1005F00024010A7000224A700122EDE711684FF0D1
:10060000FF32E9E7074B70B50D467B44FFF7D1FF9A
:100610000446284600F05CF810B14FF0FF3070BD82
:10062000204670BDD306000010B5203AC0F00B8004
:10063000B1E81850203AA0E81850B1E81850A0E8E6
:100640001850BFF4F5AF5FEA027C24BFB1E8185040
:10065000A0E8185044BF18C918C0BDE810405FEAB0
:10066000827C24BF51F8043B40F8043B08BF70472C
:10067000D20728BF31F8023B48BF11F8012B28BF31
:1006800020F8023B48BF00F8012B70474FF00002F2
:100690000429C0F0128010F0030C3FF402AFCCF13B
:1006A000040CBCF1020F18BF00F8012BA8BF20F802
:1006B000022BA1EB0C01FFF7F4BE5FEAC17C24BF63
:1006C00000F8012B00F8012B48BF00F8012B704700
:1006D000007B00F080007047754600F029F8AE46B8
:1006E00005006946534620F00700854618B020B53E
:1006F000FFF7CEFDBDE820404FF000064FF00007A9
:100700004FF000084FF0000B21F00701AC46ACE8B9
:10071000C009ACE8C009ACE8C009ACE8C0098D4626
:1007200070470446AFF300802046FFF750FD0000FD
:1007300000487047E42C0020FEE77047F0B5CC7805
:10074000002204F00F03E40601D58C7823430C78D3
:100750004FF00F0C14F0FF0F4FF0010E1BD0056887
:100760000E880EFA02F42640A64210D196000CFA2A
:1007700006F725EA070703FA06F5CE783D43282E4B
:1007800002D0482E02D002E0446100E00461521C15
:10079000082AE5D305600A88FF2A1CD9446800228C
:1007A00002F108060EFA06F50E882E40AE420ED172
:1007B00096000CFA06F7BC4303FA06F7CE783C43E2
:1007C000282E00D14561CE78482E00D10561521CFB
:1007D000082AE5D34460F0BD0246002092680A4230
:1007E00000D00120704701617047FEE7FEE77047C7
:1007F00030B50F23C27801780125F2B1144A12688E
:1008000001F1E02102F4E062C2F5E062120AC2F1F5
:100810000404D3404278A24084781C40144322014F
:1008200081F80024007800F01F018D40400980000D
:1008300000F1E020C0F8005130BD01F01F008540FC
:100840004809800000F1E020C0F8805130BD000070
:100850000CED00E0024908430249086070470000BF
:100860000000FA050CED00E0044A0029916901D06E
:10087000014300E081439161704700000010024095
:1008800030B5204A5168204B11F00C0103D00429E7
:1008900001D0082901D0036012E05168536801F4C7
:1008A00070114FF0020413F4803F04EB914102D029
:1008B00053689B0301D5154B00E0134B594301606E
:1008C00051680F2303EA1111114B5C5C0168E14090
:1008D00041605468072505EA14241C5D21FA04F4DC
:1008E0008460546805EAD4241B5DD940C160526815
:1008F000032303EA9232064B1B1F9A5CB1FBF2F111
:10090000016130BD0010024000127A0000093D0074
:10091000400000200CB50022264800920192016898
:1009200041F4803101604FF4A063016801F40031AB
:1009300001910099491C0091019911B900999942BE
:10094000F3D10168890333D5012101911A490A685D
:1009500042F010020A600A6822F003020A600A6884
:1009600042F002020A6041684160416841604168AA
:1009700041F480614160416821F47C11416041682B
:1009800041F4E8114160016841F080710160016843
:100990008901FCD5416821F003014160416841F0C3
:1009A000020141604168C1F381010229FAD10CBD05
:1009B00001920CBD00100240002002404FF0E021E7
:1009C0000428086903D020F004000861704740F053
:1009D0000400FAE710B501F0B7FD012803D0BDE827
:1009E000104001F0C9BB10BD0F4810B5016841F0BF
:1009F0000101016041680D4A1140416001680C4AE3
:100A000011400160016821F480210160416821F4F6
:100A1000FE0141604FF41F018160FFF77BFF054934
:100A20004FF00060086010BD001002400000FFF8A9
:100A3000FFFFF6FE08ED00E010B50A4C012120464C
:100A400000F017F8012807D107490A684868521CC6
:100A500040F100000A6048602046BDE810400121D6
:100A600000F004B80004004028000020C9430182BF
:100A7000704702460020138A92890B4202EA010263
:100A800002D0002A00D001207047000070B5154C3C
:100A900040F22551204600F035F800280ED02046BF
:100AA00000F0BEF8104AC1B21088030406D4440412
:100AB0004FF0000306D50A2901D0138070BD40F421
:100AC00000400DE00D2909D0C0F30D04074D401C76
:100AD00080B229551080C728EFD870BD40F48040FF
:100AE000108070BD0038014036000020D00000208A
:100AF0000029818902D041F4005101E021F4005124
:100B00008181704770B501F01F0501260024C1F3F3
:100B1000421306FA05F2012B0FD0022B0FD0838A65
:100B20004FEA11210088134206FA01F600EA060096
:100B300001D000B10124204670BD8389F0E7038A0B
:100B4000EEE710B5C1F3421301F01F040121A140EB
:100B5000012B07D0022B07D01430002A026805D0E1
:100B60000A4304E00C30F8E71030F6E78A430260ED
:100B700010BD000030B50446008A85B00D464CF625
:100B8000FF710840E98801432182A0894EF6F311E4
:100B90000840A9882A8911436A8902431143A18127
:100BA000A08A4FF6FF410840A9890143A182684607
:100BB000FFF766FE1948844201D1039800E00298CD
:100BC000A189090400EBC00101EB0010296801D5DF
:100BD000490000E08900B0FBF1F06422B0FBF2F1C3
:100BE00009010B096FF018056B4300EB8300A38923
:100BF0001D044FF0320306D503EBC000B0FBF2F04A
:100C000000F0070005E003EB0010B0FBF2F000F08D
:100C10000F000843208105B030BD000000380140BE
:100C20008088C0F308007047FEE7704710B50420C5
:100C3000FFF7C4FE0C480D490D4A0068B0FBF1F304
:100C4000B0FBF1F14FF47A704143137001205080F2
:100C50004FF0E020026942F0020202614161016945
:100C600041F00101016110BD0000002040420F0071
:100C70003200002070B5044601F066FC01280CD05B
:100C8000094D6888844203D3B4FBF0F001F058F8B2
:100C90006888B4FBF0F100FB11444FF47A706043B4
:100CA000BDE8704000F002B83200002070B54FF08F
:100CB000E02500216C69094AAB6912785043AA69A2
:100CC0009A42FCD002D2A3EB020302E0A4EB02069C
:100CD0003344194413468142F1D370BD32000020E1
:100CE00004490A885206FCD5024AC1B2121D11807D
:100CF000704700000038014008B501214420FFF78B
:100D0000B3FD1820ADF8000048208DF803006946B7
:100D10000648FFF713FD0120ADF8000028208DF8EC
:100D2000030069460248FFF709FD08BD00180140AD
:100D3000000801402DE9F041254C264F264D0126A3
:100D400008B1267001E0207878B110212846FFF71D
:100D500043FD88B108212846FFF73EFD60B101211F
:100D60003846FFF739FD012806D010212846FFF745
:100D700033FD01281DD028E00A20FFF77BFF00206B
:100D8000207010212846FFF727FD58B1082128467A
:100D9000FFF722FD48B101213846FFF71DFD01286C
:100DA00005D012E00120BDE8F0810220FBE703201E
:100DB000F9E708212846FFF70FFD012805D1012199
:100DC0003846FFF709FD00B926700020EBE7000068
:100DD00030000020000801400018014000260D4CA2
:100DE0000DA0FFF769FA0020FFF7A4FF05460146B2
:100DF0000EA0FFF761FA012D08D1606830B10EA096
:100E0000FFF75AFAA06800F0D1FF66600A2000F0F0
:100E100097FFE5E7140000206B65795F7461736BE1
:100E2000D5FDD4DAD4CBD0D00D0A00006B65792083
:100E30003D2025640D0A0000C9BEB3FD6C65643019
:100E40005F7461736B0D0A00074C4FF4FA7507A0CD
:100E5000FFF732FAD4F89401C143C4F8941128463C
:100E600000F06EFFF3E70000008021426C65643003
:100E70005F7461736BD5FDD4DAD4CBD0D00D0A008A
:100E8000074C4FF4FA7507A0FFF716FAD4F894014F
:100E9000C143C4F89411284600F052FFF3E7000064
:100EA000000023426C6564315F7461736BD5FDD4BF
:100EB000DAD4CBD0D00D0A0038B501214820FFF795
:100EC000D3FC2024ADF8004010208DF8030003204F
:100ED0000B4D8DF8020069462846FFF72FFC2021B4
:100EE0002846FFF780FCADF80040064C69462046D6
:100EF000FFF724FC20212046FFF775FC38BD0000D9
:100F0000000C01400018014010B54FF44070FFF78D
:100F1000A1FC4FF4E13000F051FDFFF787FEFFF731
:100F2000CBFFFFF7E9FE00F003F8002010BD000042
:100F30001CB507490120CDE900010023802205A14D
:100F4000074801F0D5FABDE81C4001F00DB80000DB
:100F50001400002073746172745F7461736B00001D
:100F6000351900082DE9F041204D0F460446EE6882
:100F70002968002081F859002868001D00F06EFDE6
:100F800038B9286890F82C100120884029698143DD
:100F90002961601C15D1A7B115492A68486890607D
:100FA0002B688268DA602A688368121D5A602A6892
:100FB000121D8260286841610868401C0860BDE815
:100FC000F08128683444B4424460296805D2E86B53
:100FD000BDE8F041091D00F062BDA86B091D00F0DD
:100FE0005EFDA86A8442EAD2AC62E8E750000020C5
:100FF000A80400202DE9F041044600F075FD354EAF
:10100000B068401CB0603068334F10B1706930B3C5
:101010002BE03460B068012827D1002505EB85005E
:1010200007EB800000F02DFD6D1C202DF6D32B4822
:1010300000F027FD2948143000F023FD2748283010
:1010400000F01FFD25483C3000F01BFD23485030C8
:1010500000F017FD2148B0631430F06305E03068FC
:10106000E16AC06A884200D83460706A0121401C7D
:1010700070626064E06A326981401143316100EB63
:10108000800007EB80004068A0608168E1608268B2
:10109000211D51608160E06A00EB800007EB800158
:1010A000616157F82010491C47F8201000F058FDE6
:1010B000706900280CD03068E16AC06A884207D2A3
:1010C00007494FF080500860BFF34F8FBFF36F8F19
:1010D000BDE8F08150000020D80100205804002015
:1010E00004ED00E010B500F0FFFC0E4C2068A0B944
:1010F0000D4800F0C6FC0C48143000F0C2FC0A4851
:10110000E0601430206100221021052001F04AF82F
:10111000206010B105A100F0B7FDBDE8104000F05F
:101120001FBD000090000020BC040020546D7251CF
:101130000000000030B4026C0B46002A0BD0C168DE
:101140001144C1608468A14201D30168C16030BC10
:101150001846FFF757B930BC70472DE9F041856B51
:10116000174604460026026C82B1C7B1E068FFF75B
:1011700049F9E168206C091AE1602268914202D2C3
:10118000A168081AE060022F16D017E02068A8B9FD
:10119000A06801F091FA06460020A0600EE06068A9
:1011A000FFF730F9216C606808446060A1688842EC
:1011B00004D32068606001E005B16D1E6D1CA5635D
:1011C0003046BDE8F08110B50446006B00F0FAFC33
:1011D0002046BDE8104000F0F5BC000010484FF478
:1011E0002051420706D0C01D0D4920F00700411ACA
:1011F000C1F520510B4A00230144C2E9000308391C
:10120000183A21F0070111604B600B600B1AC0E91E
:10121000001393604FF0004053605061704700002E
:10122000E4040020BC000020134E144DA6F52F77D7
:101230004FF08058DFF8489011E000F055FCF0685E
:10124000C468201D00F00AFCA868401EA8606868F9
:10125000401E686000F084FC2046FFF7B4FF686819
:101260000028EAD138680128F9D9C9F80080BFF30D
:101270004F8FBFF36F8FF2E79404002050000020DF
:1012800004ED00E02DE9F05FDDE90B940E46174612
:10129000834691009A460A9DA522206BFFF7F7F836
:1012A0006FF00301206B01EB8701084420F0070871
:1012B0005FEA487005D04FF458721FA123A0FEF7D3
:1012C000FBFF002766B100202218315C82F8341041
:1012D000315C11B1401C1028F6D384F8437001E052
:1012E00084F83470202D06D340F2973212A117A053
:1012F000FEF7E2FF1F25E562C4E91357201D00F049
:10130000CBFB04F1180000F0C7FB2461C5F12000FD
:101310006462A061676584F8587084F85970524619
:101320005946404600F0F4FA2060B9F1000F01D0B0
:10133000C9F80040BDE8F09F2E2E5C4672656552EC
:10134000544F535C7461736B732E63004572726FFC
:10135000723A2025732C2025640D0A0030B51149FE
:1013600000E011460A688242FBD34B685C18844255
:1013700003D1406818444860084643681C189442EA
:1013800009D1084C183C2468A24209D052681A447A
:1013900042600A6812680260814200D0086030BD75
:1013A0000460F9E7BC00002070B5002441600B4DDB
:1013B0000061914206D8D11A8269914206D2011D7C
:1013C000286907E09A4203D2994201D3012403E03D
:1013D000011DE86800F063FB204670BD900000200E
:1013E00010B5044600F080FBA06B20B1002400F093
:1013F000B7FB204610BD0124F9E70000F1B50098C5
:101400000026846C2CB940F6D43219A11DA0FEF739
:1014100053FFA06BE16B884205D340F6D53214A18F
:1014200018A0FEF749FFA06BE16B88421ED294F929
:101430004550002269462046FFF78FFE0646681C8D
:1014400002D07F2D09D00EE0606A78B104F124004B
:1014500001F09CF950B1012608E040F6F53204A1F4
:1014600008A0FEF729FF6D1C84F845503046F8BDF2
:101470002E2E5C4672656552544F535C71756575CE
:10148000652E63004572726F723A2025732C2025F9
:10149000640D0A0070B506460D480D46C068C06868
:1014A000C468201D00F0DAFA94F82800410705D539
:1014B0002A463146204600F0D1F803E000F0FE0055
:1014C00084F828002046216ABDE8704008470000E3
:1014D0009000002070B586B03A4E69E00098002870
:1014E00006DADDE90201019A9047009800285FDBE7
:1014F000029C606910B1201D00F0B0FA04A800F051
:10150000CFF8054600980A2852D2DFE800F05105CE
:1015100005282E450505282E94F828002A4640F077
:10152000010084F828000198A1690346014420467F
:10153000FFF73AFF78B394F82800410707D50198E0
:10154000A1692A460144204600F088F803E000F033
:10155000FE0084F82800216A2046884728E014F815
:10156000280F00F0FE00207022E094F8280040F0E0
:10157000010084F828000198A06128B940F259328E
:1015800011A117A0FEF798FEA0692B4641191A4633
:101590002046FFF709FF0BE094F82800810703D4E9
:1015A000204600F00FFB03E000F0FE0084F8280066
:1015B00000226946306800F09FFE00288ED106B0F8
:1015C00070BD0000900000202E2E5C4672656552B2
:1015D000544F535C74696D6572732E630000000094
:1015E0004572726F723A2025732C2025640D0A0013
:1015F000F8B50D46064600F0FFFC684600F050F8CE
:101600000446009810B101F03FF9F8BD1148ADB1A2
:1016100001690968D9B10025311B2A46006800F02C
:101620006DFB01F031F90028EFD10B494FF08050EC
:101630000860BFF34F8FBFF36F8FF8BDA642EBD8A2
:1016400001F022F921463046FFF724FFF8BD0125BD
:10165000E2E700009000002004ED00E070B51646BF
:101660000C46054604E0A869296A044428468847D0
:10167000A8692346011932462846FFF795FE00283F
:10168000F1D170BD0548816B096821B1816BC968D2
:101690000968816270474FF0FF31FAE7500000207F
:1016A0002DE9F041064600F05DFF0E4D0446A868A6
:1016B000844214D24FF0FF3704E0C0683946006816
:1016C000FFF7E8FEE86801680029F6D12969C5E955
:1016D0000310012030602046AC60BDE8F08100209E
:1016E000F8E700009000002008484068401C04D043
:1016F000CE2207A111A0FEF7DFFD502080F3118854
:10170000BFF34F8FBFF36F8FFEE70000C4000020D0
:101710002E2E5C4672656552544F535C706F727426
:1017200061626C655C525644535C41524D5F434D5F
:10173000335C706F72742E63000000004572726F2C
:10174000723A2025732C2025640D0A00084CE068AD
:10175000016839B1002139B10020FFF749FFFFF7D7
:10176000B9FEF4E70121F6E7C0680068F5E700007C
:10177000900000202DE9F041044600F0B5F994F9FD
:10178000455004F124060FE0A06C18B12046FFF785
:1017900035FE04E0606A48B1304600F0F7FF08B15A
:1017A00000F076FB6D1E6DB2002DEDDC4FF0FF36C4
:1017B00084F8456000F0D4F900F096F994F94450AB
:1017C00004F1100709E0206948B1384600F0DEFF57
:1017D00008B100F05DFB6D1E6DB2002DF3DC84F8E6
:1017E0004460BDE8F04100F0BBB900002DE9F041D4
:1017F0000446002600F000FC364F386808B9FFF7B1
:10180000EDFC7869044258D1002C56D004F108054B
:10181000A54252D968070ED005F00700C0F10800B4
:101820002844A84249D90546400704D09C222AA151
:1018300033A0FEF741FD002D3FD0786885423CD8AB
:10184000244918310846046801E0214604466068CE
:10185000A84202D220680028F7D13868B8468442EE
:101860002BD00E682068086060680836401B10287E
:101870000ED96719780704D0CF2217A120A0FEF750
:101880001BFD6068401B786038466560FFF766FDA9
:101890006168D8F804004246401AC8F80400D8F835
:1018A0000830984200D29060506901430020C4E99A
:1018B0000001D068401CC8F80C0000F0E5FF70077C
:1018C00005D04FF4887204A10DA0FEF7F5FC304658
:1018D000BDE8F081A40000202E2E5C4672656552A2
:1018E000544F535C706F727461626C655C4D656DD2
:1018F0004D616E675C686561705F342E6300000047
:101900004572726F723A2025732C2025640D0A00EF
:1019100010B5031F4FF080741C601B1F21F00101E4
:101920001960191F024B0B60143940380A6010BD52
:10193000E91600081CB500F0D7F813490220CDE9DC
:1019400000010023802211A1134800F0D1FD0E49AF
:101950000320091DCDE90001002380220FA11248B8
:1019600000F0C6FD084904200831CDE9000100233C
:1019700080220EA1104800F0BBFD002000F016FAF6
:10198000BDE81C4000F0ECB8180000206C65643025
:101990005F7461736B000000490E00086C65643170
:1019A0005F7461736B000000810E00086B65795FE6
:1019B0007461736B00000000DD0D000870B5054612
:1019C00086B0012144F20400FEF74EFF4FF4007090
:1019D000ADF8100003248DF8124018201D4E8DF82C
:1019E000130004A93046FEF7A9FE3015ADF810002B
:1019F00004208DF8130004A93046FEF79FFE252031
:101A00008DF814008DF815408DF8164001208DF8E2
:101A1000170005A8FEF7ECFE0020ADF80400ADF8B5
:101A20000600ADF80800ADF80C000C200A4CADF82B
:101A30000A00009569462046FFF79CF8012240F213
:101A400025512046FFF77DF801212046FFF750F889
:101A500006B070BD0008014000380140D0E90132F5
:101A600001699A60D0E901235A604A68824201D133
:101A700082684A60002202610868401E08600868A7
:101A8000704700F108014FF0FF32C0E90112C16058
:101A9000016100210160704700210161704730B58C
:101AA0000C68621C02D000F1080202E0026904E046
:101AB0001A4653681D68A542FAD953684B6099606D
:101AC0008A60516008610168491C016030BD42684C
:101AD0004A6093688B6093685960916008610168FF
:101AE000491C016070470000502080F31188BFF34B
:101AF0004F8FBFF36F8F09494868401C4860012829
:101B00000AD10748006810F0FF0F05D040F27312A9
:101B100004A10FA0FEF7D0BB70470000C400002056
:101B200004ED00E02E2E5C4672656552544F535C06
:101B3000706F727461626C655C525644535C4152C2
:101B40004D5F434D335C706F72742E630000000074
:101B50004572726F723A2025732C2025640D0A009D
:101B600010B5084C606828B94FF4BD7206A111A0E9
:101B7000FEF7A2FB6068401E606001D180F311880F
:101B800010BD0000C40000202E2E5C467265655218
:101B9000544F535C706F727461626C655C52564452
:101BA000535C41524D5F434D335C706F72742E63D2
:101BB000000000004572726F723A2025732C2025B8
:101BC000640D0A0070B500282DD0174DA0F108044F
:101BD00060686969084205D14FF4927213A11DA093
:101BE000FEF76AFB206828B140F225120FA119A068
:101BF000FEF762FB60686969084214D02268002A17
:101C000011D18843606000F0F7F9606869680844A2
:101C100068602046FFF7A2FB2869401C2861BDE8E8
:101C2000704000F031BE70BDA40000202E2E5C4636
:101C300072656552544F535C706F727461626C656B
:101C40005C4D656D4D616E675C686561705F342EDB
:101C5000630000004572726F723A2025732C2025B4
:101C6000640D0A004FF0E020002101618161054907
:101C70004FF4FA520968B1FBF2F1491E41610321A8
:101C8000016170470000002070B50E4605004FF05E
:101C9000000405D140F6C9220EA113A0FEF70CFBEB
:101CA000002E15D01449002201EBC2004368AB425C
:101CB00002D101EBC20407E01CB951F8323003B97C
:101CC0000446521C082AEFD3002C01D0C4E9006559
:101CD00070BD00002E2E5C4672656552544F535CF9
:101CE00071756575652E63004572726F723A2025B5
:101CF000732C2025640D0A009801002070B515464C
:101D00000E460446FFF7F0FE94F944100020491CEB
:101D100001D184F8440094F94510491C01D184F89C
:101D20004500FFF71DFFA06B28B92A46314604F194
:101D3000240000F0DDF82046BDE87040FFF71ABD32
:101D400010B5040012D00E49496B29B140F2495236
:101D50000CA111A0FEF7B0FA00F04EF900212046C8
:101D6000FFF700F900F090FD002807D10E494FF071
:101D700080500860BFF34F8FBFF36F8F10BD00001E
:101D8000500000202E2E5C4672656552544F535C05
:101D90007461736B732E63004572726F723A202503
:101DA000732C2025640D0A0004ED00E070B5044694
:101DB000FFF79AFE254D04B92C68201DFFF74EFE53
:101DC00058B9E06A224A00EB800152F8211021B98B
:101DD00001218140286988432861A06A18B104F173
:101DE0001800FFF73BFE686A401C6862286884425E
:101DF00007D1211D1748FFF76AFE6868401C68601C
:101E000004E0A868401EA860FFF73CFCFFF7A8FEAE
:101E10002868844202D02046FFF7D5F96869002877
:101E200012D0286884420FD1686B28B140F2DC429E
:101E300009A10EA0FEF740FA10494FF0805008604B
:101E4000BFF34F8FBFF36F8F70BD000050000020B5
:101E5000D8010020940400202E2E5C467265655245
:101E6000544F535C7461736B732E63004572726FD1
:101E7000723A2025732C2025640D0A0004ED00E041
:101E800002490A6A0260C968416070475000002038
:101E900001490120C86170475000002070B50D460F
:101EA000040005D140F61C4207A10CA0FEF704FA7D
:101EB0000E48016820461831FFF7F1FD2846BDE8BD
:101EC00070400121FFF74EB82E2E5C4672656552B8
:101ED000544F535C7461736B732E63004572726F61
:101EE000723A2025732C2025640D0A005000002032
:101EF00070B515460E46040005D140F6524210A1B9
:101F000014A0FEF7D9F9174960680A68D0618268A1
:101F10000B681A620A68836818325A600A681832B5
:101F20008260086884622068401C20600DB14FF018
:101F3000FF3629463046BDE87040FFF713B8000071
:101F40002E2E5C4672656552544F535C7461736B00
:101F5000732E63004572726F723A2025732C202510
:101F6000640D0A00500000207CB516480025CDE91C
:101F700000502B46802214A1154800F0B9FA114CEC
:101F80002C3C012803D100F025FD012802D0401C83
:101F900010D015E0502080F31188BFF34F8FBFF3AE
:101FA0006F8F4FF0FF30A06201206061E56000F0AC
:101FB00069F805E04FF4046206A10BA0FEF77CF976
:101FC000206B7CBD7C00002049444C450000000093
:101FD000291200082E2E5C4672656552544F535CE0
:101FE0007461736B732E63004572726F723A2025B1
:101FF000732C2025640D0A000248416B491C416383
:10200000704700005000002070B5134D686B10B190
:102010000120E86170BD0020E86128690F4EB0FA28
:1020200080F0C0F11F0000EB800456F8240028B9AE
:1020300040F602420AA10FA0FEF73EF906EB84002B
:1020400000F10802416849684160914201D1496844
:102050004160C868286070BD50000020D801002091
:102060002E2E5C4672656552544F535C7461736BDF
:10207000732E63004572726F723A2025732C2025EF
:10208000640D0A007CB52A4D28780190FF20287045
:1020900028788DF800009DF800009DF8001000F0F1
:1020A000F000884205D040F21F1222A12CA0FEF7BA
:1020B00003F99DF800002E4C00F05000207007201E
:1020C000A06006E0401EA0609DF8000040008DF872
:1020D00000009DF800000006A068F3D403280ED08D
:1020E00040F2331213A11EA0FEF7E6F8A068032801
:1020F00005D04FF49E720FA119A0FEF7DDF8207AEB
:10210000000200F4E060A06001982870194801689E
:1021100041F470010160016841F070410160FFF716
:10212000A1FD00206060FEF76BF800207CBD000080
:1021300000E400E02E2E5C4672656552544F535CFD
:10214000706F727461626C655C525644535C4152AC
:102150004D5F434D335C706F72742E63000000005E
:102160004572726F723A2025732C2025640D0A0087
:10217000C400002020ED00E010B5502080F311884D
:10218000BFF34F8FBFF36F8F00F0F2F918B104491E
:102190004FF080500860002080F3118810BD0000CF
:1021A00004ED00E02DE9F04117460E4605004FF022
:1021B00000041FD0601EB0FBF5F0B0421AD305FB3F
:1021C00006F010F1550F15D85430FFF70FFB04003F
:1021D00016D004F154005EB12060C4E90F562046C9
:1021E000012100F023F884F850700021A16407E079
:1021F0002460F2E74FF4E37203A108A0FEF75CF855
:102200002046BDE8F08100002E2E5C4672656552C6
:10221000544F535C71756575652E63004572726F1E
:10222000723A2025732C2025640D0A002DE9F04117
:102230000E4604004FF001052AD0E06B70B3AF1ECC
:10224000B7FBF0F1206C814228D3FFF74DFCD4E9B5
:102250000F20216802FB0011A1600021A163216809
:1022600061600A46D4E90F01401E00FB01212046AF
:10227000E16000F8447F477004F11000C6B1FFF739
:1022800000FC04F12400FFF7FCFBFFF769FC0CE005
:102290004FF488720EA113A0FEF70EF8002540F24D
:1022A00045120BA10FA0FEF707F82846BDE8F08104
:1022B00021690029E9D000F069FA0028E5D00D492C
:1022C0004FF080500860BFF34F8FBFF36F8FDCE794
:1022D0002E2E5C4672656552544F535C7175657560
:1022E000652E63004572726F723A2025732C20258B
:1022F000640D0A0004ED00E02DE9F74783B08A463B
:1023000004004FF0000605D140F2515244A149A00B
:10231000FDF7D2FFBAF1000F07D1206C28B140F2CF
:1023200055523FA143A0FDF7C7FF00F00DF938B9A2
:10233000059828B140F25A5239A13EA0FDF7BCFFE2
:1023400000274FF08058DFF8FC90FFF7CDFBA56B1E
:10235000C5B151462046FEF7EDFE6D1EA56320690E
:1023600050B104F1100000F011FA28B1C9F8008052
:10237000BFF34F8FBFF36F8FFFF7F2FB012006B063
:10238000BDE8F087059808B11EB106E0FFF7E8FB4D
:1023900027E06846FFF774FD0126FFF7E1FBFFF732
:1023A0002BFEFFF7A1FB94F94400401C01D184F8F7
:1023B000447094F94500401C01D184F84570FFF742
:1023C000CFFB05A9684600F03FF8002820460AD058
:1023D000FFF7D0F900F058FA2046FFF701F800287F
:1023E000B3D00020CBE7FEF7FBFF90B104F124004F
:1023F0000599FFF753FD2046FFF7BCF900F044FABA
:102400000028A2D1C9F80080BFF34F8FBFF36F8FB0
:102410009BE72046FFF7AEF900F036FA95E700009B
:102420002E2E5C4672656552544F535C717565750E
:10243000652E63004572726F723A2025732C202539
:10244000640D0A0004ED00E02DE9F0410D460400A2
:1024500005D140F6FD421CA120A0FDF72DFF2DB9AE
:1024600040F6FE4218A11DA0FDF726FFFFF73CFB3A
:102470001E4EF16863683068CA1A002790F8590048
:1024800018B1306880F8597018E02868B0F1FF3F43
:1024900009D0D4F800C0366AB44506D08B4204D8BF
:1024A00001242F600BE0002409E0904205D9801A36
:1024B00028602046FFF7E4FCF5E72F600124FFF7D2
:1024C0004FFB2046BDE8F0812E2E5C4672656552BA
:1024D000544F535C7461736B732E63004572726F5B
:1024E000723A2025732C2025640D0A00500000202C
:1024F0002DE9FF5F8346DDE90E87994616468A4639
:102500009000FFF773F905001AD05C20FFF76EF911
:10251000040012D025630021CDE90241CDE90087F6
:102520004B46324651465846FEF7ACFE2046FEF773
:1025300061FD012004B0BDE8F09F2846FFF742FB93
:102540004FF0FF30F6E700000548416919B1406BD4
:1025500018B100207047012070470220704700002A
:10256000500000200148C068704700005000002063
:102570002DE9F041454E0025706B28B1B069401C33
:10258000B0612846BDE8F081F468641CF46011D1A4
:10259000B06B006828B140F6C7223DA141A0FDF70D
:1025A0008BFEB06BF16BB163F063306A401C30623C
:1025B000FFF768F8B06ADFF8FCE084420BD34FF015
:1025C000000CB06B0068A0B1B06BC068C16848680F
:1025D000844211D2B0623068C06A00EB80005EF8BD
:1025E0002000012800D90125F0690028C9D0012563
:1025F000C7E74FF0FF30EDE7D1E9023248699A6052
:10260000D1E902235A6043680A1D934201D1CB6885
:102610004360C1F814C003685B1E0360886A88B118
:10262000D1E907379F60D1E907377B60476801F13F
:1026300018039F4201D10B6A4360C1F828C00368A8
:102640005B1E0360C86A0123376983403B433361E3
:1026500000EB80000EEB8000406888608368CB60F0
:1026600083685A608260C86A00EB80000EEB8002CB
:102670004A615EF82020521C4EF82020C86A31685A
:10268000C96A88429DD301259BE7000050000020C5
:102690002E2E5C4672656552544F535C7461736BA9
:1026A000732E63004572726F723A2025732C2025B9
:1026B000640D0A00D801002070B504004FF0000638
:1026C0004BD0274D2868844205D041F24F0225A106
:1026D00029A0FDF7F1FD206D28B941F2500221A19A
:1026E00025A0FDF7E9FD206D401E2065E26CE16A42
:1026F000914232D088BB201DFFF7B0F9012130B9DB
:1027000094F82C002A6901FA00F082432A61E06CF7
:10271000E062C0F12000A061E06A2A6981401143B3
:102720002961194A00EB800002EB80004068A0603C
:102730008168E1608368211D59608160E06A00EB77
:10274000800002EB80006061E06A00EB800052F8DC
:102750002010491C42F820100126304670BD0000B0
:10276000500000202E2E5C4672656552544F535C1B
:102770007461736B732E63004572726F723A202519
:10278000732C2025640D0A00D801002070B5C068A4
:10279000C4682CB940F682422FA134A0FDF78CFD0D
:1027A000D4E90721A06A9160D4E907125160426818
:1027B00004F118018A4201D1226A42600025A56213
:1027C0000268521E02602D4A506B012398B12C4DB5
:1027D0006868E06186682662866871608160A562CB
:1027E0002868401C2860E06A1168C96A884231D9AB
:1027F0000120D36170BDD4E902616069B160D4E9A0
:10280000021671604668211D8E4201D1E66846605D
:10281000656105686D1E0560E06A166903FA00F5DA
:1028200035431561174D00EB800005EB80004068D3
:10283000A0608668E660866871608160E06A00EB8F
:10284000800005EB8001616155F82010491C45F8B6
:102850002010C8E7002070BD2E2E5C4672656552C0
:10286000544F535C7461736B732E63004572726FC7
:10287000723A2025732C2025640D0A005000002098
:1028800080040020D80100202DE9F047444D0024A9
:10289000A146686B28B940F6B30242A146A0FDF7F5
:1028A0000BFDFFF721F9686B401E6863686B002819
:1028B00070D1A868DFF810C100264FF00108E8BB0E
:1028C00068E0DCF80C00C468D4E90721A06A9160D4
:1028D000D4E907125160426804F118018A4201D11B
:1028E000216A4160A6620168491E0160D4E90221A3
:1028F00060699160D4E9021251604268211D8A42E8
:1029000001D1E268426066610268521E0260E06ABC
:102910002F69434608FA00F23A432A612B4A00EB3A
:10292000800002EB80004068A0608768E7608768ED
:1029300079608160E06A00EB800000E00DE002EB6E
:102940008001616152F82010491C42F82010E06AB1
:102950002968C96A884200D3EB61DCF800000028CE
:10296000AFD10CB1FEF78EFEAC693CB14746FFF724
:10297000FFFD00B1EF61641EF9D1AE61E86948B1B5
:1029800013494FF080504FF001090860BFF34F8F9B
:10299000BFF36F8FFFF7E4F84846BDE8F08700000B
:1029A000500000202E2E5C4672656552544F535CD9
:1029B0007461736B732E63004572726F723A2025D7
:1029C000732C2025640D0A0080040020D80100200B
:1029D00004ED00E01CB50024FEF784FB0C48006801
:1029E00068B10B491F20091DCDE9000100234FF4F8
:1029F000807208A10948FFF77BFD040005D140F271
:102A0000191207A10CA0FDF757FC20461CBD0000C1
:102A100090000020546D7220537663004D1700081B
:102A20002E2E5C4672656552544F535C74696D6519
:102A300072732E63000000004572726F723A202597
:102A4000732C2025640D0A00682A0008000000206D
:102A5000D00000006C010008382B0008D0000020D6
:102A6000783200008801000800A24A04000000003B
:102A7000000000000102030406070809000000002E
:102A80000000000000000000000000000000000046
:102A90000000000000000000010000000000000035
:102AA0000000000002040608000000000102030408
:102AB00001020304060708090000000000000000EE
:102AC0000000000000000000000000000000000006
:102AD00000000000000000000000000000000000F6
:102AE00000000000000000001F00000000000000C7
:102AF00000000000000000000000000000000000D6
:102B000000000000000000000000000000000000C5
:102B100000000000000000000000000000000000B5
:102B200000000000000000000000000000000000A5
:082B3000AAAAAAAA00000000F5
:040000050800027578
:00000001FF
