:020000040800F2
:100000003833002075020008A7080008A30800087C
:10001000A508000839070008D90C000800000000F6
:10002000000000000000000000000000DD010008EA
:100030003B07000800000000210200088D0A0008AC
:100040008F0200088F0200088F0200088F0200084C
:100050008F0200088F0200083D0700088F02000889
:100060008F02000879070008B10700088F02000816
:100070008F0200088F0200088F0200088F0200081C
:100080008F0200088F0200088F0200088F0200080C
:100090008F0200088F0200088F0200088F020008FC
:1000A0008F0200088F0200088F0200088F020008EC
:1000B0008F020008F10A00088F0200088F02000872
:1000C0008F0200088F0200088F0200088F020008CC
:1000D0008F0200083D0B00088F0200088F02000805
:1000E0008F0200088F0200088F0200088F020008AC
:1000F0008F0200088F0200088F0200088F0200089C
:100100008F0200088F0200088F0200088F0200088B
:100110008F0200088F0200088F0200088F0200087B
:100120008F0200088F0200088F0200088F0200086B
:1001300000F002F800F042F80AA090E8000C8244B7
:100140008344AAF10107DA4501D100F037F8AFF294
:10015000090EBAE80F0013F0010F18BFFB1A43F0A5
:1001600001031847B8280000D8280000103A24BF1F
:1001700078C878C1FAD8520724BF30C830C144BF0C
:1001800004680C607047000000230024002500264E
:10019000103A28BF78C1FBD8520728BF30C148BFEA
:1001A0000B607047642900F0F180732900F026820B
:1001B000002070471FB51FBD10B510BD00F08CFAB0
:1001C0001146FFF7F7FF00F021FE00F0AAFA03B492
:1001D000FFF7F2FF03BC00F080FD0000224B19681E
:1001E0000868B0E8F00F80F30988BFF36F8F4FF015
:1001F000000080F311884EF00D0E704700000000E3
:1002000006480068006880F3088862B661B6BFF3EC
:100210004F8FBFF36F8F00DF00BF00BF08ED00E01E
:10022000EFF30980BFF36F8F0F4B1A6820E9F00FCF
:10023000106008B54FF0500080F31188BFF34F8F66
:10024000BFF36F8F01F074FE4FF0000080F3118850
:10025000BDE8084019680868B0E8F00F80F3098825
:10026000BFF36F8F704700BF44000020EFF305809D
:10027000704700000948804709480047FEE7FEE74D
:10028000FEE7FEE7FEE7FEE7FEE7FEE7FEE7FEE746
:1002900004480549054A064B70470000A10A0008BA
:1002A00031010008382D002038330020382F00207D
:1002B000382F0020704700000FB4044910B503AA7E
:1002C000029800F09FF910BC5DF814FB2C00002090
:1002D0002DE9F0410E460446002020622046E168E8
:1002E000884730B3252805D0D4E901219047206AFA
:1002F000401CF2E7E168204600278847050018D037
:10030000A5F14100192802D820354FF40067324684
:10031000294620462760FFF745FF40B1012804D059
:10032000F61D26F007060836D8E7361DD6E728461C
:10033000DAE7206ABDE8F08170B50C460546012A6F
:1003400005D02878800600D5EA69002302E0012361
:1003500005E05B1C934202D2E05C0028F9D1A86959
:10036000E618C01AA861286A184428622846AFF324
:10037000008004E0D5E9012114F8010B9047B44254
:10038000F8D32846AFF3008070BD00002DE9F0419E
:100390000646002410687529314616A510D0AFF323
:1003A0000080002802DA404213A507E031688A077E
:1003B00001D512A502E0490704D511A5012401E0E9
:1003C000AFF3008000210A2206F1240709E0B0FB08
:1003D000F2FCB0FBF2F302FB1C00303078541846FC
:1003E000491C0028F3D123462A463046BDE8F04197
:1003F00000F080B8000000002D0000002B0000007D
:1004000020000000032A40F2308010F0030C00F0BE
:10041000158011F8013BBCF1020F624498BF11F83E
:1004200001CB00F8013B38BF11F8013BA2F10402F7
:1004300098BF00F801CB38BF00F8013B11F003036F
:1004400000F0F280083AC0F0088051F8043B083A06
:1004500051F804CBA0E80810F5E7121D5CBF51F875
:10046000043B40F8043BAFF30080D20724BF11F8EF
:10047000013B11F801CB48BF11F8012B24BF00F854
:10048000013B00F801CB48BF00F8012B704702F098
:10049000FF0343EA032242EA024200F0F9B84FF0B8
:1004A000000200B5134694469646203922BFA0E8C4
:1004B0000C50A0E80C50B1F12001BFF4F7AF0907D0
:1004C00028BFA0E80C5048BF0CC05DF804EB8900C1
:1004D00028BF40F8042B08BF704748BF20F8022B04
:1004E00011F0804F18BF00F8012B7047704770471C
:1004F000704770472DE9F0470D46994692460446ED
:1005000000F124080168880604D5E06921F0100193
:10051000216000E00120A84201DD471B00E0002728
:10052000A1697A1902EB0900081AA0612078C006B7
:1005300002D42046AFF30080002608E0D4E9012170
:100540001AF806009047206A401C761C20624E452F
:10055000F4DB2078C0060AD52046AFF3008006E021
:10056000D4E9012130209047206A401C2062381EC7
:10057000A7F10107F4DC07E0D4E9012118F8050030
:100580009047206A401C2062281EA5F10105F3DC7B
:100590002046AFF300802078000602D50220BDE897
:1005A000F0870120FBE7000001694A1C026108781E
:1005B000704700B58FB0CDE90131002105910549A3
:1005C0007944CDE9031011466846FFF781FE0FB06C
:1005D00000BD0000E5FFFFFF10B5436913B1AFF3A5
:1005E000008001E0FFF7A8FE012010BD127800F1A5
:1005F00024010A7000224A700122EDE711684FF0D1
:10060000FF32E9E7074B70B50D467B44FFF7D1FF9A
:100610000446284600F05CF810B14FF0FF3070BD82
:10062000204670BD5B07000010B5203AC0F00B807B
:10063000B1E81850203AA0E81850B1E81850A0E8E6
:100640001850BFF4F5AF5FEA027C24BFB1E8185040
:10065000A0E8185044BF18C918C0BDE810405FEAB0
:10066000827C24BF51F8043B40F8043B08BF70472C
:10067000D20728BF31F8023B48BF11F8012B28BF31
:1006800020F8023B48BF00F8012B70474FF00002F2
:100690000429C0F0128010F0030C3FF402AFCCF13B
:1006A000040CBCF1020F18BF00F8012BA8BF20F802
:1006B000022BA1EB0C01FFF7F4BE5FEAC17C24BF63
:1006C00000F8012B00F8012B48BF00F8012B704700
:1006D000007B00F080007047754600F029F8AE46B8
:1006E00005006946534620F00700854618B020B53E
:1006F000FFF7CEFDBDE820404FF000064FF00007A9
:100700004FF000084FF0000B21F00701AC46ACE8B9
:10071000C009ACE8C009ACE8C009ACE8C0098D4626
:1007200070470446AFF300802046FFF750FD0000FD
:1007300000487047D82C0020FEE7704738B50020ED
:100740000C4C00900121204600F0A2F801280BD1AA
:1007500042F2107101E0421C009200988842FAD3E4
:100760000121204600F094F8BDE83840012000F057
:100770003BB800000008014038B500200B4C009049
:100780000821204600F084F858B942F2107101E0C7
:10079000421C009200988842FAD30821204600F0BB
:1007A00077F8BDE83840082000F01EB80018014076
:1007B00038B500200B4C00901021204600F068F85E
:1007C00058B942F2107101E0421C00920098884230
:1007D000FAD31021204600F05BF8BDE83840102025
:1007E00000F002B80018014001490860704700009D
:1007F00014040140F0B5CC78002204F00F03E406A5
:1008000001D58C7823430C784FF00F0C14F0FF0FB8
:100810004FF0010E1BD005680E880EFA02F4264038
:10082000A64210D196000CFA06F725EA070703FA4C
:1008300006F5CE783D43282E02D0482E02D002E0A5
:10084000446100E00461521C082AE5D305600A886F
:10085000FF2A1CD94468002202F108060EFA06F5A8
:100860000E882E40AE420ED196000CFA06F7BC431D
:1008700003FA06F7CE783C43282E00D14561CE78A6
:10088000482E00D10561521C082AE5D34460F0BD12
:100890000246002092680A4200D0012070470161A0
:1008A0007047FEE7FEE7704730B50F23C278017846
:1008B0000125F2B1144A126801F1E02102F4E0626C
:1008C000C2F5E062120AC2F10404D3404278A240A9
:1008D00084781C401443220181F80024007800F041
:1008E0001F018D404009800000F1E020C0F8005158
:1008F00030BD01F01F0085404809800000F1E02074
:10090000C0F8805130BD00000CED00E00249084302
:1009100002490860704700000000FA050CED00E095
:10092000044A0029916901D0014300E081439161AB
:10093000704700000010024030B5204A5168204B3B
:1009400011F00C0103D0042901D0082901D0036063
:1009500012E05168536801F470114FF0020413F46F
:10096000803F04EB914102D053689B0301D5154BA6
:1009700000E0134B5943016051680F2303EA111142
:10098000114B5C5C0168E14041605468072505EA51
:1009900014241C5D21FA04F48460546805EAD4240C
:1009A0001B5DD940C1605268032303EA9232064BB3
:1009B0001B1F9A5CB1FBF2F1016130BD00100240D7
:1009C00000127A0000093D00340000200CB500221E
:1009D000264800920192016841F4803101604FF491
:1009E000A063016801F4003101910099491C009154
:1009F000019911B900999942F3D10168890333D55E
:100A0000012101911A490A6842F010020A600A683D
:100A100022F003020A600A6842F002020A6041689A
:100A2000416041684160416841F4806141604168D2
:100A300021F47C114160416841F4E8114160016892
:100A400041F08071016001688901FCD5416821F0A5
:100A500003014160416841F0020141604168C1F316
:100A600081010229FAD10CBD01920CBD0010024097
:100A7000002002404FF0E0210428086903D020F054
:100A800004000861704740F00400FAE710B501F077
:100A900045FD012803D0BDE8104001F001BB10BDA9
:100AA0000F4810B5016841F00101016041680D4A2D
:100AB0001140416001680C4A11400160016821F455
:100AC00080210160416821F4FE0141604FF41F0163
:100AD0008160FFF77BFF05494FF00060086010BDA3
:100AE000001002400000FFF8FFFFF6FE08ED00E0F6
:100AF00010B5084C0121204600F013F8012803D15D
:100B000005490A68521C0A602046BDE810400121D0
:100B100000F004B80004004020000020C943018216
:100B2000704702460020138A92890B4202EA0102B2
:100B300002D0002A00D001207047000070B5154C8B
:100B400040F22551204600F035F800280ED020460E
:100B500000F0BEF8104AC1B21088030406D4440461
:100B60004FF0000306D50A2901D0138070BD40F470
:100B700000400DE00D2909D0C0F30D04074D401CC5
:100B800080B229551080C728EFD870BD40F480404E
:100B9000108070BD0038014028000020C4000020F3
:100BA0000029818902D041F4005101E021F4005173
:100BB0008181704770B501F01F0501260024C1F343
:100BC000421306FA05F2012B0FD0022B0FD0838AB5
:100BD0004FEA11210088134206FA01F600EA0600E6
:100BE00001D000B10124204670BD8389F0E7038A5B
:100BF000EEE710B5C1F3421301F01F040121A1403B
:100C0000012B07D0022B07D01430002A026805D030
:100C10000A4304E00C30F8E71030F6E78A4302603C
:100C200010BD000030B50446008A85B00D464CF674
:100C3000FF710840E98801432182A0894EF6F31133
:100C40000840A9882A8911436A8902431143A18176
:100C5000A08A4FF6FF410840A9890143A182684656
:100C6000FFF76AFE1948844201D1039800E0029818
:100C7000A189090400EBC00101EB0010296801D52E
:100C8000490000E08900B0FBF1F06422B0FBF2F112
:100C900009010B096FF018056B4300EB8300A38972
:100CA0001D044FF0320306D503EBC000B0FBF2F099
:100CB00000F0070005E003EB0010B0FBF2F000F0DD
:100CC0000F000843208105B030BD0000003801400E
:100CD0008088C0F308007047FEE7704710B5042015
:100CE000FFF7C8FE09480A490068B0FBF1F109485E
:100CF0000170012141804FF0E020016941F00201C3
:100D00000161016941F00101016110BD0000002095
:100D100000127A002400002070B50B4A4FF0E02545
:100D2000002112786C695043AB69AA699A42FCD0E1
:100D300002D2A3EB020302E0A4EB020633441944FF
:100D400013468142F1D370BD2400002070B50546E2
:100D500000244FF47A7603E03046FFF7DDFF641C91
:100D6000AC42F9D370BD000004490A885206FCD594
:100D7000024AC1B2121D11807047000000380140C4
:100D800008B501214420FFF7CBFD1820ADF8000085
:100D900048208DF8030069460648FFF72BFD012027
:100DA000ADF8000028208DF8030069460248FFF7DF
:100DB00021FD08BD001801400008014038B501219F
:100DC0004820FFF7ADFD2024ADF8004010208DF83D
:100DD000030003200B4D8DF8020069462846FFF7FB
:100DE00009FD20212846FFF75AFDADF80040064CCA
:100DF00069462046FFF7FEFC20212046FFF74FFD05
:100E000038BD0000000C01400018014010B54FF43F
:100E10004070FFF77BFD4FF4E13000F063FDFFF71A
:100E20005DFFFFF7CBFFFFF7ABFF00F003F80020FB
:100E300010BD00001CB507490120CDE900010023C9
:100E4000802205A1074801F0E7FABDE81C4001F047
:100E50001FB800001400002073746172745F746125
:100E6000736B0000391800082DE9F041204D0F4642
:100E70000446EE682968002081F859002868001DA2
:100E800000F080FD38B9286890F82C1001208840C7
:100E9000296981432961601C15D1A7B115492A68C8
:100EA000486890602B688268DA602A688368121D3F
:100EB0005A602A68121D8260286841610868401CD7
:100EC0000860BDE8F08128683444B4424460296871
:100ED00005D2E86BBDE8F041091D00F074BDA86BB8
:100EE000091D00F070FDA86A8442EAD2AC62E8E70E
:100EF000440000209C0400202DE9F041044600F04D
:100F000087FD354EB068401CB0603068334F10B17B
:100F1000706930B32BE03460B068012827D1002518
:100F200005EB850007EB800000F03FFD6D1C202DD8
:100F3000F6D32B4800F039FD2948143000F035FD78
:100F40002748283000F031FD25483C3000F02DFDC9
:100F50002348503000F029FD2148B0631430F0637D
:100F600005E03068E16AC06A884200D83460706A7F
:100F70000121401C70626064E06A32698140114363
:100F8000316100EB800007EB80004068A060816861
:100F9000E1608268211D51608160E06A00EB8000A1
:100FA00007EB8001616157F82010491C47F82010B9
:100FB00000F06AFD706900280CD03068E16AC06AF0
:100FC000884207D207494FF080500860BFF34F8F27
:100FD000BFF36F8FBDE8F08144000020CC010020FA
:100FE0004C04002004ED00E010B500F011FD0E4CA3
:100FF0002068A0B90D4800F0D8FC0C48143000F06F
:10100000D4FC0A48E0601430206100221021052041
:1010100001F05CF8206010B105A100F0C9FDBDE849
:10102000104000F031BD000084000020B00400201A
:10103000546D72510000000030B4026C0B46002A5F
:101040000BD0C1681144C1608468A14201D301681A
:10105000C16030BC1846FFF7D5B930BC70472DE9E8
:10106000F041856B174604460026026C82B1C7B179
:10107000E068FFF7C7F9E168206C091AE1602268AF
:10108000914202D2A168081AE060022F16D017E040
:101090002068A8B9A06801F0F9FA06460020A0600F
:1010A0000EE06068FFF7AEF9216C6068084460608C
:1010B000A168884204D32068606001E005B16D1E1C
:1010C0006D1CA5633046BDE8F08110B50446006B89
:1010D00000F00CFD2046BDE8104000F007BD000008
:1010E00010484FF42051420706D0C01D0D4920F092
:1010F0000700411AC1F520510B4A00230144C2E9FF
:1011000000030839183A21F0070111604B600B60A9
:101110000B1AC0E9001393604FF000405360506118
:1011200070470000D8040020B0000020134E144D7A
:10113000A6F52F774FF08058DFF8489011E000F0C7
:1011400067FCF068C468201D00F01CFCA868401E05
:10115000A8606868401E686000F096FC2046FFF7B3
:10116000B4FF68680028EAD138680128F9D9C9F8BD
:101170000080BFF34F8FBFF36F8FF2E7880400202A
:101180004400002004ED00E02DE9F05FDDE90B9460
:101190000E461746834691009A460A9DA522206B6B
:1011A000FFF775F96FF00301206B01EB870108442D
:1011B00020F007085FEA487005D04FF458721FA16D
:1011C00023A0FFF779F8002766B100202218315CD0
:1011D00082F83410315C11B1401C1028F6D384F829
:1011E000437001E084F83470202D06D340F297322A
:1011F00012A117A0FFF760F81F25E562C4E9135795
:10120000201D00F0DDFB04F1180000F0D9FB246183
:10121000C5F120006462A061676584F8587084F8A5
:10122000597052465946404600F0F4FA2060B9F130
:10123000000F01D0C9F80040BDE8F09F2E2E5C469B
:1012400072656552544F535C7461736B732E630007
:101250004572726F723A2025732C2025640D0A00A6
:1012600030B5114900E011460A688242FBD34B6851
:101270005C18844203D140681844486008464368BB
:101280001C18944209D1084C183C2468A24209D089
:1012900052681A4442600A6812680260814200D0B3
:1012A000086030BD0460F9E7B000002070B500248C
:1012B00041600B4D0061914206D8D11A826991427A
:1012C00006D2011D286907E09A4203D2994201D350
:1012D000012403E0011DE86800F075FB204670BDA5
:1012E0008400002010B5044600F092FBA06B20B1F2
:1012F000002400F0C9FB204610BD0124F9E70000DE
:10130000F1B500980026846C2CB940F6D43219A1AE
:101310001DA0FEF7D1FFA06BE16B884205D340F61C
:10132000D53214A118A0FEF7C7FFA06BE16B88426D
:101330001ED294F94550002269462046FFF78FFEE1
:101340000646681C02D07F2D09D00EE0606A78B195
:1013500004F1240001F004FA50B1012608E040F63F
:10136000F53204A108A0FEF7A7FF6D1C84F84550D4
:101370003046F8BD2E2E5C4672656552544F535C64
:1013800071756575652E63004572726F723A20251E
:10139000732C2025640D0A0070B506460D480D46D5
:1013A000C068C068C468201D00F0ECFA94F82800FA
:1013B000410705D52A463146204600F0D1F803E022
:1013C00000F0FE0084F828002046216ABDE8704045
:1013D000084700008400002070B586B03A4E69E0EE
:1013E0000098002806DADDE90201019A904700988A
:1013F00000285FDB029C606910B1201D00F0C2FA7A
:1014000004A800F0CFF8054600980A2852D2DFE879
:1014100000F0510505282E450505282E94F82800D2
:101420002A4640F0010084F828000198A16903468B
:1014300001442046FFF73AFF78B394F828004107AB
:1014400007D50198A1692A460144204600F088F892
:1014500003E000F0FE0084F82800216A2046884757
:1014600028E014F8280F00F0FE00207022E094F825
:10147000280040F0010084F828000198A06128B9F4
:1014800040F2593211A117A0FEF716FFA0692B46B2
:1014900041191A462046FFF709FF0BE094F828008F
:1014A000810703D4204600F021FB03E000F0FE009A
:1014B00084F8280000226946306800F0B1FE002858
:1014C0008ED106B070BD0000840000202E2E5C4638
:1014D00072656552544F535C74696D6572732E6307
:1014E000000000004572726F723A2025732C20258F
:1014F000640D0A00F8B50D46064600F011FD684679
:1015000000F050F80446009810B101F0A7F9F8BDBA
:101510001148ADB101690968D9B10025311B2A46CE
:10152000006800F07FFB01F099F90028EFD10B492A
:101530004FF080500860BFF34F8FBFF36F8FF8BD3F
:10154000A642EBD801F08AF921463046FFF724FF86
:10155000F8BD0125E2E700008400002004ED00E072
:1015600070B516460C46054604E0A869296A04448D
:1015700028468847A8692346011932462846FFF7BE
:1015800095FE0028F1D170BD0548816B096821B135
:10159000816BC9680968816270474FF0FF31FAE7D3
:1015A000440000202DE9F041064600F0C5FF0E4D35
:1015B0000446A868844214D24FF0FF3704E0C068A4
:1015C00039460068FFF7E8FEE86801680029F6D1AF
:1015D0002969C5E90310012030602046AC60BDE8F0
:1015E000F0810020F8E700008400002008484068EF
:1015F000401C04D0CE2207A111A0FEF75DFE5020B2
:1016000080F31188BFF34F8FBFF36F8FFEE70000A9
:10161000B80000202E2E5C4672656552544F535C14
:10162000706F727461626C655C525644535C4152D7
:101630004D5F434D335C706F72742E630000000089
:101640004572726F723A2025732C2025640D0A00B2
:10165000084CE068016839B1002139B10020FFF77A
:1016600049FFFFF7B9FEF4E70121F6E7C06800681B
:10167000F5E70000840000202DE9F041044600F069
:10168000C7F994F9455004F124060FE0A06C18B195
:101690002046FFF735FE04E0606A48B1304601F0AD
:1016A0005FF808B100F088FB6D1E6DB2002DEDDC17
:1016B0004FF0FF3684F8456000F0E6F900F0A8F935
:1016C00094F9445004F1100709E0206948B1384604
:1016D00001F046F808B100F06FFB6D1E6DB2002DF1
:1016E000F3DC84F84460BDE8F04100F0CDB90000BF
:1016F0002DE9F0410446002600F012FC364F386810
:1017000008B9FFF7EDFC7869044258D1002C56D097
:1017100004F10805A54252D968070ED005F007006C
:10172000C0F108002844A84249D90546400704D022
:101730009C222AA133A0FEF7BFFD002D3FD0786880
:1017400085423CD8244918310846046801E0214606
:1017500004466068A84202D220680028F7D13868A1
:10176000B84684422BD00E6820680860606808364E
:10177000401B10280ED96719780704D0CF2217A173
:1017800020A0FEF799FD6068401B786038466560D0
:10179000FFF766FD6168D8F804004246401AC8F8B1
:1017A0000400D8F80830984200D290605069014394
:1017B0000020C4E90001D068401CC8F80C0001F00A
:1017C0004DF8700705D04FF4887204A10DA0FEF704
:1017D00073FD3046BDE8F081980000202E2E5C4657
:1017E00072656552544F535C706F727461626C65C0
:1017F0005C4D656D4D616E675C686561705F342E30
:10180000630000004572726F723A2025732C202508
:10181000640D0A0010B5031F4FF080741C601B1F7D
:1018200021F001011960191F024B0B601439403877
:101830000A6010BDED1500081CB500F0E9F80E496E
:101840000220CDE90001002380220CA10D4800F008
:10185000E3FD09490320091DCDE900010023802291
:1018600009A10B4800F0D8FD002000F033FABDE8D4
:101870001C4000F009B90000180000207461736B6F
:1018800031000000951800087461736B320000008D
:10189000B9180008074C4FF4FA75D4F89401C14305
:1018A000C4F89411C820FFF751FA284600F0DCF97B
:1018B000F3E700000080214208B500F03DFE084C2F
:1018C0004FF4FA650090D4F89401C043C4F8940131
:1018D000C820FFF73BFA2946684600F0C9FDF2E749
:1018E0000000234270B5054686B0012144F2040091
:1018F000FFF716F84FF40070ADF8100003248DF8D0
:10190000124018201D4E8DF8130004A93046FEF732
:1019100071FF3015ADF8100004208DF8130004A9F4
:101920003046FEF767FF25208DF814008DF815402E
:101930008DF8164001208DF8170005A8FEF7B4FFBA
:101940000020ADF80400ADF80600ADF80800ADF8D1
:101950000C000C200A4CADF80A00009569462046A0
:10196000FFF760F9012240F225512046FFF741F9C7
:1019700001212046FFF714F906B070BD00080140B0
:1019800000380140D0E9013201699A60D0E90123B1
:101990005A604A68824201D182684A60002202612C
:1019A0000868401E08600868704700F108014FF0A1
:1019B000FF32C0E90112C16001610021016070477E
:1019C00000210161704730B50C68621C02D000F143
:1019D000080202E0026904E01A4653681D68A54245
:1019E000FAD953684B6099608A6051600861016858
:1019F000491C016030BD42684A6093688B609368FF
:101A00005960916008610168491C016070470000DD
:101A1000502080F31188BFF34F8FBFF36F8F0949B8
:101A20004868401C486001280AD10748006810F047
:101A3000FF0F05D040F2731204A10FA0FEF73CBCCB
:101A400070470000B800002004ED00E02E2E5C4638
:101A500072656552544F535C706F727461626C654D
:101A60005C525644535C41524D5F434D335C706F42
:101A700072742E63000000004572726F723A202566
:101A8000732C2025640D0A0010B5084C606828B935
:101A90004FF4BD7206A111A0FEF70EFC6068401E57
:101AA000606001D180F3118810BD0000B8000020F3
:101AB0002E2E5C4672656552544F535C706F727483
:101AC00061626C655C525644535C41524D5F434DBC
:101AD000335C706F72742E63000000004572726F89
:101AE000723A2025732C2025640D0A0070B5002859
:101AF0002DD0174DA0F1080460686969084205D12E
:101B00004FF4927213A11DA0FEF7D6FB206828B1F6
:101B100040F225120FA119A0FEF7CEFB606869699B
:101B2000084214D02268002A11D18843606000F076
:101B3000F7F960686968084468602046FFF790FB21
:101B40002869401C2861BDE8704000F087BE70BD68
:101B5000980000202E2E5C4672656552544F535CEF
:101B6000706F727461626C655C4D656D4D616E671E
:101B70005C686561705F342E630000004572726FAF
:101B8000723A2025732C2025640D0A004FF0E020C6
:101B900000210161816105494FF4FA520968B1FBE6
:101BA000F2F1491E416103210161704700000020EC
:101BB00070B50E4605004FF0000405D140F6C9226D
:101BC0000EA113A0FEF778FB002E15D014490022B9
:101BD00001EBC2004368AB4202D101EBC20407E053
:101BE0001CB951F8323003B90446521C082AEFD30D
:101BF000002C01D0C4E9006570BD00002E2E5C46AB
:101C000072656552544F535C71756575652E63003E
:101C10004572726F723A2025732C2025640D0A00DC
:101C20008C01002070B515460E460446FFF7F0FE05
:101C300094F944100020491C01D184F8440094F91F
:101C40004510491C01D184F84500FFF71DFFA06B2A
:101C500028B92A46314604F1240000F0DDF8204678
:101C6000BDE87040FFF708BD10B5040012D00E4962
:101C7000496B29B140F249520CA111A0FEF71CFB9F
:101C800000F04EF900212046FFF7EEF800F0E6FDE7
:101C9000002807D10E494FF080500860BFF34F8FE6
:101CA000BFF36F8F10BD0000440000202E2E5C4655
:101CB00072656552544F535C7461736B732E63008D
:101CC0004572726F723A2025732C2025640D0A002C
:101CD00004ED00E070B50446FFF79AFE254D04B907
:101CE0002C68201DFFF74EFE58B9E06A224A00EB2F
:101CF000800152F8211021B90121814028698843CF
:101D00002861A06A18B104F11800FFF73BFE686A69
:101D1000401C68622868844207D1211D1748FFF7DC
:101D20006AFE6868401C686004E0A868401EA860FD
:101D3000FFF72AFCFFF7A8FE2868844202D020465D
:101D4000FFF7C3F96869002812D0286884420FD1D0
:101D5000686B28B140F2DC4209A10EA0FEF7ACFA94
:101D600010494FF080500860BFF34F8FBFF36F8F63
:101D700070BD000044000020CC0100208804002039
:101D80002E2E5C4672656552544F535C7461736BC2
:101D9000732E63004572726F723A2025732C2025D2
:101DA000640D0A0004ED00E002490A6A0260C96895
:101DB000416070474400002001490120C86170471C
:101DC0004400002070B50D46040005D140F61C42C9
:101DD00007A10CA0FEF770FA0E48016820461831E2
:101DE000FFF7F1FD2846BDE870400121FFF73CB840
:101DF0002E2E5C4672656552544F535C7461736B52
:101E0000732E63004572726F723A2025732C202561
:101E1000640D0A004400002070B515460E4604000B
:101E200005D140F6524210A114A0FEF745FA174919
:101E300060680A68D06182680B681A620A68836801
:101E400018325A600A681832826008688462206812
:101E5000401C20600DB14FF0FF3629463046BDE8EA
:101E60007040FFF701B800002E2E5C467265655287
:101E7000544F535C7461736B732E63004572726FC1
:101E8000723A2025732C2025640D0A00440000209E
:101E90007CB516480025CDE900502B46802214A1C0
:101EA000154800F0B9FA114C2C3C012803D100F080
:101EB0007BFD012802D0401C10D015E0502080F39B
:101EC0001188BFF34F8FBFF36F8F4FF0FF30A062C9
:101ED00001206061E56000F069F805E04FF40462FC
:101EE00006A10BA0FEF7E8F9206B7CBD7000002076
:101EF00049444C45000000002D1100082E2E5C4680
:101F000072656552544F535C7461736B732E63003A
:101F10004572726F723A2025732C2025640D0A00D9
:101F20000248416B491C4163704700004400002097
:101F300070B5134D686B10B10120E86170BD0020D1
:101F4000E86128690F4EB0FA80F0C0F11F0000EB85
:101F5000800456F8240028B940F602420AA10FA0D6
:101F6000FEF7AAF906EB840000F10802416849680F
:101F70004160914201D149684160C868286070BDE4
:101F800044000020CC0100202E2E5C467265655274
:101F9000544F535C7461736B732E63004572726FA0
:101FA000723A2025732C2025640D0A007CB52A4D39
:101FB00028780190FF20287028788DF800009DF87F
:101FC00000009DF8001000F0F000884205D040F2BB
:101FD0001F1222A12CA0FEF76FF99DF800002E4CD5
:101FE00000F0500020700720A06006E0401EA060B6
:101FF0009DF8000040008DF800009DF800000006EC
:10200000A068F3D403280ED040F2331213A11EA00F
:10201000FEF752F9A068032805D04FF49E720FA175
:1020200019A0FEF749F9207A000200F4E060A060F0
:10203000019828701948016841F470010160016835
:1020400041F070410160FFF7A1FD00206060FEF7E4
:10205000D7F800207CBD000000E400E02E2E5C4696
:1020600072656552544F535C706F727461626C6537
:102070005C525644535C41524D5F434D335C706F2C
:1020800072742E63000000004572726F723A202550
:10209000732C2025640D0A00B800002020ED00E01C
:1020A00010B5502080F31188BFF34F8FBFF36F8FAF
:1020B00000F048FA18B104494FF080500860002041
:1020C00080F3118810BD000004ED00E02DE9F0411F
:1020D00017460E4605004FF000041FD0601EB0FBEF
:1020E000F5F0B0421AD305FB06F010F1550F15D8E4
:1020F0005430FFF7FDFA040016D004F154005EB12D
:102100002060C4E90F562046012100F023F884F82E
:1021100050700021A16407E02460F2E74FF4E372FD
:1021200003A108A0FEF7C8F82046BDE8F081000032
:102130002E2E5C4672656552544F535C7175657501
:10214000652E63004572726F723A2025732C20252C
:10215000640D0A002DE9F0410E4604004FF0010520
:102160002AD0E06B70B3AF1EB7FBF0F1206C814258
:1021700028D3FFF74DFCD4E90F20216802FB0011A2
:10218000A1600021A163216861600A46D4E90F01C2
:10219000401E00FB01212046E16000F8447F4770AB
:1021A00004F11000C6B1FFF700FC04F12400FFF7B2
:1021B000FCFBFFF769FC0CE04FF488720EA113A042
:1021C000FEF77AF8002540F245120BA10FA0FEF7AA
:1021D00073F82846BDE8F08121690029E9D000F0B4
:1021E000BFFA0028E5D00D494FF080500860BFF3DA
:1021F0004F8FBFF36F8FDCE72E2E5C467265655202
:10220000544F535C71756575652E63004572726F2E
:10221000723A2025732C2025640D0A0004ED00E09D
:102220002DE9F74783B08A4604004FF0000605D138
:1022300040F2515244A149A0FEF73EF8BAF1000F16
:1022400007D1206C28B140F255523FA143A0FEF7C0
:1022500033F800F063F938B9059828B140F25A52C2
:1022600039A13EA0FEF728F800274FF08058DFF88C
:10227000FC90FFF7CDFBA56BC5B151462046FEF79C
:10228000DBFE6D1EA563206950B104F1100000F063
:1022900067FA28B1C9F80080BFF34F8FBFF36F8F83
:1022A000FFF7F2FB012006B0BDE8F087059808B102
:1022B0001EB106E0FFF7E8FB27E06846FFF774FD74
:1022C0000126FFF7E1FBFFF72BFEFFF7A1FB94F9D7
:1022D0004400401C01D184F8447094F94500401C2E
:1022E00001D184F84570FFF7CFFB05A9684600F0DF
:1022F0003FF8002820460AD0FFF7BEF900F0AEFAFA
:102300002046FEF7EFFF0028B3D00020CBE7FEF712
:10231000E9FF90B104F124000599FFF753FD204631
:10232000FFF7AAF900F09AFA0028A2D1C9F80080B4
:10233000BFF34F8FBFF36F8F9BE72046FFF79CF9EA
:1023400000F08CFA95E700002E2E5C46726565520F
:10235000544F535C71756575652E63004572726FDD
:10236000723A2025732C2025640D0A0004ED00E04C
:102370002DE9F0410D46040005D140F6FD421CA1B7
:1023800020A0FDF799FF2DB940F6FE4218A11DA02F
:10239000FDF792FFFFF73CFB1E4EF1686368306863
:1023A000CA1A002790F8590018B1306880F859709F
:1023B00018E02868B0F1FF3F09D0D4F800C0366AB1
:1023C000B44506D08B4204D801242F600BE00024D2
:1023D00009E0904205D9801A28602046FFF7E4FC06
:1023E000F5E72F600124FFF74FFB2046BDE8F081A1
:1023F0002E2E5C4672656552544F535C7461736B4C
:10240000732E63004572726F723A2025732C20255B
:10241000640D0A00440000202DE9FF5F8346DDE9DA
:102420000E87994616468A469000FFF761F9050027
:102430001AD05C20FFF75CF9040012D0256300215C
:10244000CDE90241CDE900874B4632465146584618
:10245000FEF79AFE2046FEF74FFD012004B0BDE8CE
:10246000F09F2846FFF742FB4FF0FF30F6E70000F1
:102470002DE9F0410E4605004FF0000405D140F271
:10248000F1421BA11FA0FDF717FF2EB940F2F24247
:1024900017A11CA0FDF710FF1E4F786B28B140F26A
:1024A000F34213A117A0FDF707FFFFF739FDFA6804
:1024B00028688119904202D9884202D804E08842F3
:1024C00001D8914200D9012429601CB1881A002149
:1024D000FEF7CAFC00F0C2F938B90F494FF080503E
:1024E0000860BFF34F8FBFF36F8F2046BDE8F081C8
:1024F0002E2E5C4672656552544F535C7461736B4B
:10250000732E63004572726F723A2025732C20255A
:10251000640D0A004400002004ED00E00548416914
:1025200019B1406B18B1002070470120704702209C
:1025300070470000440000200148C0687047000058
:10254000440000202DE9F041454E0025706B28B174
:10255000B069401CB0612846BDE8F081F468641C95
:10256000F46011D1B06B006828B140F6C7223DA1DC
:1025700041A0FDF7A1FEB06BF16BB163F063306A6F
:10258000401C3062FFF700F8B06ADFF8FCE08442DC
:102590000BD34FF0000CB06B0068A0B1B06BC068FB
:1025A000C1684868844211D2B0623068C06A00EBEA
:1025B00080005EF82000012800D90125F06900287C
:1025C000C9D00125C7E74FF0FF30EDE7D1E902326E
:1025D00048699A60D1E902235A6043680A1D934210
:1025E00001D1CB684360C1F814C003685B1E03606F
:1025F000886A88B1D1E907379F60D1E907377B60E6
:10260000476801F118039F4201D10B6A4360C1F88A
:1026100028C003685B1E0360C86A012337698340D2
:102620003B43336100EB80000EEB80004068886024
:102630008368CB6083685A608260C86A00EB800060
:102640000EEB80024A615EF82020521C4EF82020DA
:10265000C86A3168C96A88429DD301259BE700009A
:10266000440000202E2E5C4672656552544F535C28
:102670007461736B732E63004572726F723A20251A
:10268000732C2025640D0A00CC01002070B50400D5
:102690004FF000064BD0274D2868844205D041F208
:1026A0004F0225A129A0FDF707FE206D28B941F2B0
:1026B000500221A125A0FDF7FFFD206D401E2065E1
:1026C000E26CE16A914232D088BB201DFFF75AF9D3
:1026D000012130B994F82C002A6901FA00F08243F4
:1026E0002A61E06CE062C0F12000A061E06A2A6922
:1026F000814011432961194A00EB800002EB800000
:102700004068A0608168E1608368211D5960816034
:10271000E06A00EB800002EB80006061E06A00EBA1
:10272000800052F82010491C42F820100126304643
:1027300070BD0000440000202E2E5C46726565527C
:10274000544F535C7461736B732E63004572726FE8
:10275000723A2025732C2025640D0A00CC0100203C
:1027600070B5C068C4682CB940F682422FA134A06D
:10277000FDF7A2FDD4E90721A06A9160D4E9071210
:102780005160426804F118018A4201D1226A426014
:102790000025A5620268521E02602D4A506B01237B
:1027A00098B12C4D6868E061866826628668716021
:1027B0008160A5622868401C2860E06A1168C96AC7
:1027C000884231D90120D36170BDD4E902616069CA
:1027D000B160D4E9021671604668211D8E4201D1B4
:1027E000E6684660656105686D1E0560E06A166909
:1027F00003FA00F535431561174D00EB800005EB3A
:1028000080004068A0608668E660866871608160CC
:10281000E06A00EB800005EB8001616155F8201053
:10282000491C45F82010C8E7002070BD2E2E5C46DC
:1028300072656552544F535C7461736B732E630001
:102840004572726F723A2025732C2025640D0A00A0
:102850004400002074040020CC0100202DE9F04742
:10286000444D0024A146686B28B940F6B30242A14A
:1028700046A0FDF721FDFFF7CBF8686B401E6863AB
:10288000686B002870D1A868DFF810C100264FF0EF
:102890000108E8BB68E0DCF80C00C468D4E9072153
:1028A000A06A9160D4E907125160426804F11801EE
:1028B0008A4201D1216A4160A6620168491E016015
:1028C000D4E9022160699160D4E902125160426842
:1028D000211D8A4201D1E268426066610268521E8F
:1028E0000260E06A2F69434608FA00F23A432A611F
:1028F0002B4A00EB800002EB80004068A0608768F4
:10290000E760876879608160E06A00EB800000E042
:102910000DE002EB8001616152F82010491C42F881
:102920002010E06A2968C96A884200D3EB61DCF8AC
:1029300000000028AFD10CB1FEF726FEAC693CB117
:102940004746FFF7FFFD00B1EF61641EF9D1AE61AC
:10295000E86948B113494FF080504FF00109086011
:10296000BFF34F8FBFF36F8FFFF78EF84846BDE878
:10297000F0870000440000202E2E5C4672656552F0
:10298000544F535C7461736B732E63004572726FA6
:10299000723A2025732C2025640D0A00740400204F
:1029A000CC01002004ED00E01CB50024FEF71CFB68
:1029B0000C48006868B10B491F20091DCDE90001D2
:1029C00000234FF4807208A10948FFF725FD040099
:1029D00005D140F2191207A10CA0FDF76DFC2046AD
:1029E0001CBD000084000020546D722053766300EB
:1029F000511600082E2E5C4672656552544F535C8A
:102A000074696D6572732E63000000004572726F09
:102A1000723A2025732C2025640D0A003C2A0008F8
:102A200000000020C40000006C010008002B00081A
:102A3000C4000020743200008801000800A24A048B
:102A4000000000000000000001020304060708095E
:102A50000000000000000000000000000000000076
:102A60000000000000000000000000000204060852
:102A70000000000001020304010203040607080924
:102A80000000000000000000000000000000000046
:102A90000000000000000000000000000000000036
:102AA0000000000000000000000000000000000026
:102AB0001F000000000000000000000000000000F7
:102AC0000000000000000000000000000000000006
:102AD00000000000000000000000000000000000F6
:102AE00000000000000000000000000000000000E6
:102AF0000000000000000000AAAAAAAA000000002E
:040000050800027578
:00000001FF
