:020000040800F2
:10000000600B0020D5010008230800081B08000829
:100010001F08000827060008C3150008000000009C
:10002000000000000000000000000000C50E0008F5
:100030002B06000800000000AF0D0008D90F0008D3
:10004000EF010008EF010008EF010008EF010008D0
:10005000EF010008EF0100082D060008EF0100087D
:10006000EF01000869060008A1060008EF0100087A
:10007000EF010008EF010008EF010008EF010008A0
:10008000EF010008EF010008EF010008EF01000890
:10009000EF010008EF010008EF010008EF01000880
:1000A000EF010008EF010008EF010008EF01000870
:1000B000EF010008EF010008EF010008EF01000860
:1000C000EF010008EF010008EF010008EF01000850
:1000D000EF010008A1130008EF010008EF0100087C
:1000E000EF010008EF010008EF010008EF01000830
:1000F000EF010008EF010008EF010008EF01000820
:10010000EF010008EF010008EF010008EF0100080F
:10011000EF010008EF010008EF010008EF010008FF
:10012000EF010008EF010008EF010008EF010008EF
:1001300000F002F800F03FF80AA090E8000C8244BA
:100140008344AAF10107DA4501D100F034F8AFF297
:10015000090EBAE80F0013F0010F18BFFB1A43F0A5
:1001600001031847F823000018240000103A24BFA8
:1001700078C878C1FAD8520724BF30C830C144BF0C
:1001800004680C607047000000230024002500264E
:10019000103A28BF78C1FBD8520728BF30C148BFEA
:1001A0000B607047642900F04380002070471FB542
:1001B0001FBD10B510BD00F00BFA1146FFF7F7FF99
:1001C00001F0B8FA00F029FA03B4FFF7F2FF03BC1C
:1001D00001F000FA0948804709480047FEE7FEE7BA
:1001E000FEE7FEE7FEE7FEE7FEE7FEE7FEE7FEE7E7
:1001F00004480549054A064B70470000DD0F00081A
:100200003101000860050020600B0020600700201D
:1002100060070020704700000FB4044910B503AA1E
:10022000029800F0BBF910BC5DF814FB1800002028
:100230002DE9F0410646002410687529314616A5BF
:1002400010D0AFF30080002802DA404213A507E087
:1002500031688A0701D512A502E0490704D511A526
:10026000012401E0AFF3008000210A2206F12407F7
:1002700009E0B0FBF2FCB0FBF2F302FB1C003030F3
:1002800078541846491C0028F3D123462A463046A4
:10029000BDE8F04100F010B9000000002D000000A2
:1002A0002B000000200000002DE9F05F8946044685
:1002B0004FF0000ADFF874B1FB44C0F820A02046DC
:1002C000E1688847002874D0252806D0D4E90121A8
:1002D0009047206A401C2062F1E700265F462046D6
:1002E000E16888472028054607DB312D05D27819BB
:1002F00010F8200C08B10643F1E7B00701D526F04D
:100300000406C4F81CA00027C4F818A02A2D09D0A0
:10031000284601F058F938B304EB8708303DC8F897
:10032000185019E059F8041B204604EB870291612C
:10033000E1688847012F054618D1E069002820DAD6
:1003400026F020061DE0D8F8180000EB800005EB31
:1003500040003038C8F818002046E1688847054654
:1003600001F031F90028EED1012F0AD02E2D08D14D
:100370002046E16888477F1C0546022F46F020068C
:10038000C4DBA069002803DA404246F00106A06100
:10039000F00701D026F010066C2D0BD0682D09D087
:1003A0004C2D39D06A2D35D0742D35D07A2D33D0DF
:1003B00016E038E0E1682F4620468847B8420546F7
:1003C00009D16C2F26D04FF48060E16806432046A7
:1003D0008847054604E06C2F1AD04FF4807006431E
:1003E0000DB3A5F14100192802D8203546F4006666
:1003F0004A462946204626604E46FFF7D3FE80B186
:1004000001280BD0F61D26F0070000F1080956E779
:100410004020E4E78020D8E70020D6E706F1040971
:100420004DE7284652E7206ABDE8F09F8E22000083
:100430004FF0013C50F8042B51F8043B9A4221D173
:10044000A2EB0C03934313EACC1317D150F8042BFF
:1004500051F8043B9A4215D1A2EB0C03934313EAE3
:10046000CC130BD150F8042B51F8043B9A4209D11C
:10047000A2EB0C03934313EACC13DBD04FF0000044
:10048000704700BFD01A01BAB1FA81F101F018012A
:1004900022FA01F0CB40C1F12001DBB2C0B2C01A98
:1004A0002CFA01F3D11A914311EAC311E6D1704736
:1004B00070477047704770472DE9F0470D469946E1
:1004C0009246044600F124080168880604D5E069D4
:1004D00021F01001216000E00120A84201DD471B4E
:1004E00000E00027A1697A1902EB0900081AA0614F
:1004F0002078C00602D42046AFF30080002608E032
:10050000D4E901211AF806009047206A401C761CA5
:1005100020624E45F4DB2078C0060AD52046AFF3B2
:10052000008006E0D4E9012130209047206A401C79
:100530002062381EA7F10107F4DC07E0D4E90121AD
:1005400018F805009047206A401C2062281EA5F17B
:100550000105F3DC2046AFF300802078000602D5C9
:100560000220BDE8F0870120FBE7000001694A1C7A
:1005700002610878704700B58FB0CDE901310021E4
:10058000059105497944CDE9031011466846FFF706
:100590008BFE0FB000BD0000E5FFFFFF074B70B5FD
:1005A0000D467B44FFF7E7FF0446284600F008F8B5
:1005B00010B14FF0FF3070BD204670BD57100000E5
:1005C000007B00F08000704700487047FC0400206A
:1005D0007546FFF7F9FFAE4605006946534620F021
:1005E0000700854618B020B5FFF702FEBDE82040A1
:1005F0004FF000064FF000074FF000084FF0000BDF
:1006000021F00701AC46ACE8C009ACE8C009ACE891
:10061000C009ACE8C0098D4670470446AFF30080BE
:100620002046FFF7D1FD00BFFEE7704708B5002068
:10063000009001210B4800F0E0F801280DD100BF27
:1006400002E00098401C009042F21071009888422D
:10065000F7D30121034800F0D0F8012000F03CF866
:1006600008BD00000008014008B5002000900821E6
:100670000A4800F0C2F868B900BF02E00098401CC8
:10068000009042F2107100988842F7D30821034885
:1006900000F0B3F8082000F01FF808BD0018014072
:1006A00008B50020009010210A4800F0A6F868B9AB
:1006B00000BF02E00098401C009042F210710098C8
:1006C0008842F7D31021034800F097F8102000F07B
:1006D00003F808BD00180140014908607047000098
:1006E000140401402DE9F0410246002500260020B7
:1006F00000230024002791F803C00CF00F0591F8A7
:1007000003C00CF0100CBCF1000F03D091F802C034
:100710004CEA050591F800C0BCF1000F31D0146817
:1007200000202BE04FF0010C0CFA00F3B1F800C0F0
:100730000CEA03069E4220D183004FF00F0C0CFA06
:1007400003F7BC4305FA03FC4CEA040491F803C028
:10075000BCF1280F06D14FF0010C0CFA00FCC2F8D6
:1007600014C00AE091F803C0BCF1480F05D14FF066
:10077000010C0CFA00FCC2F810C0401C0828D1D3B0
:100780001460B1F800C0BCF1FF0F34DD54680020E4
:100790002EE000F1080C4FF0010808FA0CF3B1F854
:1007A00000C00CEA03069E4221D183004FF00F0CDB
:1007B0000CFA03F7BC4305FA03FC4CEA040491F875
:1007C00003C0BCF1280F05D100F1080C08FA0CF8A1
:1007D000C2F8148091F803C0BCF1480F07D100F1B2
:1007E000080C4FF0010808FA0CF8C2F81080401C01
:1007F0000828CED35460BDE8F081024600209368FB
:100800000B400BB1012000E00020704701617047F0
:100810000AB1016100E04161704700BFFEE700BF1F
:10082000FEE7704770B5002100230F22C47804B39F
:10083000154C246804F4E064C4F5E064210AC1F1B5
:100840000403CA40447804FA03F184781440214335
:1008500009010E4C0678A155047804F01F05012407
:10086000AC4005786D11AD0005F1E025C5F80041FB
:1008700009E0047804F01F050124AC40044D06781B
:10088000761145F8264070BD0CED00E000E400E074
:1008900080E100E002490143024A11607047000014
:1008A0000000FA050CED00E000200CE0002106E05D
:1008B0000022064B03EBC0135A544A1CD1B28029C4
:1008C000F6DB421CD0B20828F0DB70473400002071
:1008D0002DE9F04304460D4616461F46284638E0EB
:1008E000224631E0002A2DDB7F2A2BDC002829DB81
:1008F0003F2827DC4FEAE07C00EB5C7C4FEAEC0C05
:10090000DFF8588008EBCC1C1CF802C003464FEA05
:10091000E07800EB58784FEAE808A0EBC8094FF000
:10092000010808FA09F82CEA080C01464FEAE078B9
:1009300000EB58784FEAE808DFF8209009EBC81878
:1009400008F802C0511C0AB2A1199142CADC411C2C
:1009500008B2E9198142C3DCBDE8F083340000200D
:1009600038B5002406E0002500E06D1CB5F57A7F5F
:10097000FBD3641CB4F57A7FF5D30121082000F085
:1009800027FA14208DF8030003208DF80200402080
:10099000ADF8000069460848FFF7A4FE8020ADF8D6
:1009A000000069460448FFF79DFE012000F0C4F9ED
:1009B000012000F0CBF938BD000C014070B50546B0
:1009C000002411E080212141294009B1012100E0EA
:1009D0000021084600F0BAF9012000F0ADF900202E
:1009E00000F0AAF9601CC4B2082CEBDB012000F077
:1009F000A3F9002000F0A0F970BD10B5012000F0AF
:100A0000A5F9012000F098F9002000F09FF90020DE
:100A100000F092F910BD10B5002000F097F9012008
:100A200000F08AF9012000F091F910BD10B50246DE
:100A3000012000E050430B00A1F10101FAD110BDEB
:100A400070B505460C4645F0B00000F089F910215C
:100A500041EA141000F084F904F00F0000F080F96E
:100A600070BD0000F8B506460F4614461D46082D19
:100A70000CD1A4F120000E4901EB00101023082234
:100A800039460090304600F017F80FE0062D0DD1E2
:100A9000A4F1200000EB4000064901EB40000823D0
:100AA000062239460090304600F006F8F8BD0000F6
:100AB000D01A0008C02000082DE9FF4F80460E46DE
:100AC0009146DDF834B0002500244A4631464046C0
:100AD000039BFFF7FDFE00BF5EE0002558E008EB3A
:100AE0000500002852DB08EB05007F284EDC30466D
:100AF000F11706EB5171C9100FB2F11706EB5171E6
:100B0000C910A6EBC10A002E05DA781E07B20AF159
:100B100008000FFA80FA3819002817DB381907285F
:100B200014DC3819224901EBC01008EB0501405CC8
:100B300004FB09511BF8011001FA0AF108433919A5
:100B40001B4A02EBC11108EB050288543819401CFE
:100B500000281BDB3819401C072817DC3819401CFB
:100B6000134901EBC01008EB0501405C04FB09517F
:100B70001BF80110CAF10802114108433919491C38
:100B80000B4A02EBC11108EB05028854681CC5B280
:100B90004D45A4DB601CC4B20399481EC11700EB8D
:100BA0005171012202EBE101A14296DCBDE8FF8F09
:100BB000340000202DE9F0470646894617461D46B9
:100BC000DDF82080002417E0281B411E0A20FFF7D3
:100BD0002DFFB7FBF0F00A21B0FBF1F201FB120090
:100BE00000F1300A04FB086108B243465246494608
:100BF000FFF738FF601CC4B2AC42E5DBBDE8F0870C
:100C00002DE9FE4F07468A46144698460025AB4616
:100C1000002672E0605D00F0800058B94FF0010BD3
:100C20002846691C8DB2205C8DF8040000208DF8E8
:100C3000050013E04FF0020B2846691C8DB2205CC2
:100C40008DF80400605D00B95AE02846691C8DB239
:100C5000205C8DF8050000208DF80600BBF1010F27
:100C60000BD19DF80420B91908B243465146FFF74D
:100C7000F9FE06EB080086B23FE04FF000090EE0F7
:100C8000C9EBC90101EB81011F4A881801A9FFF7CF
:100C9000CFFB00B90EE009F101001FFA80F9C9EBA2
:100CA000C90101EB8101184A881818A1FFF7C0FBA0
:100CB0000028E5D100BFB8F1080F12D1C9EBC90077
:100CC00000EB800010490844C01CB919009008B21C
:100CD00010231A465146FFF7EFFE06F1100086B2C8
:100CE0000BE0B8F1060F08D1B91908B206233F226C
:100CF0005146FFF7B7FEB01D86B2605D002889D16E
:100D000000BFBDE8FE8F0000FA22000800000000CE
:100D100010B500240BE000212046FFF791FE0549A5
:100D200001EBC410802100F02BF8601CC4B2082C29
:100D3000F1DB10BD3400002010B5044622464021EE
:100D40000148FFF765FD10BD000C014010B50446D9
:100D5000224680210148FFF75BFD10BD000C0140D9
:100D600010B50446FFF749FE7820FFF727FE002064
:100D7000FFF724FE2046FFF721FEFFF74CFE10BDD3
:100D800070B505460E46FFF738FE7820FFF716FED1
:100D90004020FFF713FE002404E0285DFFF70EFE5D
:100DA000601CC4B2B442F8DBFFF735FE70BD70477B
:100DB00029B1064AD2690243044BDA6104E0034ACE
:100DC000D2698243014BDA61704700000010024093
:100DD00029B1064A92690243044B9A6104E0034A2E
:100DE00092698243014B9A617047000000100240F3
:100DF00030B500210022002400232D4D6D6805F040
:100E00000C0121B1042905D0082923D105E0294D81
:100E1000056022E0274D05601FE0254D6D6805F453
:100E20007012234D6D6805F48034022505EB924263
:100E30001CB9214D554305600BE01D4D6D6805F44F
:100E400000351DB11C4D5543056002E0194D554359
:100E5000056002E0174D056000BF00BF144D6D68CE
:100E600005F0F0010909154D6B5C0568DD40456032
:100E70000F4D6D6805F4E061090A104D6B5C456823
:100E8000DD4085600A4D6D6805F46051C90A0B4D5F
:100E90006B5C4568DD40C560054D6D6805F44041FB
:100EA000890B074D6B5CC568B5FBF3F5056130BD7B
:100EB0000010024000127A0000093D001E000020D0
:100EC0002E000020704710B500F002F810BD0000A1
:100ED0000CB50020019000903348006840F4803049
:100EE0003149086000BF3048006800F400300090CD
:100EF0000198401C0190009818B90198B0F5A06FB6
:100F0000F1D12948006800F4003010B101200090B0
:100F100001E0002000900098012843D12348006898
:100F200040F01000214908600846006820F00300E6
:100F300008600846006840F0020008601A484068EF
:100F4000194948600846406848600846406840F4CF
:100F5000806048600846406820F47C10486008467D
:100F6000406840F4E81048600846006840F080702F
:100F7000086000BF0C48006800F000700028F9D03D
:100F80000948406820F00300074948600846406867
:100F900040F00200486000BF0348406800F00C00C9
:100FA0000828F9D10CBD00000010024000200240CA
:100FB000042808D14FF0E021096941F004014FF005
:100FC000E022116107E04FF0E021096921F00401FE
:100FD0004FF0E022116170477047000010B51348D0
:100FE000006840F001001149086008464068104957
:100FF00008400E494860084600680E4908400B4901
:1010000008600846006820F48020086008464068B0
:1010100020F4FE0048604FF41F008860FFF753FF84
:101020004FF000600449086010BD0000001002404D
:101030000000FFF8FFFFF6FE08ED00E0F0B50C46FB
:10104000154600220021068C4FF6FE773E400684AE
:10105000028B018C4FF60C7632407E1C06EA03169A
:101060002E433243104EB0420ED0104EB0420BD041
:10107000B0F1804F08D00E4EB04205D00D4EB042B8
:1010800002D00D4EB04206D14FF6FD76314044F00D
:101090000106314305E04FF6F576314044F0010694
:1010A000314302830184F0BD002C01400034014033
:1010B0000004004000080040000C0040F0B50C4661
:1010C0001546002200210026078C4FF6EF7C07EA28
:1010D0000C070784028B018C4FF6FF7707EA041692
:1010E00040F6FF473A404FF6FF7707EA03373A43A7
:1010F0004FF6FF7707EA05273A43114FB8420ED063
:10110000104FB8420BD0B0F1804F08D00E4FB8420C
:1011100005D00E4FB84202D00D4FB84206D14FF65F
:10112000DF77394046F01007394305E04FF65F7727
:10113000394044F01007394302830184F0BD0000B8
:10114000002C014000340140000400400008004031
:10115000000C004021B1028842F00102028004E04C
:1011600002884FF6FE731A40028070470146888E4F
:1011700070470146088F704770B500240022002395
:10118000058C4FF6EF7635400584028C8388048BFE
:1011900048F6FF752C404FF6FF452C400D884FF662
:1011A000FF7606EA05252C434FF6DF752A400D89A8
:1011B00006EA05152A434D8806EA05152A43154D0A
:1011C000A84202D0144DA8421DD14FF67F752A4087
:1011D0004D894FF6FF7606EA05152A434FF6BF758F
:1011E0002A408D8806EA05152A434FF6FF352B4025
:1011F0004FF2FF752B408D8906EA85052B43CD897B
:1012000006EA85052B4383800483CD880587028405
:1012100070BD0000002C014000340140002101801D
:1012200041808180C180018141818181C18170477C
:101230002DE9F04105460C4600260127608808B9D3
:10124000022600E00026A088012801D1022700E044
:1012500001272088A0B92389A28861882846FFF742
:10126000EDFEE188284600F033F823893A463146FE
:101270002846FFF723FFE188284600F032F813E004
:101280002389A28861882846FFF718FFE18828464D
:1012900000F027F823893A4631462846FFF7CEFE6C
:1012A000E188284600F014F8BDE8F0810A460021E4
:1012B00001894FF68F7319401143018170470289EC
:1012C0004FF6F8731A40028102890A43028170477F
:1012D000028B4FF6F3731A400283028B0A43028398
:1012E0007047028B4FF2FF331A400283028B4FF696
:1012F000FF7303EA01231A43028370470022028826
:101300001D4B98420ED01D4B98420BD0B0F1804F30
:1013100008D01B4B984205D01A4B984202D01A4B6A
:10132000984204D14FF68F731A404B881A43174BDB
:10133000984207D0164B984204D04FF6FF431A400C
:10134000CB881A4302808B8883850B8803850A4BE0
:1013500098420BD0094B984208D00E4B984205D0CA
:101360000D4B984202D00D4B984201D10B7A038667
:101370000123838270470000002C014000340140AB
:101380000004004000080040000C00400010004035
:10139000001400400040014000440140004801406A
:1013A00010B540F225511D4800F04AF810B31B4813
:1013B00000F002F9C4B21A48008800F40040C8B92D
:1013C0001748008800F4804060B10A2C03D0002048
:1013D0001349088020E01248008840F4004010497A
:1013E000088019E00D2C06D10D48008840F480409B
:1013F0000B49088010E00A480088C0F30D00094935
:101400000C5407480088401C05490880084600889D
:10141000C72801DD0020088010BD00000038014011
:101420001C0000203404002021B1828942F40052C3
:10143000828104E082894DF6FF731A4082817047F1
:1014400070B50246002400230025002040F66A16ED
:10145000B14200D100BFC1F3421501F01F030126C4
:1014600006FA03F3012D02D19689334006E0022DDE
:1014700002D1168A334001E0968A33400C120126CD
:1014800006FA04F41688344013B10CB1012000E0D0
:10149000002070BDF0B50346002400260025002082
:1014A00040F66A17B94200D100BF1846C1F3421492
:1014B00001F01F06012707FA06F5012C01D10C30B7
:1014C00004E0022C01D1103000E014301AB107689A
:1014D0002F43076002E00768AF430760F0BD0000DC
:1014E0002DE9F04786B005460E460024A24600BF0F
:1014F000A1460027B08900B100BF2F462C8A4CF6C8
:10150000FF700440F08804432C82AC894EF6F3103F
:101510000440B08831890843718908430443AC8191
:10152000AC8A4FF6FF400440B0890443AC8201A866
:10153000FFF75EFC1F48874202D1DDF810A001E0F2
:10154000DDF80CA0A88900F4004040B10AEBCA0005
:1015500000EB0A1031684900B0FBF1F807E00AEB34
:10156000CA0000EB0A1031688900B0FBF1F8642072
:10157000B8FBF0F004012009642101FB1089A8895F
:1015800000F4004040B1322000EBC900B0FBF1F0A4
:1015900000F00700044308E0322000EB091064214A
:1015A000B0FBF1F000F00F0004432C8106B0BDE861
:1015B000F08700000038014001468888C0F3080029
:1015C000704700BFFEE730380A2801D2012070477B
:1015D0000020704700BF704710B50420FFF7E8FCFB
:1015E000034800680349B0FBF1F00349087010BDDF
:1015F0000000002040420F001400002000BF054AF8
:10160000128802F04002002AF9D0C2B2014B1B1D21
:101610001A8070470038014030B587B005460C4647
:1016200001210846FFF7C4FB01210420FFF7D0FB8E
:101630000120ADF8180048208DF81B0003208DF81C
:101640001A0006A91848FFF74DF8ADF81050ADF88C
:101650000C400020ADF81200ADF80E0003A94FF0C9
:101660008040FFF74BFE0020ADF800000F20ADF8E2
:1016700008000020ADF80200ADF806000120ADF82A
:10168000040069468007FFF7D3FD50218806FFF765
:101690000DFE04210807FFF712FE01218807FFF75E
:1016A00059FD07B030BD00000008014008B5012118
:1016B0004420FFF78DFB1820ADF8000048208DF87E
:1016C000030069460648FFF70DF80120ADF8000059
:1016D00028208DF8030069460248FFF703F808BD8B
:1016E000001801400008014008B501214820FFF71B
:1016F0006FFB2020ADF8000010208DF803000320C0
:101700008DF8020069460948FEF7ECFF20210748E2
:10171000FFF77CF82020ADF8000069460448FEF78A
:10172000E1FF20210248FFF771F808BD000C0140DD
:101730000018014010B54FF4A060FFF7ABF84FF46C
:10174000E13000F073F9FFF747FFFFF7CDFFFFF738
:10175000ADFF00F057F840F2CF21632000F01EF9F2
:1017600047214FF6FF70FFF757FFFFF79DF808235B
:1017700011A200210846FFF743FA082310A2102106
:101780000020FFF73DFA082311A220210020FFF7D7
:1017900037FAFFF7BDFA00F083F810A0FEF73CFD22
:1017A000FFF782F8082313A220210020FFF728FA70
:1017B000FFF7AEFA002010BD537461727400000090
:1017C000467265713A3030303030487A000000009F
:1017D000447574793A30303025000000B3CCD0F233
:1017E000D2E2CDE2CDCBB3F62CC7EBD6D8C6F421EE
:1017F00000000000556E657870656374656420654F
:101800007869740010B5FFF7ABF8AE20FFF7A8FABF
:10181000D520FFF7A5FA8020FFF7A2FAA820FFF74E
:101820009FFA3F20FFF79CFAD320FFF799FA002098
:10183000FFF796FA4020FFF793FAA120FFF790FAFE
:10184000C820FFF78DFADA20FFF78AFA1220FFF797
:1018500087FA8120FFF784FACF20FFF781FAD92099
:10186000FFF77EFAF120FFF77BFADB20FFF778FA2B
:101870003020FFF775FAA420FFF772FAA620FFF7D1
:101880006FFA8D20FFF76CFA1420FFF769FAAF208A
:10189000FFF766FAFFF708F8FFF73AFA10BD000005
:1018A00008B55FE04FF08040008D401C2E4909686C
:1018B000B1FBF0F54FF08040FFF758FCB5FBF0F4BA
:1018C00021462AA0FEF7A8FC4FF08040FFF74EFC0F
:1018D0000446214628A0FEF79FFC4FF08040FFF70A
:1018E00048FC0446214627A0FEF796FC4FF08040B6
:1018F000FFF73FFC642100FB01F50807FFF736FC0A
:1019000095FBF0F4214622A0FEF786FC4FF08040C4
:10191000008D401C14490968B1FBF0F54FF0804080
:10192000FFF724FCB5FBF0F4082005232246102124
:1019300000902820FFF73EF94FF08040FFF719FC98
:10194000642100FB01F50807FFF710FC95FBF0F49C
:10195000082003232246202100902820FFF72AF99F
:10196000FFF7D6F99EE7000000000020667265715F
:101970003A25640D0A000000636372313A25640D54
:101980000A000000636372323A25640D0A00000009
:10199000647574793A25640D0A00000030B589B089
:1019A00004460D4601210220FFF702FA012104201E
:1019B000FFF70EFA8020ADF8200018208DF82300E4
:1019C00003208DF8220008A91648FEF78BFEADF81B
:1019D0001840ADF814500020ADF81A00ADF816000C
:1019E00005A91148FFF78AFC01A8FFF717FC602042
:1019F000ADF804000020ADF80C000120ADF80600A1
:101A0000204604EBD071C1F34F01ADF80A1001A9D3
:101A10000548FFF7B1FB01210348FFF79BFB09B025
:101A200030BD0000000801400004004010B586B041
:101A30000446012144F20400FFF7CAF94FF4007094
:101A4000ADF8140003208DF8160018208DF817004B
:101A500005A91D48FEF746FE4FF48060ADF814005E
:101A600004208DF8170005A91748FEF73BFE252036
:101A70008DF8000003208DF8010000208DF8020091
:101A800001208DF803006846FEF7CCFE019400208B
:101A9000ADF80800ADF80A00ADF80C00ADF8100084
:101AA0000C20ADF80E0001A90848FFF719FD01222E
:101AB00040F225510548FFF7EDFC01210348FFF7EF
:101AC000B3FC06B010BD0000000801400038014022
:101AD0000000000000000000000000000000000006
:101AE000000000F80000000000000033300000009B
:101AF00000160E00160E000000000000000000009E
:101B000040C07840C0784000043F04043F04040013
:101B1000007088FC08300000001820FF211E000023
:101B2000F008F000E018000000211C031E211E0038
:101B300000F00888700000001E21232419272110BE
:101B4000000000160E000000000000000000000071
:101B5000000000E018040200000000071820400008
:101B600000020418E00000000040201807000000F8
:101B7000404080F0804040000202010F010202005C
:101B8000000000F0000000000101011F0101010040
:101B9000000000000000000000B070000000000025
:101BA000000000000000000000010101010101012E
:101BB00000000000000000000030300000000000C5
:101BC000000000008060180400601806010000009A
:101BD00000E010080810E000000F102020100F0097
:101BE000001010F8000000000020203F202000001E
:101BF0000070080808887000003028242221300076
:101C000000300888884830000018202020110E007D
:101C10000000C02010F8000000070424243F240026
:101C200000F80888880808000019212020110E00FB
:101C300000E0108888180000000F112020110E000D
:101C400000380808C83808000000003F0000000005
:101C50000070880808887000001C222121221C00C6
:101C600000E010080810E0000000312222110F00EF
:101C7000000000C0C0000000000000303000000084
:101C8000000000C0C0000000000080B07000000034
:101C9000000080402010080000010204081020000D
:101CA0004040404040404000040404040404040058
:101CB00000081020408000000020100804020100ED
:101CC000007048080808F0000000003036010000ED
:101CD000C030C828E810E0000718272423140B00A0
:101CE0000000C038E0000000203C2302022738201A
:101CF00008F8888888700000203F202020110E00FE
:101D0000C0300808080838000718202020100800F4
:101D100008F808080810E000203F202020100F00DD
:101D200008F88888E8081000203F202023201800A9
:101D300008F88888E8081000203F20000300000011
:101D4000C03008080838000007182020221E0200B2
:101D500008F808000008F808203F210101213F2071
:101D6000000808F8080800000020203F202000009C
:101D700000000808F8080800C08080807F0000008C
:101D800008F888C028180800203F200126382000C5
:101D900008F8080000000000203F2020202030002C
:101DA00008F8F800F8F80800203F003F003F200046
:101DB00008F830C00008F808203F200007183F004E
:101DC000E01008080810E0000F10202020100F007D
:101DD00008F808080808F000203F21010101000070
:101DE000E01008080810E0000F18242438504F00B5
:101DF00008F8888888887000203F2000030C302075
:101E000000708808080838000038202121221C00B2
:101E1000180808F8080818000000203F20000000FB
:101E200008F808000008F808001F202020201F00E4
:101E30000878880000C83808000007380E01000044
:101E4000F80800F80008F800033C0700073C03000E
:101E5000081868808068180820302C03032C302074
:101E60000838C800C83808000000203F20000000E3
:101E700010080808C838080020382621202018003B
:101E8000000000FE020202000000007F404040000F
:101E9000000C30C000000000000000010638C00047
:101EA00000020202FE000000004040407F000000EF
:101EB00000201008040810200000000000000000AE
:101EC0000000000000000000808080808080808012
:101ED00000020408000000000000000000000000F4
:101EE00000008080808000000019242222223F20F0
:101EF00008F8008080000000003F112020110E0033
:101F00000000008080800000000E112020201100C1
:101F1000000000808088F800000E112020103F2073
:101F20000000808080800000001F222222221300F7
:101F3000008080F0888888180020203F2020000042
:101F40000000808080808000006B949494936000F7
:101F500008F8008080800000203F210000203F2002
:101F600000809898000000000020203F2020000002
:101F7000000000809898000000C08080807F0000F2
:101F800008F8000080808000203F24022D302000CF
:101F9000000808F8000000000020203F202000007A
:101FA0008080808080808000203F20003F20003F94
:101FB000008080008080000000203F2100203F2022
:101FC0000000808080800000001F202020201F0053
:101FD000808000808000000080FFA12020110E0082
:101FE0000000008080808000000E112020A0FF8073
:101FF000808080008080800020203F212000010020
:102000000000808080808000003324242424190074
:10201000008080E0808000000000001F2020000081
:102020008080000000808000001F202020103F20C2
:10203000808080000080808000010E300806010052
:1020400080800080008080800F300C030C300F00F7
:1020500000808000808080000020312E0E31200022
:10206000808080000080808080818E701806010052
:1020700000808080808080000021302C2221300070
:1020800000000000807C020200000000003F404091
:1020900000000000FF00000000000000FF00000042
:1020A0000002027C800000000040403F0000000071
:1020B000008040408000008000000000000101001E
:1020C0000000000000000000002F000000000700DA
:1020D000070000147F147F1400242A7F2A12002393
:1020E00013086462003649552250000000070000C2
:1020F00000001C224100000041221C000014083E88
:1021000008140008083E0808000000A0600000084D
:1021100008080808000060600000002010080402A1
:10212000003E5149453E0000427F4000004261515F
:102130004946002141454B31001814127F100027F9
:1021400045454539003C4A494930000171090503BC
:1021500000364949493600064949291E00003636ED
:102160000000000056360000000814224100001450
:10217000141414140000412214080002015109062D
:10218000003E4955592E007C1211127C007F4949AE
:102190004936003E41414122007F4141221C007FDF
:1021A00049494941007F09090901003E4149497AED
:1021B000007F0808087F0000417F41000020404167
:1021C0003F01007F08142241007F40404040007FD3
:1021D000020C027F007F0408107F003E4141413E17
:1021E000007F09090906003E4151215E007F09195F
:1021F00029460046494949310001017F0101003F5C
:102200004040403F001F2040201F003F4038403FDB
:10221000006314081463000708700807006151493F
:10222000454300007F4141000002040810200000E7
:1022300041417F0000040201020400404040404050
:10224000000001020400002054545478007F4844E8
:10225000443800384444442000384444487F00381F
:102260005454541800087E0901020018A4A4A47C48
:10227000007F080404780000447D40000040808412
:102280007D00007F102844000000417F4000007C5A
:1022900004180478007C0804047800384444443866
:1022A00000FC242424180018242418FC007C0804B2
:1022B000040800485454542000043F444020003C8B
:1022C0004040207C001C2040201C003C4030403C12
:1022D000004428102844001CA0A0A07C00446454A2
:1022E0004C440000087F41000000007F0000000017
:1022F000417F0800000804081008A3AC000000009B
:102300000000000000000000000000000000005875
:1023100038000000000000000000000000A1A30041
:1023200000000000000000000000000000000000AD
:102330000000182424180000000000000000000025
:10234000A3BA000000000000000000000000000030
:102350000000000000363600000000000000000011
:10236000000000C4E300008060F8074020180F0858
:10237000C80808281800010000FF00100C03408066
:102380007F0001061800BAC3001010F01F10F00003
:10239000808282E2928A86800040221508166100BF
:1023A0000040807F0000000000CAC000202020FE06
:1023B0002020FF202020FF20202020000000007F80
:1023C000404047444444474040400000BDE70000CF
:1023D0000000FE929292FE929292FE00000000088F
:1023E000080484621E010001FE020404080800B60D
:1023F000A30000FC0404FC0004040404FC04040422
:102400000400000F04040F00000040807F00000063
:102410000000B3B5000008884828180FE80808082D
:10242000080808000008080909090909FF0909093D
:102430000909080800DDD50004C404A4242F24A43D
:10244000A46F248404C40400007F40504954625F98
:102450004246495040FF0000D7D3008082828282EA
:102460008282E2A2928A86828080000000000000C0
:1024700040807F0000000000000000B0AE008064DB
:102480002C342424EC322222322E23A2600000417C
:10249000219189874D552525554D81808000CEC2DB
:1024A000001060028C0000FE9292929292FE000058
:1024B0000004047E01407E42427E427E42427E40D3
:1024C00000CAAA001060028C00FE92929292929230
:1024D000FE00000004047E014448507F40407F50CD
:1024E00048444000B6C8000000FC242424FC2526F3
:1024F00024FC242424040040308F80844C5525255E
:1025000025554C80808000000000FF010101310949
:10251000090909897101010101FFFF808080808024
:10252000809681808080808080FFFF01818181FD95
:102530008991A1C1FD81818101FFFF808080809F01
:10254000888482819F80808080FF040000080000D2
:102550000000000000020001000010007C250008BF
:1025600000000020340000006C010008B0250008C5
:10257000340000202C0B00008801000800A24A044F
:102580000000000000000000010203040607080923
:102590000000000000000000000000000000010238
:1025A00003040102030406070809020406080000E8
:04000005080001D519
:00000001FF
