:020000040800F2
:100000005033002075020008A7080008A308000864
:10001000A508000839070008510D0008000000007D
:10002000000000000000000000000000DD010008EA
:100030003B0700080000000021020008FD0A00083C
:100040008F0200088F0200088F0200088F0200084C
:100050008F0200088F0200083D0700088F02000889
:100060008F02000879070008B10700088F02000816
:100070008F0200088F0200088F0200088F0200081C
:100080008F0200088F0200088F0200088F0200080C
:100090008F0200088F0200088F0200088F020008FC
:1000A0008F0200088F0200088F0200088F020008EC
:1000B0008F020008610B00088F0200088F02000801
:1000C0008F0200088F0200088F0200088F020008CC
:1000D0008F020008B50B00088F0200088F0200088D
:1000E0008F0200088F0200088F0200088F020008AC
:1000F0008F0200088F0200088F0200088F0200089C
:100100008F0200088F0200088F0200088F0200088B
:100110008F0200088F0200088F0200088F0200087B
:100120008F0200088F0200088F0200088F0200086B
:1001300000F002F800F042F80AA090E8000C8244B7
:100140008344AAF10107DA4501D100F037F8AFF294
:10015000090EBAE80F0013F0010F18BFFB1A43F0A5
:1001600001031847A8300000C8300000103A24BF2F
:1001700078C878C1FAD8520724BF30C830C144BF0C
:1001800004680C607047000000230024002500264E
:10019000103A28BF78C1FBD8520728BF30C148BFEA
:1001A0000B607047642900F0F180732900F026820B
:1001B000002070471FB51FBD10B510BD00F08CFAB0
:1001C0001146FFF7F7FF00F0D9FE00F0AAFA03B4DA
:1001D000FFF7F2FF03BC00F0BCFD0000224B1968E2
:1001E0000868B0E8F00F80F30988BFF36F8F4FF015
:1001F000000080F311884EF00D0E704700000000E3
:1002000006480068006880F3088862B661B6BFF3EC
:100210004F8FBFF36F8F00DF00BF00BF08ED00E01E
:10022000EFF30980BFF36F8F0F4B1A6820E9F00FCF
:10023000106008B54FF0500080F31188BFF34F8F66
:10024000BFF36F8F02F0DCF84FF0000080F31188ED
:10025000BDE8084019680868B0E8F00F80F3098825
:10026000BFF36F8F704700BF50000020EFF3058091
:10027000704700000948804709480047FEE7FEE74D
:10028000FEE7FEE7FEE7FEE7FEE7FEE7FEE7FEE746
:1002900004480549054A064B70470000110B000849
:1002A00031010008502D002050330020502F002035
:1002B000502F0020704700000FB4044910B503AA66
:1002C000029800F09FF910BC5DF814FB3800002084
:1002D0002DE9F0410E460446002020622046E168E8
:1002E000884730B3252805D0D4E901219047206AFA
:1002F000401CF2E7E168204600278847050018D037
:10030000A5F14100192802D820354FF40067324684
:10031000294620462760FFF745FF40B1012804D059
:10032000F61D26F007060836D8E7361DD6E728461C
:10033000DAE7206ABDE8F08170B50C460546012A6F
:1003400005D02878800600D5EA69002302E0012361
:1003500005E05B1C934202D2E05C0028F9D1A86959
:10036000E618C01AA861286A184428622846AFF324
:10037000008004E0D5E9012114F8010B9047B44254
:10038000F8D32846AFF3008070BD00002DE9F0419E
:100390000646002410687529314616A510D0AFF323
:1003A0000080002802DA404213A507E031688A077E
:1003B00001D512A502E0490704D511A5012401E0E9
:1003C000AFF3008000210A2206F1240709E0B0FB08
:1003D000F2FCB0FBF2F302FB1C00303078541846FC
:1003E000491C0028F3D123462A463046BDE8F04197
:1003F00000F080B8000000002D0000002B0000007D
:1004000020000000032A40F2308010F0030C00F0BE
:10041000158011F8013BBCF1020F624498BF11F83E
:1004200001CB00F8013B38BF11F8013BA2F10402F7
:1004300098BF00F801CB38BF00F8013B11F003036F
:1004400000F0F280083AC0F0088051F8043B083A06
:1004500051F804CBA0E80810F5E7121D5CBF51F875
:10046000043B40F8043BAFF30080D20724BF11F8EF
:10047000013B11F801CB48BF11F8012B24BF00F854
:10048000013B00F801CB48BF00F8012B704702F098
:10049000FF0343EA032242EA024200F0F9B84FF0B8
:1004A000000200B5134694469646203922BFA0E8C4
:1004B0000C50A0E80C50B1F12001BFF4F7AF0907D0
:1004C00028BFA0E80C5048BF0CC05DF804EB8900C1
:1004D00028BF40F8042B08BF704748BF20F8022B04
:1004E00011F0804F18BF00F8012B7047704770471C
:1004F000704770472DE9F0470D46994692460446ED
:1005000000F124080168880604D5E06921F0100193
:10051000216000E00120A84201DD471B00E0002728
:10052000A1697A1902EB0900081AA0612078C006B7
:1005300002D42046AFF30080002608E0D4E9012170
:100540001AF806009047206A401C761C20624E452F
:10055000F4DB2078C0060AD52046AFF3008006E021
:10056000D4E9012130209047206A401C2062381EC7
:10057000A7F10107F4DC07E0D4E9012118F8050030
:100580009047206A401C2062281EA5F10105F3DC7B
:100590002046AFF300802078000602D50220BDE897
:1005A000F0870120FBE7000001694A1C026108781E
:1005B000704700B58FB0CDE90131002105910549A3
:1005C0007944CDE9031011466846FFF781FE0FB06C
:1005D00000BD0000E5FFFFFF10B5436913B1AFF3A5
:1005E000008001E0FFF7A8FE012010BD127800F1A5
:1005F00024010A7000224A700122EDE711684FF0D1
:10060000FF32E9E7074B70B50D467B44FFF7D1FF9A
:100610000446284600F05CF810B14FF0FF3070BD82
:10062000204670BD2308000010B5203AC0F00B80B2
:10063000B1E81850203AA0E81850B1E81850A0E8E6
:100640001850BFF4F5AF5FEA027C24BFB1E8185040
:10065000A0E8185044BF18C918C0BDE810405FEAB0
:10066000827C24BF51F8043B40F8043B08BF70472C
:10067000D20728BF31F8023B48BF11F8012B28BF31
:1006800020F8023B48BF00F8012B70474FF00002F2
:100690000429C0F0128010F0030C3FF402AFCCF13B
:1006A000040CBCF1020F18BF00F8012BA8BF20F802
:1006B000022BA1EB0C01FFF7F4BE5FEAC17C24BF63
:1006C00000F8012B00F8012B48BF00F8012B704700
:1006D000007B00F080007047754600F029F8AE46B8
:1006E00005006946534620F00700854618B020B53E
:1006F000FFF7CEFDBDE820404FF000064FF00007A9
:100700004FF000084FF0000B21F00701AC46ACE8B9
:10071000C009ACE8C009ACE8C009ACE8C0098D4626
:1007200070470446AFF300802046FFF750FD0000FD
:1007300000487047F02C0020FEE7704738B50020D5
:100740000C4C00900121204600F0A2F801280BD1AA
:1007500042F2107101E0421C009200988842FAD3E4
:100760000121204600F094F8BDE83840012000F057
:100770003BB800000008014038B500200B4C009049
:100780000821204600F084F858B942F2107101E0C7
:10079000421C009200988842FAD30821204600F0BB
:1007A00077F8BDE83840082000F01EB80018014076
:1007B00038B500200B4C00901021204600F068F85E
:1007C00058B942F2107101E0421C00920098884230
:1007D000FAD31021204600F05BF8BDE83840102025
:1007E00000F002B80018014001490860704700009D
:1007F00014040140F0B5CC78002204F00F03E406A5
:1008000001D58C7823430C784FF00F0C14F0FF0FB8
:100810004FF0010E1BD005680E880EFA02F4264038
:10082000A64210D196000CFA06F725EA070703FA4C
:1008300006F5CE783D43282E02D0482E02D002E0A5
:10084000446100E00461521C082AE5D305600A886F
:10085000FF2A1CD94468002202F108060EFA06F5A8
:100860000E882E40AE420ED196000CFA06F7BC431D
:1008700003FA06F7CE783C43282E00D14561CE78A6
:10088000482E00D10561521C082AE5D34460F0BD12
:100890000246002092680A4200D0012070470161A0
:1008A0007047FEE7FEE7704730B50F23C278017846
:1008B0000125F2B1144A126801F1E02102F4E0626C
:1008C000C2F5E062120AC2F10404D3404278A240A9
:1008D00084781C401443220181F80024007800F041
:1008E0001F018D404009800000F1E020C0F8005158
:1008F00030BD01F01F0085404809800000F1E02074
:10090000C0F8805130BD00000CED00E00249084302
:1009100002490860704700000000FA050CED00E095
:1009200010B50121082000F033F80121102000F05B
:100930002FF80121202000F02BF80121402000F0A9
:1009400027F80121802000F023F80121BDE81040A4
:10095000080200F01DB810B50021082000F018F8BA
:100960000021102000F014F80021202000F010F8E1
:100970000021402000F00CF80021802000F008F851
:10098000BDE8104000214FF4807000F001B8000075
:10099000044A0029916901D0014300E0814391613B
:1009A000704700000010024030B5204A5168204BCB
:1009B00011F00C0103D0042901D0082901D00360F3
:1009C00012E05168536801F470114FF0020413F4FF
:1009D000803F04EB914102D053689B0301D5154B36
:1009E00000E0134B5943016051680F2303EA1111D2
:1009F000114B5C5C0168E14041605468072505EAE1
:100A000014241C5D21FA04F48460546805EAD4249B
:100A10001B5DD940C1605268032303EA9232064B42
:100A20001B1F9A5CB1FBF2F1016130BD0010024066
:100A300000127A0000093D00400000200CB50022A1
:100A4000264800920192016841F4803101604FF420
:100A5000A063016801F4003101910099491C0091E3
:100A6000019911B900999942F3D10168890333D5ED
:100A7000012101911A490A6842F010020A600A68CD
:100A800022F003020A600A6842F002020A6041682A
:100A9000416041684160416841F480614160416862
:100AA00021F47C114160416841F4E8114160016822
:100AB00041F08071016001688901FCD5416821F035
:100AC00003014160416841F0020141604168C1F3A6
:100AD00081010229FAD10CBD01920CBD0010024027
:100AE000002002404FF0E0210428086903D020F0E4
:100AF00004000861704740F00400FAE710B502F006
:100B0000A9F8012803D0BDE8104001F031BD10BDA7
:100B10000F4810B5016841F00101016041680D4ABC
:100B20001140416001680C4A11400160016821F4E4
:100B300080210160416821F4FE0141604FF41F01F2
:100B40008160FFF77BFF05494FF00060086010BD32
:100B5000001002400000FFF8FFFFF6FE08ED00E085
:100B600010B50A4C0121204600F017F8012807D1E2
:100B700007490A684868521C40F100000A60486052
:100B80002046BDE81040012100F004B800040040F8
:100B900028000020C9430182704702460020138AC2
:100BA00092890B4202EA010202D0002A00D0012001
:100BB0007047000070B5154C40F22551204600F0FA
:100BC00035F800280ED0204600F0BEF8104AC1B219
:100BD0001088030406D444044FF0000306D50A2904
:100BE00001D0138070BD40F400400DE00D2909D004
:100BF000C0F30D04074D401C80B229551080C72852
:100C0000EFD870BD40F48040108070BD00380140C6
:100C100036000020DC0000200029818902D041F448
:100C2000005101E021F400518181704770B501F05D
:100C30001F0501260024C1F3421306FA05F2012B19
:100C40000FD0022B0FD0838A4FEA11210088134264
:100C500006FA01F600EA060001D000B101242046A0
:100C600070BD8389F0E7038AEEE710B5C1F3421344
:100C700001F01F040121A140012B07D0022B07D056
:100C80001430002A026805D00A4304E00C30F8E76B
:100C90001030F6E78A43026010BD000030B504460C
:100CA000008A85B00D464CF6FF710840E988014383
:100CB0002182A0894EF6F3110840A9882A891143A0
:100CC0006A8902431143A181A08A4FF6FF4108407F
:100CD000A9890143A1826846FFF766FE194884424C
:100CE00001D1039800E00298A189090400EBC0013A
:100CF00001EB0010296801D5490000E08900B0FB34
:100D0000F1F06422B0FBF2F109010B096FF0180554
:100D10006B4300EB8300A3891D044FF0320306D51B
:100D200003EBC000B0FBF2F000F0070005E003EBBE
:100D30000010B0FBF2F000F00F000843208105B076
:100D400030BD0000003801408088C0F308007047C3
:100D5000FEE7704710B50420FFF7C4FE09480A49B2
:100D60000068B0FBF1F109480170012141804FF0AA
:100D7000E020016941F002010161016941F00101D6
:100D8000016110BD0000002000127A003200002036
:100D900070B5044601F05EFF01280CD0094D68884B
:100DA000844203D3B4FBF0F001F02EF96888B4FB61
:100DB000F0F100FB11444FF47A706043BDE87040DD
:100DC00000F002B83200002070B50B4A4FF0E02569
:100DD000002112786C695043AB69AA699A42FCD031
:100DE00002D2A3EB020302E0A4EB0206334419444F
:100DF00013468142F1D370BD320000200A49012020
:100E0000096809B1002070470849CA69002AF9D168
:100E10008A69002AF6D1044A283212688968491E74
:100E20008A42F0D1022070478C040020500000203C
:100E300004490A885206FCD5024AC1B2121D11802B
:100E4000704700000038014008B501214420FFF739
:100E50009FFD1820ADF8000048208DF8030069467A
:100E60000648FFF7C7FC0120ADF8000028208DF8E8
:100E7000030069460248FFF7BDFC08BD00180140A9
:100E8000000801402DE9F041254C264F264D012652
:100E900008B1267001E0207878B110212846FFF7CC
:100EA000F7FC88B108212846FFF7F2FC60B1012168
:100EB0003846FFF7EDFC012806D010212846FFF741
:100EC000E7FC01281DD028E00A20FFF761FF002081
:100ED000207010212846FFF7DBFC58B10821284676
:100EE000FFF7D6FC48B101213846FFF7D1FC0128B5
:100EF00005D012E00120BDE8F0810220FBE70320CD
:100F0000F9E708212846FFF7C3FC012805D1012194
:100F10003846FFF7BDFC00B926700020EBE7000063
:100F200030000020000801400018014038B50121C0
:100F30004820FFF72DFD2024ADF8004010208DF84B
:100F4000030003200B4D8DF8020069462846FFF789
:100F500051FC20212846FFF7A2FCADF80040064CCA
:100F600069462046FFF746FC20212046FFF797FC04
:100F700038BD0000000C01400018014010B54FF4CE
:100F80004070FFF7C3FC4FF4E13000F0F5FDFFF7D0
:100F9000E1FEFFF7CBFFFFF757FF00F003F800205B
:100FA00010BD00001CB503220021012001F0F6FA5B
:100FB0000949C86010B109A0FFF77EF90649012070
:100FC000CDE90001002380220AA10D4801F016FEA0
:100FD000BDE81C4001F09EB914000020B6FED6B555
:100FE000D0C5BAC5C1BFB4B4BDA8B3C9B9A60D0AAE
:100FF0000000000073746172745F7461736B0000B1
:10100000751A00082DE9F041204D0F460446EE68A0
:101010002968002081F859002868001D00F0FCFDB7
:1010200038B9286890F82C1001208840296981433C
:101030002961601C15D1A7B115492A6848689060DC
:101040002B688268DA602A688368121D5A602A68F1
:10105000121D8260286841610868401C0860BDE874
:10106000F08128683444B4424460296805D2E86BB2
:10107000BDE8F041091D00F0F0BDA86B091D00F0AE
:10108000ECFDA86A8442EAD2AC62E8E75000002096
:10109000B40400202DE9F041044600F003FE354E73
:1010A000B068401CB0603068334F10B1706930B325
:1010B0002BE03460B068012827D1002505EB8500BE
:1010C00007EB800000F0BBFD6D1C202DF6D32B48F4
:1010D00000F0B5FD2948143000F0B1FD2748283054
:1010E00000F0ADFD25483C3000F0A9FD234850300C
:1010F00000F0A5FD2148B0631430F06305E03068CE
:10110000E16AC06A884200D83460706A0121401CDC
:1011100070626064E06A326981401143316100EBC2
:10112000800007EB80004068A0608168E160826811
:10113000211D51608160E06A00EB800007EB8001B7
:10114000616157F82010491C47F8201000F0E6FDB7
:10115000706900280CD03068E16AC06A884207D202
:1011600007494FF080500860BFF34F8FBFF36F8F78
:10117000BDE8F08150000020E4010020640400205C
:1011800004ED00E010B500F08DFD0E4C2068A0B914
:101190000D4800F054FD0C48143000F050FD0A4892
:1011A000E0601430206100221021052001F0F6F9E2
:1011B000206010B105A100F0CBFEBDE8104000F0AA
:1011C000ADBD000090000020C8040020546D725195
:1011D0000000000030B4026C0B46002A0BD0C1683E
:1011E0001144C1608468A14201D30168C16030BC70
:1011F0001846FFF707B930BC70472DE9F041856B01
:10120000174604460026026C82B1C7B1E068FFF7BA
:10121000F9F8E168206C091AE1602268914202D273
:10122000A168081AE060022F16D017E02068A8B95C
:10123000A06801F0C7FD06460020A0600EE06068CF
:10124000FFF7E0F8216C606808446060A16888429C
:1012500004D32068606001E005B16D1E6D1CA563BC
:101260003046BDE8F08110B50446006B00F088FD03
:101270002046BDE8104000F083BD00000A49002070
:101280000A69012A00D901200A68D26A0AB100203D
:101290007047064A1268012AF9D80028F7D1886AEF
:1012A000C968401A7047000050000020E401002087
:1012B00010484FF42051420706D0C01D0D4920F0C0
:1012C0000700411AC1F520510B4A00230144C2E92D
:1012D00000030839183A21F0070111604B600B60D8
:1012E0000B1AC0E9001393604FF000405360506147
:1012F00070470000F0040020BC0000201E4D1F4E6F
:1013000011E000F0CFFCF068C468201D00F084FC00
:10131000A868401EA8606868401E686000F0FEFC77
:101320002046FFF7A0FF68680028EAD1144800684B
:10133000012807D913494FF080500860BFF34F8F41
:10134000BFF36F8FFFF79AFF0228D8D301F050F850
:10135000A86AE968884205D240F6C7520AA10FA0E0
:10136000FEF7AAFFFFF78AFF022801D300F07EFDF7
:1013700001F06CFEC3E7000050000020A004002034
:10138000E401002004ED00E02E2E5C4672656552FB
:10139000544F535C7461736B732E63004572726FAC
:1013A000723A2025732C2025640D0A002DE9F05F88
:1013B000DDE90B940E461746834691009A460A9D36
:1013C000A522206BFFF763F86FF00301206B01EBA0
:1013D0008701084420F007085FEA487005D04FF401
:1013E00058721FA123A0FEF767FF002766B10020F7
:1013F0002218315C82F83410315C11B1401C102885
:10140000F6D384F8437001E084F83470202D06D3BD
:1014100040F2973212A117A0FEF74EFF1F25E5629A
:10142000C4E91357201D00F015FC04F1180000F06A
:1014300011FC2461C5F120006462A061676584F835
:10144000587084F8597052465946404600F000FBE7
:101450002060B9F1000F01D0C9F80040BDE8F09F4D
:101460002E2E5C4672656552544F535C7461736BEB
:10147000732E63004572726F723A2025732C2025FB
:10148000640D0A0030B5114900E011460A68824235
:10149000FBD34B685C18844203D140681844486011
:1014A000084643681C18944209D1084C183C24682B
:1014B000A24209D052681A4442600A681268026067
:1014C000814200D0086030BD0460F9E7BC00002014
:1014D00070B5002441600B4D0061914206D8D11ACD
:1014E0008269914206D2011D286907E09A4203D21F
:1014F000994201D3012403E0011DE86800F0ADFB2F
:10150000204670BD9000002010B5044600F0CAFBD4
:10151000A06B20B1002400F001FC204610BD012486
:10152000F9E70000F1B500980026846C2CB940F66C
:10153000D43219A11DA0FEF7BFFEA06BE16B88425B
:1015400005D340F6D53214A118A0FEF7B5FEA06B66
:10155000E16B88421ED294F945500022694620462C
:10156000FFF74BFE0646681C02D07F2D09D00EE027
:10157000606A78B104F1240001F0E8FC50B1012662
:1015800008E040F6F53204A108A0FEF795FE6D1CB8
:1015900084F845503046F8BD2E2E5C467265655283
:1015A000544F535C71756575652E63004572726F9B
:1015B000723A2025732C2025640D0A0070B506466A
:1015C0000D480D46C068C068C468201D00F024FBAB
:1015D00094F82800410705D52A463146204600F0F8
:1015E000D1F803E000F0FE0084F828002046216ACC
:1015F000BDE87040084700009000002070B586B03C
:101600003A4E69E00098002806DADDE90201019A05
:101610009047009800285FDB029C606910B1201D94
:1016200000F0FAFA04A800F0CFF8054600980A285E
:1016300052D2DFE800F0510505282E450505282E79
:1016400094F828002A4640F0010084F82800019808
:10165000A169034601442046FFF73AFF78B394F8A6
:101660002800410707D50198A1692A460144204670
:1016700000F088F803E000F0FE0084F82800216AFA
:101680002046884728E014F8280F00F0FE0020705C
:1016900022E094F8280040F0010084F82800019826
:1016A000A06128B940F2593211A117A0FEF704FE3B
:1016B000A0692B4641191A462046FFF709FF0BE0A7
:1016C00094F82800810703D4204600F059FB03E07A
:1016D00000F0FE0084F8280000226946306801F01E
:1016E000CBF800288ED106B070BD0000900000201D
:1016F0002E2E5C4672656552544F535C74696D655D
:1017000072732E63000000004572726F723A2025DA
:10171000732C2025640D0A00F8B50D46064600F02E
:1017200067FE684600F050F80446009810B101F0DA
:101730008DFCF8BD1148ADB101690968D9B100252A
:10174000311B2A46006800F03DFC01F07FFC0028B8
:10175000EFD10B494FF080500860BFF34F8FBFF3BC
:101760006F8FF8BDA642EBD801F070FC21463046E1
:10177000FFF724FFF8BD0125E2E7000090000020FC
:1017800004ED00E070B516460C46054604E0A86975
:10179000296A044428468847A86923460119324625
:1017A0002846FFF795FE0028F1D170BD0548816BF2
:1017B000096821B1816BC9680968816270474FF07F
:1017C000FF31FAE7500000202DE9F041064601F014
:1017D0004FFA0E4D0446A868844214D24FF0FF37EA
:1017E00004E0C06839460068FFF7E8FEE868016871
:1017F0000029F6D12969C5E903100120306020468F
:10180000AC60BDE8F0810020F8E700009000002007
:1018100008484068401C04D0CE2207A111A0FEF762
:101820004BFD502080F31188BFF34F8FBFF36F8FB4
:10183000FEE70000C40000202E2E5C467265655253
:10184000544F535C706F727461626C655C525644A5
:10185000535C41524D5F434D335C706F72742E6325
:10186000000000004572726F723A2025732C20250B
:10187000640D0A00084CE068016839B1002139B1F3
:101880000020FFF749FFFFF7B9FEF4E70121F6E773
:10189000C0680068F5E70000900000202DE9F041E5
:1018A000044600F0FFF994F9455004F124060FE0D6
:1018B000A06C18B12046FFF735FE04E0606A48B11D
:1018C000304601F043FB08B100F046FC6D1E6DB2DE
:1018D000002DEDDC4FF0FF3684F8456000F01EFA75
:1018E00000F0E0F994F9445004F1100709E0206990
:1018F00048B1384601F02AFB08B100F02DFC6D1EFE
:101900006DB2002DF3DC84F84460BDE8F04100F0D6
:1019100005BA00002DE9F0410446002600F068FDFC
:10192000364F386808B9FFF7C3FC7869044258D1CC
:10193000002C56D004F10805A54252D968070ED0F4
:1019400005F00700C0F108002844A84249D905461F
:10195000400704D09C222AA133A0FEF7ADFC002D45
:101960003FD0786885423CD824491831084604683D
:1019700001E0214604466068A84202D2206800289F
:10198000F7D13868B84684422BD00E6820680860CA
:1019900060680836401B10280ED96719780704D0F4
:1019A000CF2217A120A0FEF787FC6068401B78605B
:1019B00038466560FFF766FD6168D8F80400424666
:1019C000401AC8F80400D8F80830984200D2906055
:1019D000506901430020C4E90001D068401CC8F8E8
:1019E0000C0001F033FB700705D04FF4887204A19E
:1019F0000DA0FEF761FC3046BDE8F081A400002098
:101A00002E2E5C4672656552544F535C706F727433
:101A100061626C655C4D656D4D616E675C686561AA
:101A2000705F342E630000004572726F723A202599
:101A3000732C2025640D0A000449086818B1086851
:101A4000026D521C026508687047000050000020BB
:101A500010B5031F4FF080741C601B1F21F00101A3
:101A60001960191F024B0B60143940380A6010BD11
:101A7000111800081CB500F015F90E490220CDE937
:101A80000001002380220CA10D4801F0B7F809499C
:101A90000320091DCDE900010023802209A10B4884
:101AA00001F0ACF8002000F0E5FABDE81C4000F0C1
:101AB00035B90000180000207461736B310000001C
:101AC000D11A00087461736B320000002D1B0008EE
:101AD0000B4C0020FFF7D6F901280BD1E06848B184
:101AE00000231A46194600F003FE012806D005A07F
:101AF000FEF7E2FB0A2000F087FAEAE706A0F7E724
:101B000014000020D0C5BAC5C1BFCACDB7C5CAA789
:101B1000B0DC0D0A00000000D0C5BAC5C1BFCACDF7
:101B2000B7C5B3C9B9A60D0A000000000024094DCD
:101B30004FF47A763146E86800F046FF012805D078
:101B4000611C0C4604A0FEF7B7FBF3E705A0FEF707
:101B5000B3FBEFE714000020D2D1B3ACCAB120250B
:101B6000640D0A00D0C5BAC5C1BFBBF1C8A1B3C9D5
:101B7000B9A60D0A0000000070B5054686B0012127
:101B800044F20400FEF704FF4FF40070ADF81000BB
:101B900003248DF8124018201D4E8DF8130004A95F
:101BA0003046FEF727FE3015ADF8100004208DF802
:101BB000130004A93046FEF71DFE25208DF8140001
:101BC0008DF815408DF8164001208DF8170005A8F6
:101BD000FEF76AFE0020ADF80400ADF80600ADF88F
:101BE0000800ADF80C000C200A4CADF80A00009576
:101BF00069462046FFF752F8012240F2255120465F
:101C0000FFF733F801212046FFF706F806B070BD54
:101C10000008014000380140D0E9013201699A60B2
:101C2000D0E901235A604A68824201D182684A6041
:101C3000002202610868401E08600868704700F1D1
:101C400008014FF0FF32C0E90112C16001610021BB
:101C50000160704700210161704730B50C68621C5B
:101C600002D000F1080202E0026904E01A4653685B
:101C70001D68A542FAD953684B6099608A6051602B
:101C800008610168491C016030BD42684A60936880
:101C90008B6093685960916008610168491C01601C
:101CA00070470000502080F31188BFF34F8FBFF3BF
:101CB0006F8F09494868401C486001280AD10748CD
:101CC000006810F0FF0F05D040F2731204A10FA0BE
:101CD000FEF7F2BA70470000C400002004ED00E0F7
:101CE0002E2E5C4672656552544F535C706F727451
:101CF00061626C655C525644535C41524D5F434D8A
:101D0000335C706F72742E63000000004572726F56
:101D1000723A2025732C2025640D0A0010B5084C5A
:101D2000606828B94FF4BD7206A111A0FEF7C4FA8D
:101D30006068401E606001D180F3118810BD000012
:101D4000C40000202E2E5C4672656552544F535CD1
:101D5000706F727461626C655C525644535C4152A0
:101D60004D5F434D335C706F72742E630000000052
:101D70004572726F723A2025732C2025640D0A007B
:101D800070B500282DD0174DA0F10804606869696E
:101D9000084205D14FF4927213A11DA0FEF78CFAF0
:101DA000206828B140F225120FA119A0FEF784FA8D
:101DB00060686969084214D02268002A11D18843FA
:101DC000606000F015FB6068696808446860204640
:101DD000FFF758FB2869401C2861BDE8704001F0FE
:101DE00035B970BDA40000202E2E5C467265655288
:101DF000544F535C706F727461626C655C4D656DBD
:101E00004D616E675C686561705F342E6300000031
:101E10004572726F723A2025732C2025640D0A00DA
:101E200010B510484FF4FA530F4A00686FF07F4422
:101E3000B0FBF3F19160B4FBF1F1D160C108B0FBEC
:101E4000F1F12D24B4FBF1F111614FF0E0210022FA
:101E50000A618A61B0FBF3F0401E4861032008610B
:101E600010BD000000000020C40000202DE9F0415A
:101E7000364E0446F068844200D904464FF0E0270D
:101E8000386920F001003861B969B268601E02FB50
:101E900000153069854200D92D1A72B6BFF34F8FF5
:101EA000BFF36F8FFEF7AAFF78B37D614FF0000894
:101EB000C7F81880386940F001003861FEF74BFD23
:101EC00024B1BFF34F8F30BFBFF36F8FFEF728FDF4
:101ED00062B6BFF34F8FBFF36F8F72B6BFF34F8FF2
:101EE000BFF36F8F022038613869C00315D5B86918
:101EF000B168281A081A3269401E904201D38842FC
:101F000000D9481E7861601E11E0FFE7B86978616A
:101F1000386940F00100386111E0B168B8694C439C
:101F2000221AB2FBF1F0431C4B43991A7961C7F8AE
:101F30001880396941F00101396100F033FAB06865
:101F4000401E786162B6BDE8F0810000C400002048
:101F500070B50E4605004FF0000405D140F6C922C9
:101F60000EA113A0FEF7A8F9002E15D014490022E7
:101F700001EBC2004368AB4202D101EBC20407E0AF
:101F80001CB951F8323003B90446521C082AEFD369
:101F9000002C01D0C4E9006570BD00002E2E5C4607
:101FA00072656552544F535C71756575652E63009B
:101FB0004572726F723A2025732C2025640D0A0039
:101FC000A401002070B515460E460446FFF76AFED0
:101FD00094F944100020491C01D184F8440094F97C
:101FE0004510491C01D184F84500FFF797FEA06B0E
:101FF00028B92A46314604F1240000F0DDF82046D5
:10200000BDE87040FFF74ABC10B5040012D00E497D
:10201000496B29B140F249520CA111A0FEF74CF9CD
:1020200000F0E6F900212046FEF7ECFF01F00EF883
:10203000002807D10E494FF080500860BFF34F8F42
:10204000BFF36F8F10BD0000500000202E2E5C46A5
:1020500072656552544F535C7461736B732E6300E9
:102060004572726F723A2025732C2025640D0A0088
:1020700004ED00E070B50446FFF714FE254D04B9E9
:102080002C68201DFFF7C8FD58B9E06A224A00EB12
:10209000800152F8211021B901218140286988432B
:1020A0002861A06A18B104F11800FFF7B5FD686A4D
:1020B000401C68622868844207D1211D1748FFF739
:1020C000E4FD6868401C686004E0A868401EA860E1
:1020D000FFF76CFBFFF722FE2868844202D02046FF
:1020E000FFF7C1F86869002812D0286884420FD130
:1020F000686B28B140F2DC4209A10EA0FEF7DCF8C3
:1021000010494FF080500860BFF34F8FBFF36F8FBF
:1021100070BD000050000020E4010020A004002059
:102120002E2E5C4672656552544F535C7461736B1E
:10213000732E63004572726F723A2025732C20252E
:10214000640D0A0004ED00E002490A6A0260C968F1
:10215000416070475000002001490120C86170476C
:102160005000002070B50D46040005D140F61C4219
:1021700007A10CA0FEF7A0F80E4801682046183110
:10218000FFF76BFD2846BDE870400121FEF73ABF1E
:102190002E2E5C4672656552544F535C7461736BAE
:1021A000732E63004572726F723A2025732C2025BE
:1021B000640D0A005000002070B515460E4604005C
:1021C00005D140F6524210A114A0FEF775F8174948
:1021D00060680A68D06182680B681A620A6883685E
:1021E00018325A600A68183282600868846220686F
:1021F000401C20600DB14FF0FF3629463046BDE847
:102200007040FEF7FFBE00002E2E5C4672656552E0
:10221000544F535C7461736B732E63004572726F1D
:10222000723A2025732C2025640D0A0050000020EE
:1022300070B50E46040056D0206D28B941F29F02B9
:1022400029A12EA0FEF738F8E56CB54200D235463C
:10225000E06AA84247D0206D012844D12B4E306857
:10226000844205D141F2BA021FA124A0FEF724F84E
:10227000E06AE562A169002902DBC5F12001A161E4
:10228000234D00EB8000616905EB800081422AD17B
:10229000201DFFF7C1FC012130B994F82C003269F0
:1022A00001FA00F082433261E06A326981401143F1
:1022B000316100EB800005EB80004068A060816820
:1022C000E1608268211D51608160E06A00EB80005E
:1022D00005EB80006061E06A00EB800055F820109B
:1022E000491C45F8201070BD2E2E5C467265655263
:1022F000544F535C7461736B732E63004572726F3D
:10230000723A2025732C2025640D0A00500000200D
:10231000E40100207CB516480025CDE900502B468D
:10232000802214A1154800F069FC114C2C3C0128B6
:1023300003D100F031FF012802D0401C10D015E07D
:10234000502080F31188BFF34F8FBFF36F8F4FF092
:10235000FF30A06201206061E56000F08FF805E0C9
:102360004FF4046206A10BA0FDF7A6FF206B7CBD15
:102370007C00002049444C4500000000FD1200088C
:102380002E2E5C4672656552544F535C7461736BBC
:10239000732E63004572726F723A2025732C2025CC
:1023A000640D0A0070B5084D0446E868A96A204427
:1023B000884205D940F6462204A109A0FDF77CFF1A
:1023C000E8682044E86070BD500000202E2E5C4676
:1023D00072656552544F535C7461736B732E630066
:1023E0004572726F723A2025732C2025640D0A0005
:1023F0000248416B491C41637047000050000020B7
:1024000070B5134D686B10B10120E86170BD0020FC
:10241000E86128690F4EB0FA80F0C0F11F0000EBB0
:10242000800456F8240028B940F602420AA10FA001
:10243000FDF742FF06EB840000F10802416849689D
:102440004160914201D149684160C868286070BD0F
:1024500050000020E40100202E2E5C46726565527B
:10246000544F535C7461736B732E63004572726FCB
:10247000723A2025732C2025640D0A007CB52A4D64
:1024800028780190FF20287028788DF800009DF8AA
:1024900000009DF8001000F0F000884205D040F2E6
:1024A0001F1222A12CA0FDF707FF9DF800002E4C63
:1024B00000F0500020700720606106E0401E60615F
:1024C0009DF8000040008DF800009DF80000000617
:1024D0006069F3D403280ED040F2331213A11EA07A
:1024E000FDF7EAFE6069032805D04FF49E720FA144
:1024F00019A0FDF7E1FE207D000200F4E0606061BC
:10250000019828701948016841F470010160016860
:1025100041F070410160FFF783FC00206060FDF72F
:102520006FFE00207CBD000000E400E02E2E5C4623
:1025300072656552544F535C706F727461626C6562
:102540005C525644535C41524D5F434D335C706F57
:1025500072742E63000000004572726F723A20257B
:10256000732C2025640D0A00C400002020ED00E03B
:1025700010B5502080F31188BFF34F8FBFF36F8FDA
:1025800000F07CFB18B104494FF080500860002037
:1025900080F3118810BD000004ED00E02DE9F0414A
:1025A00017460E4605004FF000041FD0601EB0FB1A
:1025B000F5F0B0421AD305FB06F010F1550F15D80F
:1025C0005430FFF7A7F9040016D004F154005EB1AF
:1025D0002060C4E90F562046012100F023F884F85A
:1025E00050700021A16407E02460F2E74FF4E37229
:1025F00003A108A0FDF760FE2046BDE8F0810000C1
:102600002E2E5C4672656552544F535C717565752C
:10261000652E63004572726F723A2025732C202557
:10262000640D0A002DE9F0410E4604004FF001054B
:102630002AD0E06B70B3AF1EB7FBF0F1206C814283
:1026400028D3FFF72FFBD4E90F20216802FB0011EC
:10265000A1600021A163216861600A46D4E90F01ED
:10266000401E00FB01212046E16000F8447F4770D6
:1026700004F11000C6B1FFF7E2FA04F12400FFF7FD
:10268000DEFAFFF74BFB0CE04FF488720EA113A0AB
:10269000FDF712FE002540F245120BA10FA0FDF739
:1026A0000BFE2846BDE8F08121690029E9D000F041
:1026B0004DFC0028E5D00D494FF080500860BFF375
:1026C0004F8FBFF36F8FDCE72E2E5C46726565522D
:1026D000544F535C71756575652E63004572726F5A
:1026E000723A2025732C2025640D0A0004ED00E0C9
:1026F0002DE9FF4F83B01F468B4604004FF00006C4
:1027000005D140F22E3252A156A0FDF7D5FDBBF106
:10271000000F07D1206C28B140F22F324CA151A0FC
:10272000FDF7CAFD022F08D1E06B012805D04FF458
:102730004C7247A14BA0FDF7BFFD00F08BFA38B9F2
:10274000059828B140F2333241A146A0FDF7B4FD0F
:102750004FF0000A4FF08058DFF81891FFF7A2FA07
:10276000A06BE16B884205D3022F03D0059818B304
:102770002EB328E0A56B3A4659462046FEF73DFDAC
:10278000A16C31B1022F00D185B92046FEF7CAFEF7
:1027900005E0616A19B104F1240000F0D7FB28B10B
:1027A000C9F80080BFF34F8FBFF36F8FFFF7B6FA02
:1027B000012007B0BDE8F08FFFF7B0FA21E06846CE
:1027C000FFF7C2FC0126FFF7A9FAFFF711FEFFF79A
:1027D00069FA94F94400401C01D184F844A094F9AA
:1027E0004500401C01D184F845A0FFF797FA05A9E0
:1027F000684600F0AFF930B12046FFF74FF800F01F
:1028000025FC0020D5E7FFF74DFAA06BE16B88426D
:1028100001D1012500E00025FFF780FA95B104F110
:1028200010000599FFF79EFC2046FFF737F800F0EF
:102830000DFC002892D1C9F80080BFF34F8FBFF381
:102840006F8F8BE72046FFF729F800F0FFFB85E745
:102850002E2E5C4672656552544F535C71756575DA
:10286000652E63004572726F723A2025732C202505
:10287000640D0A0004ED00E02DE9F74783B08A46B5
:1028800004004FF0000605D140F2515244A149A086
:10289000FDF712FDBAF1000F07D1206C28B140F20C
:1028A00055523FA143A0FDF707FD00F0D3F938B919
:1028B000059828B140F25A5239A13EA0FDF7FCFC20
:1028C00000274FF08058DFF8FC90FFF7EBF9A56B7D
:1028D000C5B151462046FEF77DFC6D1EA5632069FB
:1028E00050B104F1100000F031FB28B1C9F80080AC
:1028F000BFF34F8FBFF36F8FFFF710FA012006B0C1
:10290000BDE8F087059808B11EB106E0FFF706FAAA
:1029100027E06846FFF718FC0126FFF7FFF9FFF7ED
:1029200067FDFFF7BFF994F94400401C01D184F81A
:10293000447094F94500401C01D184F84570FFF7BC
:10294000EDF905A9684600F005F9002820460AD0EF
:10295000FEF7A4FF00F07AFB2046FEF7D5FD002825
:10296000B3D00020CBE7FEF7CFFD90B104F12400F7
:102970000599FFF7F7FB2046FEF790FF00F066FB96
:102980000028A2D1C9F80080BFF34F8FBFF36F8F2B
:102990009BE72046FEF782FF00F058FB95E700001A
:1029A0002E2E5C4672656552544F535C7175657589
:1029B000652E63004572726F723A2025732C2025B4
:1029C000640D0A0004ED00E02DE9F3434FF000052B
:1029D00083B004002E4605D140F2E35253A158A023
:1029E000FDF76AFC206C28B140F2E7524FA154A0D9
:1029F000FDF762FC00F02EF938B9049828B140F2D6
:102A0000EC524AA14EA0FDF757FC00274FF080582A
:102A1000DFF83C91FFF746F9A06BC8B1401EA063F8
:102A2000206810B9FFF708F8A060206950B104F1E0
:102A3000100000F08BFA28B1C9F80080BFF34F8F67
:102A4000BFF36F8FFFF76AF9012005B0BDE8F0838F
:102A5000049808B155B10DE02EB140F2326233A1B5
:102A600037A0FDF729FCFFF759F95DE06846FFF74D
:102A70006BFB0125FFF752F9FFF7BAFCFFF712F9DC
:102A800094F94400401C01D184F8447094F9450045
:102A9000401C01D184F84570FFF740F904A968464D
:102AA00000F058F80028204612D0FEF7F7FE00F09C
:102AB000CDFA2046FEF728FD0028ABD09EB3FFF7E5
:102AC000F1F8606A50B3206B0068C0F1200126E085
:102AD000FEF71AFDE0B1206838B9FFF7E3F8A06807
:102AE00000F0DAF90646FFF719F904F12400049919
:102AF000FFF738FB2046FEF7D1FE00F0A7FA0028CA
:102B000088D1C9F80080BFF34F8FBFF36F8F81E783
:102B10002046FEF7C3FE00F099FA7BE70021A0688B
:102B2000FFF786FB9FE7FFE700208EE72E2E5C462F
:102B300072656552544F535C71756575652E6300FF
:102B40004572726F723A2025732C2025640D0A009D
:102B500004ED00E02DE9F0410D46040005D140F6FA
:102B6000FD421CA120A0FDF7A7FB2DB940F6FE42B7
:102B700018A11DA0FDF7A0FBFFF794F81E4EF16809
:102B800063683068CA1A002790F8590018B1306895
:102B900080F8597018E02868B0F1FF3F09D0D4F8E8
:102BA00000C0366AB44506D08B4204D801242F6099
:102BB0000BE0002409E0904205D9801A28602046E5
:102BC000FFF7C2FAF5E72F600124FFF7A7F82046C8
:102BD000BDE8F0812E2E5C4672656552544F535C01
:102BE0007461736B732E63004572726F723A2025A5
:102BF000732C2025640D0A00500000202DE9FF5F92
:102C00008346DDE90E87994616468A469000FEF710
:102C100081FE05001AD05C20FEF77CFE040012D075
:102C200025630021CDE90241CDE900874B463246BC
:102C300051465846FEF7BAFB2046FEF72BFA012014
:102C400004B0BDE8F09F2846FFF79AF84FF0FF3038
:102C5000F6E700000548416919B1406B18B1002042
:102C6000704701207047022070470000500000208C
:102C70000148C06870470000500000202DE9F04175
:102C8000454E0025706B28B1B069401CB0612846E4
:102C9000BDE8F081F468641CF46011D1B06B006889
:102CA00028B140F6C7223DA141A0FDF705FBB06B5E
:102CB000F16BB163F063306A401C3062FEF776FD61
:102CC000B06ADFF8FCE084420BD34FF0000CB06B2D
:102CD0000068A0B1B06BC068C1684868844211D276
:102CE000B0623068C06A00EB80005EF82000012806
:102CF00000D90125F0690028C9D00125C7E74FF0A8
:102D0000FF30EDE7D1E9023248699A60D1E9022348
:102D10005A6043680A1D934201D1CB684360C1F8F1
:102D200014C003685B1E0360886A88B1D1E9073765
:102D30009F60D1E907377B60476801F118039F4224
:102D400001D10B6A4360C1F828C003685B1E0360B1
:102D5000C86A0123376983403B43336100EB80003D
:102D60000EEB8000406888608368CB6083685A609F
:102D70008260C86A00EB80000EEB80024A615EF858
:102D80002020521C4EF82020C86A3168C96A884247
:102D90009DD301259BE70000500000202E2E5C46AD
:102DA00072656552544F535C7461736B732E63008C
:102DB0004572726F723A2025732C2025640D0A002B
:102DC000E401002070B504004FF000064BD0274D01
:102DD0002868844205D041F24F0225A129A0FDF7C1
:102DE0006BFA206D28B941F2500221A125A0FDF710
:102DF00063FA206D401E2065E26CE16A914232D098
:102E000088BB201DFEF708FF012130B994F82C0083
:102E10002A6901FA00F082432A61E06CE062C0F1A5
:102E20002000A061E06A2A69814011432961194AA2
:102E300000EB800002EB80004068A0608168E160E8
:102E40008368211D59608160E06A00EB800002EB1D
:102E500080006061E06A00EB800052F82010491C9D
:102E600042F820100126304670BD000050000020BE
:102E70002E2E5C4672656552544F535C7461736BC1
:102E8000732E63004572726F723A2025732C2025D1
:102E9000640D0A00E401002070B504004FF000004A
:102EA00048D0284DE16A2A68D26A914243D2A0698B
:102EB000002804DB2868C06AC0F12000A061E06A35
:102EC000214E00EB8000616906EB800081422DD12C
:102ED000201DFEF7A1FE012130B994F82C002A69CB
:102EE00001FA00F082432A612868C06AE0622A6918
:102EF00081401143296100EB800006EB80004068AF
:102F0000A0608168E1608268211D51608160E06A93
:102F100000EB800006EB80006061E06A00EB80005F
:102F200056F82010491C46F8201002E02868C06AB4
:102F3000E062012070BDE16C2A68D26A9142F8D348
:102F400070BD000050000020E401002070B5C06892
:102F5000C4682CB940F6824230A135A0FDF7ACF927
:102F6000D4E90721A06A9160D4E907125160426850
:102F700004F118018A4201D1226A42600022A26251
:102F800003685B1E03602E4D686B012698B12D4AC5
:102F90005068E06183682362836859608160A2623F
:102FA0001068401C1060E06A2968C96A884233D9F9
:102FB0000120EE6170BDD4E9023160699960D4E905
:102FC000021359604368211D8B4201D1E3684360BD
:102FD00062610268521E0260E06A2B6906FA00F222
:102FE0001A432A61184A00EB800002EB8000406817
:102FF000A0608368E360836859608160E06A00EBE9
:10300000800002EB8001616152F82010491C42F8F7
:103010002010FEF7CBFBC6E7002070BD2E2E5C46CD
:1030200072656552544F535C7461736B732E630009
:103030004572726F723A2025732C2025640D0A00A8
:10304000500000208C040020E40100202DE9F0470E
:10305000444D0024A146686B28B940F6B30242A152
:1030600046A0FDF729F9FEF71DFE686B401E686358
:10307000686B002870D1A868DFF810C100264FF0F7
:103080000108E8BB68E0DCF80C00C468D4E907215B
:10309000A06A9160D4E907125160426804F11801F6
:1030A0008A4201D1216A4160A6620168491E01601D
:1030B000D4E9022160699160D4E90212516042684A
:1030C000211D8A4201D1E268426066610268521E97
:1030D0000260E06A2F69434608FA00F23A432A6127
:1030E0002B4A00EB800002EB80004068A0608768FC
:1030F000E760876879608160E06A00EB800000E04B
:103100000DE002EB8001616152F82010491C42F889
:103110002010E06A2968C96A884200D3EB61DCF8B4
:1031200000000028AFD10CB1FEF740FBAC693CB108
:103130004746FFF7A3FD00B1EF61641EF9D1AE6110
:10314000E86948B113494FF080504FF00109086019
:10315000BFF34F8FBFF36F8FFEF7E0FD4846BDE82A
:10316000F0870000500000202E2E5C4672656552EC
:10317000544F535C7461736B732E63004572726FAE
:10318000723A2025732C2025640D0A008C0400203F
:10319000E401002004ED00E01CB50024FDF7F2FF7F
:1031A0000C48006868B10B491F20091DCDE90001DA
:1031B00000234FF4807208A10948FFF71FFD0400A7
:1031C00005D140F2191207A10CA0FDF775F82046B1
:1031D0001CBD000090000020546D722053766300E7
:1031E000751800082E2E5C4672656552544F535C6C
:1031F00074696D6572732E63000000004572726F12
:10320000723A2025732C2025640D0A002C32000808
:1032100000000020DC0000006C01000808330008FA
:10322000DC000020743200008801000800A24A047B
:103230000000000000000000010203040607080966
:10324000000000000000000000000000000000007E
:10325000000000000000000000000000010000006D
:10326000000000000000000002040608000000004A
:10327000010203040102030406070809000000001C
:10328000000000000000000000000000000000003E
:10329000000000000000000000000000000000002E
:1032A0000000000000000000000000001F000000FF
:1032B000000000000000000000000000000000000E
:1032C00000000000000000000000000000000000FE
:1032D00000000000000000000000000000000000EE
:1032E00000000000000000000000000000000000DE
:1032F00000000000AAAAAAAA000000000000000026
:083300000000000000000000C5
:040000050800027578
:00000001FF
