:020000040800F2
:10000000A8330020B5020008E3080008DF08000854
:10001000E108000879070008050D0008000000004D
:100020000000000000000000000000001D020008A9
:100030007B0700080000000061020008C90A0008F0
:10004000CF020008CF020008CF020008CF0200084C
:10005000CF020008CF0200087D070008CF02000889
:10006000CF020008B9070008F1070008CF02000816
:10007000CF020008CF020008CF020008CF0200081C
:10008000CF020008CF020008CF020008CF0200080C
:10009000CF020008CF020008CF020008CF020008FC
:1000A000CF020008CF020008CF020008CF020008EC
:1000B000CF0200082D0B0008CF020008CF02000875
:1000C000CF020008CF020008CF020008CF020008CC
:1000D000CF020008690B0008CF020008CF02000819
:1000E000CF020008CF020008CF020008CF020008AC
:1000F000CF020008CF020008CF020008CF0200089C
:10010000CF020008CF020008CF020008CF0200088B
:10011000CF020008CF020008CF020008CF0200087B
:10012000CF020008CF020008CF020008CF0200086B
:1001300000F002F800F062F80AA090E8000C824497
:100140008344AAF10107DA4501D100F057F8AFF274
:10015000090EBAE80F0013F0010F18BFFB1A43F0A5
:1001600001031847202C0000402C00000A444FF0E7
:10017000000C10F8013B13F0070408BF10F8014B06
:100180001D1108BF10F8015B641E05D010F8016B4B
:10019000641E01F8016BF9D113F0080F1EBF10F8AF
:1001A000014BAD1C0C1B09D16D1E58BF01F801CBD2
:1001B000FAD505E014F8016B01F8016B6D1EF9D555
:1001C0009142D6D37047000000230024002500266A
:1001D000103A28BF78C1FBD8520728BF30C148BFAA
:1001E0000B607047642900F0F180732900F02682CB
:1001F000002070471FB51FBD10B510BD00F08CFA70
:100200001146FFF7F7FF00F051FE00F0AAFA03B421
:10021000FFF7F2FF03BC00F076FD0000224B1968E7
:100220000868B0E8F00F80F30988BFF36F8F4FF0D4
:10023000000080F311884EF00D0E704700000000A2
:1002400006480068006880F3088862B661B6BFF3AC
:100250004F8FBFF36F8F00DF00BF00BF08ED00E0DE
:10026000EFF30980BFF36F8F0F4B1A6820E9F00F8F
:10027000106008B54FF0500080F31188BFF34F8F26
:10028000BFF36F8F01F09AFF4FF0000080F31188E9
:10029000BDE8084019680868B0E8F00F80F30988E5
:1002A000BFF36F8F704700BFB0000020EFF30580F1
:1002B000704700000948804709480047FEE7FEE70D
:1002C000FEE7FEE7FEE7FEE7FEE7FEE7FEE7FEE706
:1002D00004480549054A064B70470000DD0A00083E
:1002E00031010008A82D0020A8330020A82F0020ED
:1002F000A82F0020704700000FB4044910B503AACE
:10030000029800F09FF910BC5DF814FB98000020E3
:100310002DE9F0410E460446002020622046E168A7
:10032000884730B3252805D0D4E901219047206AB9
:10033000401CF2E7E168204600278847050018D0F6
:10034000A5F14100192802D820354FF40067324644
:10035000294620462760FFF745FF40B1012804D019
:10036000F61D26F007060836D8E7361DD6E72846DC
:10037000DAE7206ABDE8F08170B50C460546012A2F
:1003800005D02878800600D5EA69002302E0012321
:1003900005E05B1C934202D2E05C0028F9D1A86919
:1003A000E618C01AA861286A184428622846AFF3E4
:1003B000008004E0D5E9012114F8010B9047B44214
:1003C000F8D32846AFF3008070BD00002DE9F0415E
:1003D0000646002410687529314616A510D0AFF3E3
:1003E0000080002802DA404213A507E031688A073E
:1003F00001D512A502E0490704D511A5012401E0A9
:10040000AFF3008000210A2206F1240709E0B0FBC7
:10041000F2FCB0FBF2F302FB1C00303078541846BB
:10042000491C0028F3D123462A463046BDE8F04156
:1004300000F080B8000000002D0000002B0000003C
:1004400020000000032A40F2308010F0030C00F07E
:10045000158011F8013BBCF1020F624498BF11F8FE
:1004600001CB00F8013B38BF11F8013BA2F10402B7
:1004700098BF00F801CB38BF00F8013B11F003032F
:1004800000F0F280083AC0F0088051F8043B083AC6
:1004900051F804CBA0E80810F5E7121D5CBF51F835
:1004A000043B40F8043BAFF30080D20724BF11F8AF
:1004B000013B11F801CB48BF11F8012B24BF00F814
:1004C000013B00F801CB48BF00F8012B704702F058
:1004D000FF0343EA032242EA024200F0F9B84FF078
:1004E000000200B5134694469646203922BFA0E884
:1004F0000C50A0E80C50B1F12001BFF4F7AF090790
:1005000028BFA0E80C5048BF0CC05DF804EB890080
:1005100028BF40F8042B08BF704748BF20F8022BC3
:1005200011F0804F18BF00F8012B704770477047DB
:10053000704770472DE9F0470D46994692460446AC
:1005400000F124080168880604D5E06921F0100153
:10055000216000E00120A84201DD471B00E00027E8
:10056000A1697A1902EB0900081AA0612078C00677
:1005700002D42046AFF30080002608E0D4E9012130
:100580001AF806009047206A401C761C20624E45EF
:10059000F4DB2078C0060AD52046AFF3008006E0E1
:1005A000D4E9012130209047206A401C2062381E87
:1005B000A7F10107F4DC07E0D4E9012118F80500F0
:1005C0009047206A401C2062281EA5F10105F3DC3B
:1005D0002046AFF300802078000602D50220BDE857
:1005E000F0870120FBE7000001694A1C02610878DE
:1005F000704700B58FB0CDE9013100210591054963
:100600007944CDE9031011466846FFF781FE0FB02B
:1006100000BD0000E5FFFFFF10B5436913B1AFF364
:10062000008001E0FFF7A8FE012010BD127800F164
:1006300024010A7000224A700122EDE711684FF090
:10064000FF32E9E7074B70B50D467B44FFF7D1FF5A
:100650000446284600F05CF810B14FF0FF3070BD42
:10066000204670BD6307000010B5203AC0F00B8033
:10067000B1E81850203AA0E81850B1E81850A0E8A6
:100680001850BFF4F5AF5FEA027C24BFB1E8185000
:10069000A0E8185044BF18C918C0BDE810405FEA70
:1006A000827C24BF51F8043B40F8043B08BF7047EC
:1006B000D20728BF31F8023B48BF11F8012B28BFF1
:1006C00020F8023B48BF00F8012B70474FF00002B2
:1006D0000429C0F0128010F0030C3FF402AFCCF1FB
:1006E000040CBCF1020F18BF00F8012BA8BF20F8C2
:1006F000022BA1EB0C01FFF7F4BE5FEAC17C24BF23
:1007000000F8012B00F8012B48BF00F8012B7047BF
:10071000007B00F080007047754600F029F8AE4677
:1007200005006946534620F00700854618B020B5FD
:10073000FFF7CEFDBDE820404FF000064FF0000768
:100740004FF000084FF0000B21F00701AC46ACE879
:10075000C009ACE8C009ACE8C009ACE8C0098D46E6
:1007600070470446AFF300802046FFF750FD0000BD
:1007700000487047442D0020FEE7704738B5002040
:100780000C4C00900121204600F0A2F801280BD16A
:1007900042F2107101E0421C009200988842FAD3A4
:1007A0000121204600F094F8BDE83840012000F017
:1007B0003BB800000008014038B500200B4C009009
:1007C0000821204600F084F858B942F2107101E087
:1007D000421C009200988842FAD30821204600F07B
:1007E00077F8BDE83840082000F01EB80018014036
:1007F00038B500200B4C00901021204600F068F81E
:1008000058B942F2107101E0421C009200988842EF
:10081000FAD31021204600F05BF8BDE838401020E4
:1008200000F002B80018014001490860704700005C
:1008300014040140F0B5CC78002204F00F03E40664
:1008400001D58C7823430C784FF00F0C14F0FF0F78
:100850004FF0010E1BD005680E880EFA02F42640F8
:10086000A64210D196000CFA06F725EA070703FA0C
:1008700006F5CE783D43282E02D0482E02D002E065
:10088000446100E00461521C082AE5D305600A882F
:10089000FF2A1CD94468002202F108060EFA06F568
:1008A0000E882E40AE420ED196000CFA06F7BC43DD
:1008B00003FA06F7CE783C43282E00D14561CE7866
:1008C000482E00D10561521C082AE5D34460F0BDD2
:1008D0000246002092680A4200D001207047FEE7DD
:1008E000FEE7704730B50F23C27801780125F2B1D9
:1008F000144A126801F1E02102F4E062C2F5E062FC
:10090000120AC2F10404D3404278A24084781C4009
:100910001443220181F80024007800F01F018D406B
:100920004009800000F1E020C0F8005130BD01F026
:100930001F0085404809800000F1E020C0F8805188
:1009400030BD00000CED00E0024908430249086098
:10095000704700000000FA050CED00E0044A002991
:10096000916901D0014300E081439161704700002B
:100970000010024030B5204A5168204B11F00C01A4
:1009800003D0042901D0082901D0036012E0516886
:10099000536801F470114FF0020413F4803F04EB2C
:1009A000914102D053689B0301D5154B00E0134BD6
:1009B0005943016051680F2303EA1111114B5C5C2C
:1009C0000168E14041605468072505EA14241C5D74
:1009D00021FA04F48460546805EAD4241B5DD940EC
:1009E000C1605268032303EA9232064B1B1F9A5CD4
:1009F000B1FBF2F1016130BD0010024000127A003B
:100A000000093D00A00000200CB5002226480092FD
:100A10000192016841F4803101604FF4A0630168E4
:100A200001F4003101910099491C0091019911B91B
:100A300000999942F3D10168890333D501210191CD
:100A40001A490A6842F010020A600A6822F003029A
:100A50000A600A6842F002020A6041684160416827
:100A60004160416841F480614160416821F47C113A
:100A70004160416841F4E8114160016841F08071D2
:100A8000016001688901FCD5416821F003014160E2
:100A9000416841F0020141604168C1F381010229CE
:100AA000FAD10CBD01920CBD0010024000200240A2
:100AB0004FF0E0210428086903D020F00400086109
:100AC000704740F00400FAE710B501F0DBFE0128A2
:100AD00003D0BDE8104001F029BC10BD0F4810B58F
:100AE000016841F00101016041680D4A1140416017
:100AF00001680C4A11400160016821F48021016005
:100B0000416821F4FE0141604FF41F018160FFF74D
:100B10007BFF05494FF00060086010BD00100240E7
:100B20000000FFF8FFFFF6FE08ED00E010B5054CF1
:100B30000121204600F00BF82046BDE810400121BD
:100B400000F002B800040040C94301827047024629
:100B50000020138A92890B4202EA010202D0002A85
:100B600000D001207047000070B5154C40F22551AF
:100B7000204600F035F800280ED0204600F0BEF8E0
:100B8000104AC1B21088030406D444044FF0000395
:100B900006D50A2901D0138070BD40F400400DE055
:100BA0000D2909D0C0F30D04074D401C80B2295512
:100BB0001080C728EFD870BD40F48040108070BD11
:100BC0000038014096000020300100200029818972
:100BD00002D041F4005101E021F4005181817047BD
:100BE00070B501F01F0501260024C1F3421306FA77
:100BF00005F2012B0FD0022B0FD0838A4FEA11216F
:100C00000088134206FA01F600EA060001D000B19E
:100C10000124204670BD8389F0E7038AEEE710B512
:100C2000C1F3421301F01F040121A140012B07D0A1
:100C3000022B07D01430002A026805D00A4304E0D2
:100C40000C30F8E71030F6E78A43026010BD000070
:100C500030B50446008A85B00D464CF6FF71084059
:100C6000E98801432182A0894EF6F3110840A98842
:100C70002A8911436A8902431143A181A08A4FF650
:100C8000FF410840A9890143A1826846FFF772FE2F
:100C90001948844201D1039800E00298A18909040F
:100CA00000EBC00101EB0010296801D5490000E00C
:100CB0008900B0FBF1F06422B0FBF2F109010B09ED
:100CC0006FF018056B4300EB8300A3891D044FF000
:100CD000320306D503EBC000B0FBF2F000F00700D2
:100CE00005E003EB0010B0FBF2F000F00F0008434A
:100CF000208105B030BD0000003801408088C0F37D
:100D000008007047FEE7704710B50420FFF7D0FEDB
:100D100009480A490068B0FBF1F109480170012156
:100D200041804FF0E020016941F002010161016959
:100D300041F00101016110BD0000002000127A00A5
:100D40009200002070B5044601F09CFD01280CD0F3
:100D5000094D6888844203D3B4FBF0F001F0CAF86F
:100D60006888B4FBF0F100FB11444FF47A706043E3
:100D7000BDE8704000F002B89200002070B50B4A48
:100D80004FF0E025002112786C695043AB69AA69E5
:100D90009A42FCD002D2A3EB020302E0A4EB0206CB
:100DA0003344194413468142F1D370BD92000020B0
:100DB00004490A885206FCD5024AC1B2121D1180AC
:100DC000704700000038014008B501214420FFF7BA
:100DD000C5FD1820ADF8000048208DF803006946D5
:100DE0000648FFF727FD0120ADF8000028208DF808
:100DF000030069460248FFF71DFD08BD00180140C9
:100E0000000801402DE9F041254C264F264D0126D2
:100E100008B1267001E0207878B110212846FFF74C
:100E200057FD88B108212846FFF752FD60B1012126
:100E30003846FFF74DFD012806D010212846FFF760
:100E400047FD01281DD028E00A20FFF77BFF002086
:100E5000207010212846FFF73BFD58B10821284695
:100E6000FFF736FD48B101213846FFF731FD012873
:100E700005D012E00120BDE8F0810220FBE703204D
:100E8000F9E708212846FFF723FD012805D10121B4
:100E90003846FFF71DFD00B926700020EBE7000083
:100EA00090000020000801400018014010B54FF4E8
:100EB0004070FFF749FD4FF4E13000F059FEFFF7B5
:100EC00023FFFFF781FF00F003F8002010BD0000B2
:100ED0001CB500220121022001F03EFA104C2061D5
:100EE00008B110A000E015A0FFF706FA00220421C7
:100EF000012001F031FA606108B116A000E01DA0E8
:100F0000FFF7FAF906490120CDE90001002380220C
:100F100020A1234801F08AFCBDE81C4001F0FEB886
:100F2000140000206B65795F7175657565B6D3C176
:100F3000D0B4B4BDA8B3C9B9A60D0A006B65795F7A
:100F40007175657565B6D3C1D0B4B4BDA8CAA7B074
:100F5000DC0D0A006269675F646174615F717565C9
:100F60007565B6D3C1D0B4B4BDA8B3C9B9A60D0ACE
:100F7000000000006269675F646174615F7175659C
:100F80007565B6D3C1D0B4B4BDA8CAA7B0DC0D0A8C
:100F90000000000073746172745F7461736B000011
:100FA000751900082DE9F041204D0F460446EE6802
:100FB0002968002081F859002868001D00F028FEEB
:100FC00038B9286890F82C1001208840296981439D
:100FD0002961601C15D1A7B115492A68486890603D
:100FE0002B688268DA602A688368121D5A602A6852
:100FF000121D8260286841610868401C0860BDE8D5
:10100000F08128683444B4424460296805D2E86B12
:10101000BDE8F041091D00F01CBEA86B091D00F0E1
:1010200018FEA86A8442EAD2AC62E8E7B000002069
:10103000080500202DE9F041044600F02FFE354E52
:10104000B068401CB0603068334F10B1706930B385
:101050002BE03460B068012827D1002505EB85001E
:1010600007EB800000F0E7FD6D1C202DF6D32B4828
:1010700000F0E1FD2948143000F0DDFD274828305C
:1010800000F0D9FD25483C3000F0D5FD2348503014
:1010900000F0D1FD2148B0631430F06305E0306802
:1010A000E16AC06A884200D83460706A0121401C3D
:1010B00070626064E06A326981401143316100EB23
:1010C000800007EB80004068A0608168E160826872
:1010D000211D51608160E06A00EB800007EB800118
:1010E000616157F82010491C47F8201000F012FEEB
:1010F000706900280CD03068E16AC06A884207D263
:1011000007494FF080500860BFF34F8FBFF36F8FD8
:10111000BDE8F081B000002038020020B8040020B3
:1011200004ED00E010B500F0B9FD0E4C2068A0B948
:101130000D4800F080FD0C48143000F07CFD0A489A
:10114000E0601430206100221021052001F004F934
:10115000206010B105A100F071FEBDE8104000F064
:10116000D9BD0000F00000201C050020546D725114
:101170000000000030B4026C0B46002A0BD0C1689E
:101180001144C1608468A14201D30168C16030BCD0
:101190001846FFF757B930BC70472DE9F041856B11
:1011A000174604460026026C82B1C7B1E068FFF71B
:1011B00049F9E168206C091AE1602268914202D283
:1011C000A168081AE060022F16D017E02068A8B9BD
:1011D000A06801F00FFC06460020A0600EE06068E9
:1011E000FFF730F9216C606808446060A1688842AC
:1011F00004D32068606001E005B16D1E6D1CA5631D
:101200003046BDE8F08110B50446006B00F0B4FD37
:101210002046BDE8104000F0AFBD000010484FF47C
:101220002051420706D0C01D0D4920F00700411A89
:10123000C1F520510B4A00230144C2E900030839DB
:10124000183A21F0070111604B600B600B1AC0E9DE
:10125000001393604FF000405360506170470000EE
:10126000440500201C010020134E144DA6F52F77D5
:101270004FF08058DFF8489011E000F00FFDF06863
:10128000C468201D00F0C4FCA868401EA8606868FF
:10129000401E686000F03EFD2046FFF7B4FF68681E
:1012A0000028EAD138680128F9D9C9F80080BFF3CD
:1012B0004F8FBFF36F8FF2E7F4040020B0000020DF
:1012C00004ED00E02DE9F05FDDE90B940E461746D2
:1012D000834691009A460A9DA522206BFFF7F7F8F6
:1012E0006FF00301206B01EB8701084420F0070831
:1012F0005FEA487005D04FF458721FA123A0FEF793
:10130000FBFF002766B100202218315C82F8341000
:10131000315C11B1401C1028F6D384F8437001E011
:1013200084F83470202D06D340F2973212A117A012
:10133000FEF7E2FF1F25E562C4E91357201D00F008
:1013400085FC04F1180000F081FC2461C5F1200047
:101350006462A061676584F8587084F859705246D9
:101360005946404600F0F4FA2060B9F1000F01D070
:10137000C9F80040BDE8F09F2E2E5C4672656552AC
:10138000544F535C7461736B732E63004572726FBC
:10139000723A2025732C2025640D0A0030B51149BE
:1013A00000E011460A688242FBD34B685C18844215
:1013B00003D1406818444860084643681C189442AA
:1013C00009D1084C183C2468A24209D052681A443A
:1013D00042600A6812680260814200D0086030BD35
:1013E0000460F9E71C01002070B5002441600B4D3A
:1013F0000061914206D8D11A8269914206D2011D3C
:10140000286907E09A4203D2994201D3012403E0FC
:10141000011DE86800F01DFC204670BDF0000020B2
:1014200010B5044600F03AFCA06B20B1002400F097
:1014300071FC204610BD0124F9E70000F1B50098C9
:101440000026846C2CB940F6D43219A11DA0FEF7F9
:1014500053FFA06BE16B884205D340F6D53214A14F
:1014600018A0FEF749FFA06BE16B88421ED294F9E9
:101470004550002269462046FFF78FFE0646681C4D
:1014800002D07F2D09D00EE0606A78B104F124000B
:1014900001F01AFB50B1012608E040F6F53204A134
:1014A00008A0FEF729FF6D1C84F845503046F8BDB2
:1014B0002E2E5C4672656552544F535C717565758E
:1014C000652E63004572726F723A2025732C2025B9
:1014D000640D0A0070B506460D480D46C068C06828
:1014E000C468201D00F094FB94F82800410705D53E
:1014F0002A463146204600F0D1F803E000F0FE0015
:1015000084F828002046216ABDE8704008470000A2
:10151000F000002070B586B03A4E69E000980028CF
:1015200006DADDE90201019A9047009800285FDBA6
:10153000029C606910B1201D00F06AFB04A800F055
:10154000CFF8054600980A2852D2DFE800F051058E
:1015500005282E450505282E94F828002A4640F037
:10156000010084F828000198A1690346014420463F
:10157000FFF73AFF78B394F82800410707D50198A0
:10158000A1692A460144204600F088F803E000F0F3
:10159000FE0084F82800216A2046884728E014F8D5
:1015A000280F00F0FE00207022E094F8280040F0A0
:1015B000010084F828000198A06128B940F259324E
:1015C00011A117A0FEF798FEA0692B4641191A46F3
:1015D0002046FFF709FF0BE094F82800810703D4A9
:1015E000204600F0C9FB03E000F0FE0084F828006C
:1015F00000226946306801F01DF800288ED106B03F
:1016000070BD0000F00000202E2E5C467265655211
:10161000544F535C74696D6572732E630000000053
:101620004572726F723A2025732C2025640D0A00D2
:10163000F8B50D46064600F0B9FD684600F050F8D2
:101640000446009810B101F0BDFAF8BD1148ADB1E3
:1016500001690968D9B10025311B2A46006800F0EC
:1016600027FC01F0AFFA0028EFD10B494FF0805072
:101670000860BFF34F8FBFF36F8FF8BDA642EBD862
:1016800001F0A0FA21463046FFF724FFF8BD0125FE
:10169000E2E70000F000002004ED00E070B516461F
:1016A0000C46054604E0A869296A04442846884790
:1016B000A8692346011932462846FFF795FE0028FF
:1016C000F1D170BD0548816B096821B1816BC96892
:1016D0000968816270474FF0FF31FAE7B0000020DF
:1016E0002DE9F041064601F0DBF80E4D0446A868EE
:1016F000844214D24FF0FF3704E0C06839460068D6
:10170000FFF7E8FEE86801680029F6D12969C5E914
:101710000310012030602046AC60BDE8F08100205D
:10172000F8E70000F000002008484068401C04D0A2
:10173000CE2207A111A0FEF7DFFD502080F3118813
:10174000BFF34F8FBFF36F8FFEE70000240100202F
:101750002E2E5C4672656552544F535C706F7274E6
:1017600061626C655C525644535C41524D5F434D1F
:10177000335C706F72742E63000000004572726FEC
:10178000723A2025732C2025640D0A00084CE0686D
:10179000016839B1002139B10020FFF749FFFFF797
:1017A000B9FEF4E70121F6E7C0680068F5E700003C
:1017B000F00000202DE9F041044600F06FFA94F9A2
:1017C000455004F124060FE0A06C18B12046FFF745
:1017D00035FE04E0606A48B1304601F075F908B1A1
:1017E00000F030FC6D1E6DB2002DEDDC4FF0FF36C9
:1017F00084F8456000F08EFA00F050FA94F94450F5
:1018000004F1100709E0206948B1384601F05CF99D
:1018100008B100F017FC6D1E6DB2002DF3DC84F8EA
:101820004460BDE8F04100F075BA00002DE9F041D8
:101830000446002600F0BAFC364F386808B9FFF7B6
:10184000EDFC7869044258D1002C56D004F108050B
:10185000A54252D968070ED005F00700C0F1080074
:101860002844A84249D90546400704D09C222AA111
:1018700033A0FEF741FD002D3FD0786885423CD86B
:10188000244918310846046801E02146044660688E
:10189000A84202D220680028F7D13868B8468442AE
:1018A0002BD00E682068086060680836401B10283E
:1018B0000ED96719780704D0CF2217A120A0FEF710
:1018C0001BFD6068401B786038466560FFF766FD69
:1018D0006168D8F804004246401AC8F80400D8F8F5
:1018E0000830984200D29060506901430020C4E95A
:1018F0000001D068401CC8F80C0001F063F97007C3
:1019000005D04FF4887204A10DA0FEF7F5FC304617
:10191000BDE8F081040100202E2E5C467265655200
:10192000544F535C706F727461626C655C4D656D91
:101930004D616E675C686561705F342E6300000006
:101940004572726F723A2025732C2025640D0A00AF
:1019500010B5031F4FF080741C601B1F21F00101A4
:101960001960191F024B0B60143940380A6010BD12
:10197000291700081CB500F091F913490220CDE9A0
:1019800000010023802211A1124800F04FFF0E49F0
:101990000320091DCDE90001002380220EA110487B
:1019A00000F044FF084904200831CDE9000100237C
:1019B00080220CA10D4800F039FF002000F0D0FA81
:1019C000BDE81C4000F0A6B9180000207461736BDC
:1019D00031000000F11900087461736B32000000DF
:1019E0008D1A00087461736B33000000FD1A000843
:1019F0001CB500208DF8000015484FF0FF35A0F110
:101A0000180401900020FFF7FDF98DF8000001286F
:101A100004D0022802D003280AD014E000232A466A
:101A20006946206900F042FD01280CD009A008E0B9
:101A300000232A4601A9606900F038FD012802D080
:101A40000AA0FEF759FC0A2000F054FADAE7000079
:101A50002C0000206B65795F7175657565B6D3C123
:101A6000D0C8EBB6D3CAA7B0DC0D0A006269675FC5
:101A7000646174615F7175657565B6D3C1D0C8EB7B
:101A8000B6D3CAA7B0DC0D0A0000000008B50020DC
:101A90000A4C8DF80000451E2A466946206900F070
:101AA000C9FD012803D006A0FEF726FCF4E79DF847
:101AB000001009A0FEF720FCEEE700001400002053
:101AC0006B65795F7175657565B6D3C1D0B3F6B6D0
:101AD000D3CAA7B0DC0D0A006B65795F71756575B7
:101AE00065B6D3C1D0B3F6B6D3B3C9B9A6A3ACCA51
:101AF000FDBEDDA3BA25640D0A00000008B5094C3F
:101B00004FF0FF352A466946606900F093FD0128D1
:101B100003D005A0FEF7F0FBF4E70BA00099FEF759
:101B2000EBFBEFE7140000206269675F646174619A
:101B30005F7175657565B6D3C1D0B3F6B6D3CAA764
:101B4000B0DC0D0A000000006269675F64617461C7
:101B50005F7175657565B6D3C1D0B3F6B6D3B3C939
:101B6000B9A6A3ACCAFDBEDDA3BA25730D0A000059
:101B700070B5054686B0012144F20400FEF7EEFE82
:101B80004FF40070ADF8100003248DF812401820B7
:101B90001D4E8DF8130004A93046FEF74BFE30159C
:101BA000ADF8100004208DF8130004A93046FEF7AC
:101BB00041FE25208DF814008DF815408DF8164053
:101BC00001208DF8170005A8FEF78CFE0020ADF867
:101BD0000400ADF80600ADF80800ADF80C000C20CC
:101BE0000A4CADF80A00009569462046FFF730F828
:101BF000012240F225512046FFF711F8012120462D
:101C0000FEF7E4FF06B070BD000801400038014057
:101C1000D0E9013201699A60D0E901235A604A682B
:101C2000824201D182684A60002202610868401E37
:101C300008600868704700F108014FF0FF32C0E902
:101C40000112C16001610021016070470021016142
:101C5000704730B50C68621C02D000F1080202E047
:101C6000026904E01A4653681D68A542FAD9536810
:101C70004B6099608A60516008610168491C01608D
:101C800030BD42684A6093688B6093685960916088
:101C900008610168491C016070470000502080F312
:101CA0001188BFF34F8FBFF36F8F09494868401CFD
:101CB000486001280AD10748006810F0FF0F05D0DE
:101CC00040F2731204A10FA0FEF716BB704700008C
:101CD0002401002004ED00E02E2E5C467265655262
:101CE000544F535C706F727461626C655C52564401
:101CF000535C41524D5F434D335C706F72742E6381
:101D0000000000004572726F723A2025732C202566
:101D1000640D0A0010B5084C606828B94FF4BD7214
:101D200006A111A0FEF7E8FA6068401E606001D1CC
:101D300080F3118810BD0000240100202E2E5C4687
:101D400072656552544F535C706F727461626C655A
:101D50005C525644535C41524D5F434D335C706F4F
:101D600072742E63000000004572726F723A202573
:101D7000732C2025640D0A0070B500282DD0174D56
:101D8000A0F1080460686969084205D14FF49272B5
:101D900013A11DA0FEF7B0FA206828B140F2251269
:101DA0000FA119A0FEF7A8FA60686969084214D06B
:101DB0002268002A11D18843606000F0F7F960685A
:101DC0006968084468602046FFF7E8FA2869401C03
:101DD0002861BDE8704000F0F5BE70BD0401002030
:101DE0002E2E5C4672656552544F535C706F727450
:101DF00061626C655C4D656D4D616E675C686561C7
:101E0000705F342E630000004572726F723A2025B5
:101E1000732C2025640D0A004FF0E02000210161A1
:101E2000816105494FF4FA520968B1FBF2F1491E8C
:101E300041610321016170470000002070B50E462A
:101E400005004FF0000405D140F6C9220EA113A0F1
:101E5000FEF752FA002E15D01449002201EBC20001
:101E60004368AB4202D101EBC20407E01CB951F850
:101E7000323003B90446521C082AEFD3002C01D09B
:101E8000C4E9006570BD00002E2E5C467265655287
:101E9000544F535C71756575652E63004572726FA2
:101EA000723A2025732C2025640D0A00F8010020C9
:101EB00070B515460E460446FFF7F0FE94F944103F
:101EC0000020491C01D184F8440094F94510491CB4
:101ED00001D184F84500FFF71DFFA06B28B92A4601
:101EE000314604F1240000F0DDF82046BDE87040E2
:101EF000FFF760BC10B5040012D00E49496B29B140
:101F000040F249520CA111A0FEF7F6F900F04EF98B
:101F100000212046FFF746F800F054FE002807D1C4
:101F20000E494FF080500860BFF34F8FBFF36F8FA3
:101F300010BD0000B00000202E2E5C467265655278
:101F4000544F535C7461736B732E63004572726FF0
:101F5000723A2025732C2025640D0A0004ED00E060
:101F600070B50446FFF79AFE254D04B92C68201D74
:101F7000FFF74EFE58B9E06A224A00EB800152F8A2
:101F8000211021B901218140286988432861A06A74
:101F900018B104F11800FFF73BFE686A401C686244
:101FA0002868844207D1211D1748FFF76AFE686838
:101FB000401C686004E0A868401EA860FFF782FB30
:101FC000FFF7A8FE2868844202D02046FFF71BF9DD
:101FD0006869002812D0286884420FD1686B28B144
:101FE00040F2DC4209A10EA0FEF786F910494FF03D
:101FF00080500860BFF34F8FBFF36F8F70BD00003C
:10200000B000002038020020F40400202E2E5C4690
:1020100072656552544F535C7461736B732E630029
:102020004572726F723A2025732C2025640D0A00C8
:1020300004ED00E002490A6A0260C9684160704725
:10204000B000002001490120C8617047B0000020A5
:1020500070B50D46040005D140F61C4207A10CA046
:10206000FEF74AF90E48016820461831FFF7F1FDE6
:102070002846BDE870400121FEF794BF2E2E5C4635
:1020800072656552544F535C7461736B732E6300B9
:102090004572726F723A2025732C2025640D0A0058
:1020A000B000002070B515460E46040005D140F67C
:1020B000524210A114A0FEF71FF9174960680A6880
:1020C000D06182680B681A620A68836818325A60A5
:1020D0000A6818328260086884622068401C2060A8
:1020E0000DB14FF0FF3629463046BDE87040FEF78F
:1020F00059BF00002E2E5C4672656552544F535CEA
:102100007461736B732E63004572726F723A20258F
:10211000732C2025640D0A00B00000207CB5164801
:102120000025CDE900502B46802214A1154800F06F
:102130007DFB114C2C3C012803D100F0E9FD012866
:1021400002D0401C10D015E0502080F31188BFF35E
:102150004F8FBFF36F8F4FF0FF30A062012060619F
:10216000E56000F069F805E04FF4046206A10BA0F9
:10217000FEF7C2F8206B7CBDDC00002049444C45D2
:1021800000000000691200082E2E5C467265655240
:10219000544F535C7461736B732E63004572726F9E
:1021A000723A2025732C2025640D0A000248416BE9
:1021B000491C416370470000B000002070B5134D0A
:1021C000686B10B10120E86170BD0020E8612869EA
:1021D0000F4EB0FA80F0C0F11F0000EB800456F8FB
:1021E000240028B940F602420AA10FA0FEF784F8A5
:1021F00006EB840000F108024168496841609142A1
:1022000001D149684160C868286070BDB0000020F5
:10221000380200202E2E5C4672656552544F535C86
:102220007461736B732E63004572726F723A20256E
:10223000732C2025640D0A007CB52A4D2878019066
:10224000FF20287028788DF800009DF800009DF888
:10225000001000F0F000884205D040F21F1222A1C9
:102260002CA0FEF749F89DF800002E4C00F050001D
:1022700020700720A06006E0401EA0609DF80000CE
:1022800040008DF800009DF800000006A068F3D41F
:1022900003280ED040F2331213A11EA0FEF72CF833
:1022A000A068032805D04FF49E720FA119A0FEF775
:1022B00023F8207A000200F4E060A0600198287002
:1022C0001948016841F470010160016841F07041F2
:1022D0000160FFF7A1FD00206060FDF7B1FF002065
:1022E0007CBD000000E400E02E2E5C467265655265
:1022F000544F535C706F727461626C655C525644EB
:10230000535C41524D5F434D335C706F72742E636A
:10231000000000004572726F723A2025732C202550
:10232000640D0A002401002020ED00E010B55020CB
:1023300080F31188BFF34F8FBFF36F8F00F0B6FAB1
:1023400018B104494FF080500860002080F31188D4
:1023500010BD000004ED00E02DE9F04117460E46E7
:1023600005004FF000041FD0601EB0FBF5F0B04236
:102370001AD305FB06F010F1550F15D85430FFF7AE
:1023800055FA040016D004F154005EB12060C4E98F
:102390000F562046012100F023F884F850700021E8
:1023A000A16407E02460F2E74FF4E37203A108A000
:1023B000FDF7A2FF2046BDE8F08100002E2E5C460E
:1023C00072656552544F535C71756575652E630077
:1023D0004572726F723A2025732C2025640D0A0015
:1023E0002DE9F0410E4604004FF001052AD0E06BC4
:1023F00070B3AF1EB7FBF0F1206C814228D3FFF71A
:102400004DFCD4E90F20216802FB0011A1600021DE
:10241000A163216861600A46D4E90F01401E00FBF8
:1024200001212046E16000F8447F477004F110006C
:10243000C6B1FFF700FC04F12400FFF7FCFBFFF737
:1024400069FC0CE04FF488720EA113A0FDF754FF55
:10245000002540F245120BA10FA0FDF74DFF2846C5
:10246000BDE8F08121690029E9D000F02DFB0028AA
:10247000E5D00D494FF080500860BFF34F8FBFF398
:102480006F8FDCE72E2E5C4672656552544F535CAD
:1024900071756575652E63004572726F723A2025FD
:1024A000732C2025640D0A0004ED00E02DE9FF4F98
:1024B00083B01F468B4604004FF0000605D140F262
:1024C0002E3252A156A0FDF717FFBBF1000F07D126
:1024D000206C28B140F22F324CA151A0FDF70CFF27
:1024E000022F08D1E06B012805D04FF44C7247A1B0
:1024F0004BA0FDF701FF00F0C5F938B9059828B1E8
:1025000040F2333241A146A0FDF7F6FE4FF0000A3B
:102510004FF08058DFF81891FFF7C0FBA06BE16B1C
:10252000884205D3022F03D0059818B32EB328E0B4
:10253000A56B3A4659462046FEF72FFEA16C31B1F5
:10254000022F00D185B92046FEF778FF05E0616AC9
:1025500019B104F1240000F0B7FA28B1C9F80080DD
:10256000BFF34F8FBFF36F8FFFF7D4FB012007B08E
:10257000BDE8F08FFFF7CEFB21E06846FFF75AFD7C
:102580000126FFF7C7FBFFF711FEFFF787FB94F962
:102590004400401C01D184F844A094F94500401C3B
:1025A00001D184F845A0FFF7B5FB05A9684600F006
:1025B000E9F830B12046FFF7FDF800F003FB0020FA
:1025C000D5E7FFF76BFBA06BE16B884201D10125DA
:1025D00000E00025FFF79EFB95B104F1100005997E
:1025E000FFF736FD2046FFF7E5F800F0EBFA00288C
:1025F00092D1C9F80080BFF34F8FBFF36F8F8BE785
:102600002046FFF7D7F800F0DDFA85E72E2E5C466E
:1026100072656552544F535C71756575652E630024
:102620004572726F723A2025732C2025640D0A00C2
:1026300004ED00E02DE9F74783B08A4604004FF02F
:10264000000605D140F2515244A149A0FDF754FEC5
:10265000BAF1000F07D1206C28B140F255523FA1CA
:1026600043A0FDF749FE00F00DF938B9059828B1EF
:1026700040F25A5239A13EA0FDF73EFE00274FF02E
:102680008058DFF8FC90FFF709FBA56BC5B15146F8
:102690002046FEF76FFD6D1EA563206950B104F161
:1026A000100000F011FA28B1C9F80080BFF34F8F75
:1026B000BFF36F8FFFF72EFB012006B0BDE8F08758
:1026C000059808B11EB106E0FFF724FB27E0684635
:1026D000FFF7B0FC0126FFF71DFBFFF767FDFFF7D3
:1026E000DDFA94F94400401C01D184F8447094F957
:1026F0004500401C01D184F84570FFF70BFB05A98C
:10270000684600F03FF8002820460AD0FFF752F84C
:1027100000F058FA2046FEF783FE0028B3D00020D0
:10272000CBE7FEF77DFE90B104F124000599FFF799
:102730008FFC2046FFF73EF800F044FA0028A2D1B3
:10274000C9F80080BFF34F8FBFF36F8F9BE7204620
:10275000FFF730F800F036FA95E700002E2E5C46C1
:1027600072656552544F535C71756575652E6300D3
:102770004572726F723A2025732C2025640D0A0071
:1027800004ED00E02DE9F0410D46040005D140F6CE
:10279000FD421CA120A0FDF7AFFD2DB940F6FE4281
:1027A00018A11DA0FDF7A8FDFFF778FA1E4EF168ED
:1027B00063683068CA1A002790F8590018B1306869
:1027C00080F8597018E02868B0F1FF3F09D0D4F8BC
:1027D00000C0366AB44506D08B4204D801242F606D
:1027E0000BE0002409E0904205D9801A28602046B9
:1027F000FFF720FCF5E72F600124FFF78BFA204656
:10280000BDE8F0812E2E5C4672656552544F535CD4
:102810007461736B732E63004572726F723A202578
:10282000732C2025640D0A00B00000202DE9FF5F05
:102830008346DDE90E87994616468A469000FEF7E4
:10284000F5FF05001AD05C20FEF7F0FF040012D05F
:1028500025630021CDE90241CDE900874B46324690
:1028600051465846FEF72EFD2046FEF7E3FB0120B9
:1028700004B0BDE8F09F2846FFF77EFA4FF0FF3026
:10288000F6E700000548416919B1406B18B1002016
:10289000704701207047022070470000B000002000
:1028A0000148C06870470000B00000202DE9F041E9
:1028B000454E0025706B28B1B069401CB0612846B8
:1028C000BDE8F081F468641CF46011D1B06B00685D
:1028D00028B140F6C7223DA141A0FDF70DFDB06B28
:1028E000F16BB163F063306A401C3062FEF7EAFEC0
:1028F000B06ADFF8FCE084420BD34FF0000CB06B01
:102900000068A0B1B06BC068C1684868844211D249
:10291000B0623068C06A00EB80005EF820000128D9
:1029200000D90125F0690028C9D00125C7E74FF07B
:10293000FF30EDE7D1E9023248699A60D1E902231C
:102940005A6043680A1D934201D1CB684360C1F8C5
:1029500014C003685B1E0360886A88B1D1E9073739
:102960009F60D1E907377B60476801F118039F42F8
:1029700001D10B6A4360C1F828C003685B1E036085
:10298000C86A0123376983403B43336100EB800011
:102990000EEB8000406888608368CB6083685A6073
:1029A0008260C86A00EB80000EEB80024A615EF82C
:1029B0002020521C4EF82020C86A3168C96A88421B
:1029C0009DD301259BE70000B00000202E2E5C4621
:1029D00072656552544F535C7461736B732E630060
:1029E0004572726F723A2025732C2025640D0A00FF
:1029F0003802002070B504004FF000064BD0274D80
:102A00002868844205D041F24F0225A129A0FDF794
:102A100073FC206D28B941F2500221A125A0FDF7D9
:102A20006BFC206D401E2065E26CE16A914232D061
:102A300088BB201DFFF7ECF8012130B994F82C0079
:102A40002A6901FA00F082432A61E06CE062C0F179
:102A50002000A061E06A2A69814011432961194A76
:102A600000EB800002EB80004068A0608168E160BC
:102A70008368211D59608160E06A00EB800002EBF1
:102A800080006061E06A00EB800052F82010491C71
:102A900042F820100126304670BD0000B000002032
:102AA0002E2E5C4672656552544F535C7461736B95
:102AB000732E63004572726F723A2025732C2025A5
:102AC000640D0A003802002070B5C068C4682CB9D3
:102AD00040F682422FA134A0FDF70EFCD4E9072175
:102AE000A06A9160D4E907125160426804F11801AC
:102AF0008A4201D1226A42600025A5620268521E04
:102B000002602D4A506B012398B12C4D6868E0613A
:102B100086682662866871608160A5622868401CAC
:102B20002860E06A1168C96A884231D90120D361FE
:102B300070BDD4E902616069B160D4E902167160C8
:102B40004668211D8E4201D1E668466065610568D0
:102B50006D1E0560E06A166903FA00F535431561DC
:102B6000174D00EB800005EB80004068A060866890
:102B7000E660866871608160E06A00EB800005EBCA
:102B80008001616155F82010491C45F82010C8E704
:102B9000002070BD2E2E5C4672656552544F535C0A
:102BA0007461736B732E63004572726F723A2025E5
:102BB000732C2025640D0A00B0000020E0040020E2
:102BC000380200202DE9F047444D0024A146686BEF
:102BD00028B940F6B30242A146A0FDF78DFBFFF7EE
:102BE0005DF8686B401E6863686B002870D1A86848
:102BF000DFF810C100264FF00108E8BB68E0DCF800
:102C00000C00C468D4E90721A06A9160D4E90712D6
:102C10005160426804F118018A4201D1216A416081
:102C2000A6620168491E0160D4E9022160699160D1
:102C3000D4E9021251604268211D8A4201D1E26842
:102C4000426066610268521E0260E06A2F69434674
:102C500008FA00F23A432A612B4A00EB800002EBAB
:102C600080004068A0608768E7608768796081605D
:102C7000E06A00EB800000E00DE002EB80016161A2
:102C800052F82010491C42F82010E06A2968C96AED
:102C9000884200D3EB61DCF800000028AFD10CB112
:102CA000FEF710FDAC693CB14746FFF7FFFD00B1F0
:102CB000EF61641EF9D1AE61E86948B113494FF084
:102CC00080504FF001090860BFF34F8FBFF36F8F43
:102CD000FFF720F84846BDE8F0870000B00000206C
:102CE0002E2E5C4672656552544F535C7461736B53
:102CF000732E63004572726F723A2025732C202563
:102D0000640D0A00E00400203802002004ED00E019
:102D10001CB50024FEF706FA0C48006868B10B49A0
:102D20001F20091DCDE9000100234FF4807208A186
:102D30000948FFF77BFD040005D140F2191207A1F5
:102D40000CA0FDF7D9FA20461CBD0000F0000020C1
:102D5000546D7220537663008D1700082E2E5C464A
:102D600072656552544F535C74696D6572732E635E
:102D7000000000004572726F723A2025732C2025E6
:102D8000640D0A00A42D000800000020300100009E
:102D90006C010008E82D00083001002078320000A6
:102DA000C80100081184A24A0400091801020304A2
:102DB000060708092817CED2CAC7D2BBB8F6B4F3A3
:102DC000CAFDD7E9A3ACB4F3B4F3B5C40C044736D9
:102DD0003636B2016D0204060898091E9C011802DD
:082DE000471F1AAA014100007F
:04000005080002B538
:00000001FF
