:020000040800F2
:100000004033002081020008D3090008CF0900080E
:10001000D10900084D080008390F00080000000051
:10002000000000000000000000000000E9010008DE
:1000300065080008000000002D020008D10B000830
:100040009B0200089B0200089B0200089B0200081C
:100050009B0200089B020008690800089B02000838
:100060009B020008A5080008DD0800089B020008A4
:100070009B0200089B0200089B0200089B020008EC
:100080009B0200089B0200089B0200089B020008DC
:100090009B0200089B0200089B0200089B020008CC
:1000A0009B0200089B0200089B0200089B020008BC
:1000B0009B020008350C00089B0200089B02000808
:1000C0009B0200089B0200089B0200089B0200089C
:1000D0009B0200089D0D00089B0200089B0200087F
:1000E0009B0200089B0200089B0200089B0200087C
:1000F0009B0200089B0200089B0200089B0200086C
:100100009B0200089B0200089B0200089B0200085B
:100110009B0200089B0200089B0200089B0200084B
:100120009B0200089B0200089B0200089B0200083B
:1001300000F002F800F048F80AA090E8000C8244B1
:100140008344AAF10107DA4501D100F03DF8AFF28E
:10015000090EBAE80F0013F0010F18BFFB1A43F0A5
:10016000010318477831000098310000103A24BF8D
:1001700078C878C1FAD8520724BF30C830C144BF0C
:1001800004680C607047000000230024002500264E
:10019000103A28BF78C1FBD8520728BF30C148BFEA
:1001A0000B607047642900F0D780752900F0D48077
:1001B000632900F0A482732900F0A982002070470F
:1001C0001FB51FBD10B510BD00F010FB1146FFF7A5
:1001D000F7FF00F0FBFF00F02EFB03B4FFF7F2FF88
:1001E00003BC00F0AAFE0000224B19680868B0E8C2
:1001F000F00F80F30988BFF36F8F4FF0000080F39A
:1002000011884EF00D0E704700000000064800688F
:10021000006880F3088862B661B6BFF34F8FBFF302
:100220006F8F00DF00BF00BF08ED00E0EFF3098033
:10023000BFF36F8F0F4B1A6820E9F00F106008B5FD
:100240004FF0500080F31188BFF34F8FBFF36F8FD3
:1002500002F012FB4FF0000080F31188BDE8084067
:1002600019680868B0E8F00F80F30988BFF36F8F52
:10027000704700BF44000020EFF305807047000086
:100280000948804709480047FEE7FEE7FEE7FEE72A
:10029000FEE7FEE7FEE7FEE7FEE7FEE70448054966
:1002A000054A064B70470000E50B000831010008C5
:1002B000402D002040330020402F0020402F002000
:1002C000704700000FB4044910B503AA029800F06B
:1002D00023FA10BC5DF814FB2C0000200FB41CB5F1
:1002E000074B06AA7B4469460090059800F0E5F9A3
:1002F0000020694600F0F4F91CBC5DF814FB000016
:10030000F903000070B50C460546012A05D028788F
:10031000800600D5EA69002302E0012305E05B1CAA
:10032000934202D2E05C0028F9D1A869E618C01A0D
:10033000A861286A184428622846AFF3008004E0C8
:10034000D5E9012114F8010B9047B442F8D32846AF
:10035000AFF3008070BD00002DE9F0410646002497
:1003600010687529314616A510D0AFF3008000281B
:1003700002DA404213A507E031688A0701D512A5C9
:1003800002E0490704D511A5012401E0AFF3008084
:1003900000210A2206F1240709E0B0FBF2FCB0FBC1
:1003A000F2F302FB1C00303078541846491C002838
:1003B000F3D123462A463046BDE8F04100F01FB98C
:1003C000000000002D0000002B00000020000000B5
:1003D0002DE9F0410F460546002028622846E968CD
:1003E000884770B3252805D0D5E901219047286AB0
:1003F000401CF2E7E9682846002688476C28044636
:100400000AD0682C08D04C2C35D06A2C31D0742CF2
:1004100031D07A2C2FD016E0E96806462846884766
:10042000B042044608D16C2E23D04FF48066284693
:10043000E9688847044606E06C2E03D04FF48076C6
:1004400001E01EE04026E4B1A4F14100192802D8E1
:10045000203446F400663A46214628462E60FFF7CF
:10046000A1FE60B1012808D0FF1D27F0070708375B
:10047000B4E78026DBE70026D9E73F1DAEE720463C
:10048000B2E7286ABDE8F08140EA0103024630B5D0
:100490009B0710D14FF0013400E008C208C91D1BB2
:1004A0009D4315EAC41FF8D013F0FF0102F8011BA9
:1004B0000DD01B0AF8E711F8013B002B02F8013BB5
:1004C00005D011F8013B002B02F8013BF3D130BD00
:1004D00010B5431C02E010F8011B71B18107FAD17D
:1004E0004FF0013202C88C1A8C4314EAC211F9D0C1
:1004F000C01A0A0603D0C01E10BDC01A10BD0A04DF
:1005000001D0801E10BD0902FCD0401E10BD032A80
:1005100040F2308010F0030C00F0158011F8013B20
:10052000BCF1020F624498BF11F801CB00F8013B07
:1005300038BF11F8013BA2F1040298BF00F801CBCB
:1005400038BF00F8013B11F0030300F0F780083AD0
:10055000C0F0088051F8043B083A51F804CBA0E8F9
:100560000810F5E7121D5CBF51F8043B40F8043B4E
:10057000AFF30080D20724BF11F8013B11F801CB83
:1005800048BF11F8012B24BF00F8013B00F801CB54
:1005900048BF00F8012B704702F0FF0343EA032233
:1005A00042EA024200F0FEB84FF0000200B51346E6
:1005B00094469646203922BFA0E80C50A0E80C5083
:1005C000B1F12001BFF4F7AF090728BFA0E80C5034
:1005D00048BF0CC05DF804EB890028BF40F8042B2D
:1005E00008BF704748BF20F8022B11F0804F18BF9A
:1005F00000F8012B704770477047704770472DE92E
:10060000F0470D4699469246044600F124080168D9
:10061000880604D5E06921F01001216000E0012086
:10062000A84201DD471B00E00027A1697A1902EB0F
:100630000900081AA0612078C00602D42046AFF352
:100640000080002608E0D4E901211AF8060090474E
:10065000206A401C761C20624E45F4DB2078C006E0
:100660000AD52046AFF3008006E0D4E9012130200E
:100670009047206A401C2062381EA7F10107F4DC75
:1006800007E0D4E9012118F805009047206A401CD2
:100690002062281EA5F10105F3DC2046AFF300809F
:1006A0002078000602D50220BDE8F0870120FBE794
:1006B00001694A1C02610878704700B58FB0CDE926
:1006C00001310021059105497944CDE90310114616
:1006D0006846FFF77DFE0FB000BD0000E5FFFFFF9D
:1006E0000A6802F8010B0A60704710B5436913B13C
:1006F000AFF3008001E0FFF705FE012010BD127886
:1007000000F124010A7000224A700122EDE711680D
:100710004FF0FF32E9E70000074B70B50D467B4410
:10072000FFF7CBFF0446284600F05CF810B14FF00D
:10073000FF3070BD204670BD5F09000010B5203A43
:10074000C0F00B80B1E81850203AA0E81850B1E88A
:100750001850A0E81850BFF4F5AF5FEA027C24BF40
:10076000B1E81850A0E8185044BF18C918C0BDE837
:1007700010405FEA827C24BF51F8043B40F8043B00
:1007800008BF7047D20728BF31F8023B48BF11F8B5
:10079000012B28BF20F8023B48BF00F8012B70470F
:1007A0004FF000020429C0F0128010F0030C3FF457
:1007B000FDAECCF1040CBCF1020F18BF00F8012B08
:1007C000A8BF20F8022BA1EB0C01FFF7EFBE5FEAF8
:1007D000C17C24BF00F8012B00F8012B48BF00F8B2
:1007E000012B7047007B00F080007047754600F0D9
:1007F00029F8AE4605006946534620F007008546B5
:1008000018B020B5FFF74AFDBDE820404FF00006C4
:100810004FF000074FF000084FF0000B21F00701E8
:10082000AC46ACE8C009ACE8C009ACE8C009ACE82B
:10083000C0098D4670470446AFF300802046FFF79D
:10084000CCFC000000487047E02C0020FEE70000D0
:100850000349002008604721312000F001BA000060
:10086000200000207047000038B500200C4C00909C
:100870000121204600F0A2F801280BD142F21071AC
:1008800001E0421C009200988842FAD301212046E0
:1008900000F094F8BDE83840012000F03BB80000BB
:1008A0000008014038B500200B4C0090082120467C
:1008B00000F084F858B942F2107101E0421C009235
:1008C00000988842FAD30821204600F077F8BDE866
:1008D0003840082000F01EB80018014038B500204C
:1008E0000B4C00901021204600F068F858B942F2F5
:1008F000107101E0421C009200988842FAD3102146
:10090000204600F05BF8BDE83840102000F002B847
:1009100000180140014908607047000014040140BC
:10092000F0B5CC78002204F00F03E40601D58C78F2
:1009300023430C784FF00F0C14F0FF0F4FF0010E13
:100940001BD005680E880EFA02F42640A64210D18C
:1009500096000CFA06F725EA070703FA06F5CE78A3
:100960003D43282E02D0482E02D002E0446100E030
:100970000461521C082AE5D305600A88FF2A1CD9A5
:100980004468002202F108060EFA06F50E882E4091
:10099000AE420ED196000CFA06F7BC4303FA06F7F6
:1009A000CE783C43282E00D14561CE78482E00D128
:1009B0000561521C082AE5D34460F0BD02460020C0
:1009C00092680A4200D00120704701617047FEE73B
:1009D000FEE7704730B50F23C27801780125F2B1E8
:1009E000144A126801F1E02102F4E062C2F5E0620B
:1009F000120AC2F10404D3404278A24084781C4019
:100A00001443220181F80024007800F01F018D407A
:100A10004009800000F1E020C0F8005130BD01F035
:100A20001F0085404809800000F1E020C0F8805197
:100A300030BD00000CED00E00249084302490860A7
:100A4000704700000000FA050CED00E0044A0029A0
:100A5000D16901D0014300E08143D16170470000BA
:100A600000100240044A0029916901D0014300E0CE
:100A700081439161704700000010024030B5204A68
:100A80005168204B11F00C0103D0042901D0082932
:100A900001D0036012E05168536801F470114FF007
:100AA000020413F4803F04EB914102D053689B038E
:100AB00001D5154B00E0134B5943016051680F23DA
:100AC00003EA1111114B5C5C0168E140416054681C
:100AD000072505EA14241C5D21FA04F48460546897
:100AE00005EAD4241B5DD940C1605268032303EAA0
:100AF0009232064B1B1F9A5CB1FBF2F1016130BDD3
:100B00000010024000127A0000093D00340000206D
:100B10000CB50022264800920192016841F4803110
:100B200001604FF4A063016801F400310191009964
:100B3000491C0091019911B900999942F3D10168BA
:100B4000890333D5012101911A490A6842F0100244
:100B50000A600A6822F003020A600A6842F0020290
:100B60000A604168416041684160416841F48061C8
:100B70004160416821F47C114160416841F4E81111
:100B80004160016841F08071016001688901FCD514
:100B9000416821F003014160416841F00201416078
:100BA0004168C1F381010229FAD10CBD01920CBD4B
:100BB00000100240002002404FF0E02104280869A4
:100BC00003D020F004000861704740F00400FAE709
:100BD00010B502F003F9012803D0BDE8104001F080
:100BE00015BF10BD0F4810B5016841F0010101604B
:100BF00041680D4A1140416001680C4A1140016092
:100C0000016821F480210160416821F4FE01416006
:100C10004FF41F018160FFF77BFF05494FF0006033
:100C2000086010BD001002400000FFF8FFFFF6FE54
:100C300008ED00E010B5084C0121204600F04BF80B
:100C4000012803D105490A68521C0A602046BDE804
:100C50001040012100F032B80004004020000020C4
:100C60007FB50D46044601210220FFF7EFFEADF8E7
:100C70000440ADF8005000240F4DADF80640ADF82B
:100C800002406946284600F03BF8012211462846FA
:100C900000F02DF81D208DF80C0001218DF80D10AD
:100CA0008DF80E408DF80F1003A8FFF793FE012179
:100CB000284600F006F87FBD00040040C9430182C9
:100CC00070470029018802D041F0010101E021F0C4
:100CD00001010180704702460020138A92890B426D
:100CE00002EA010202D0002A00D001207047002A47
:100CF000828901D00A4300E08A4382817047000064
:100D000030B502881B4C1C4DA0420DD0A8420BD020
:100D1000B0F1804F08D0194B984205D0184B98423B
:100D200002D0184B984203D122F070034A881A432C
:100D3000154B984206D0154B984203D022F44073CD
:100D4000CA881A4302808A8882850A880285A0425E
:100D50000AD0A84208D00E4A904205D00D4A9042CF
:100D600002D00D4A904201D1097A01860121818287
:100D700030BD0000002C0140003401400004004060
:100D800000080040000C004000100040001400402B
:100D900000400140004401400048014070B5154C3E
:100DA00040F22551204600F035F800280ED02046AC
:100DB00000F0BEF8104AC1B21088030406D44404FF
:100DC0004FF0000306D50A2901D0138070BD40F40E
:100DD00000400DE00D2909D0C0F30D04074D401C63
:100DE00080B229551080C728EFD870BD40F48040EC
:100DF000108070BD003801402A000020CC00002087
:100E00000029818902D041F4005101E021F4005110
:100E10008181704770B501F01F0501260024C1F3E0
:100E2000421306FA05F2012B0FD0022B0FD0838A52
:100E30004FEA11210088134206FA01F600EA060083
:100E400001D000B10124204670BD8389F0E7038AF8
:100E5000EEE710B5C1F3421301F01F040121A140D8
:100E6000012B07D0022B07D01430002A026805D0CE
:100E70000A4304E00C30F8E71030F6E78A430260DA
:100E800010BD000030B50446008A85B00D464CF612
:100E9000FF710840E98801432182A0894EF6F311D1
:100EA0000840A9882A8911436A8902431143A18114
:100EB000A08A4FF6FF410840A9890143A1826846F4
:100EC000FFF7DCFD1948844201D1039800E0029845
:100ED000A189090400EBC00101EB0010296801D5CC
:100EE000490000E08900B0FBF1F06422B0FBF2F1B0
:100EF00009010B096FF018056B4300EB8300A38910
:100F00001D044FF0320306D503EBC000B0FBF2F036
:100F100000F0070005E003EB0010B0FBF2F000F07A
:100F20000F000843208105B030BD000000380140AB
:100F30008088C0F308007047FEE7704710B50420B2
:100F4000FFF73AFE09480A490068B0FBF1F1094889
:100F50000170012141804FF0E020016941F0020160
:100F60000161016941F00101016110BD0000002033
:100F700000127A002600002070B5044601F02EFF12
:100F800001280CD0094D6888844203D3B4FBF0F0EB
:100F900001F0AAF96888B4FBF0F100FB11444FF4AA
:100FA0007A706043BDE8704000F002B8260000206F
:100FB00070B50B4A4FF0E025002112786C69504360
:100FC000AB69AA699A42FCD002D2A3EB020302E009
:100FD000A4EB02063344194413468142F1D370BD99
:100FE000260000202DE9F041040005D140F27552A1
:100FF00018A11DA0FFF766F91F4E3068844202D188
:101000000020BDE8F08101F043F86569376C766C2B
:1010100001F07AF8BD4201D0B54201D10220F0E7DB
:10102000164885420DD1A06A0028F7D1032000217F
:10103000621892F85C20012AF0D0491C0129F7DBE4
:10104000DFE70E481438854202D00DB10120D8E701
:101050000420D6E72E2E5C4672656552544F535CD1
:101060007461736B732E63004572726F723A202540
:10107000732C2025640D0A0044000020A4040020E5
:1010800004490A885206FCD5024AC1B2121D1180D9
:10109000704700000038014008B501214420FFF7E7
:1010A000E1FC1820ADF8000048208DF803006946E7
:1010B0000648FFF735FC0120ADF8000028208DF828
:1010C000030069460248FFF72BFC08BD00180140E9
:1010D000000801402DE9F041254C264F264D012600
:1010E00008B1267001E0207878B110212846FFF77A
:1010F00065FC88B108212846FFF760FC60B101213A
:101100003846FFF75BFC012806D010212846FFF780
:1011100055FC01281DD028E00A20FFF72DFF0020F4
:10112000207010212846FFF749FC58B108212846B5
:10113000FFF744FC48B101213846FFF73FFC012886
:1011400005D012E00120BDE8F0810220FBE703207A
:10115000F9E708212846FFF731FC012805D10121D4
:101160003846FFF72BFC00B926700020EBE70000A3
:1011700024000020000801400018014038B501217A
:101180004820FFF76FFC2024ADF8004010208DF8B8
:10119000030003200B4D8DF8020069462846FFF737
:1011A000BFFB20212846FFF710FCADF80040064C9D
:1011B00069462046FFF7B4FB20212046FFF705FCD7
:1011C00038BD0000000C01400018014010B54FF47C
:1011D0004070FFF731FC4FF4E13000F057FEFFF7AD
:1011E000ADFEFFF7CBFFFFF757FF00F003F800203D
:1011F00010BD00001CB507490120CDE90001002306
:10120000802205A1074801F0BDFDBDE81C4001F0AA
:10121000E1BA00001400002073746172745F74619D
:10122000736B0000851C00082DE9F041204D0F462E
:101230000446EE682968002081F85D002868001DDA
:1012400000F074FE38B9286890F82C10012088400E
:10125000296981432961601C15D1A7B115492A6804
:10126000486890602B688268DA602A688368121D7B
:101270005A602A68121D8260286841610868401C13
:101280000860BDE8F08128683444B44244602968AD
:1012900005D2686CBDE8F041091D00F0D5BE286C90
:1012A000091D00F0D1FEA86A8442EAD2AC62E8E7E8
:1012B00044000020A40400202DE9F041044600F081
:1012C000E7FE354EB068401CB0603068334F10B157
:1012D000706930B32BE03460B068012827D1002555
:1012E00005EB850007EB800000F0A0FE6D1C202DB3
:1012F000F6D32B4800F09AFE2948143000F096FEF1
:101300002748283000F092FE25483C3000F08EFE41
:101310002348503000F08AFE214830641430706455
:1013200005E03068E16AC06A884200D83460706ABB
:101330000121401C70626064E06A3269814011439F
:10134000316100EB800007EB80004068A06081689D
:10135000E1608268211D51608160E06A00EB8000DD
:1013600007EB8001616157F82010491C47F82010F5
:1013700000F0CAFE706900280CD03068E16AC06ACB
:10138000884207D207494FF080500860BFF34F8F63
:10139000BFF36F8FBDE8F08144000020D40100202E
:1013A0005404002004ED00E010B500F071FE0E4C76
:1013B0002068A0B90D4800F039FE0C48143000F048
:1013C00035FE0A48E060143020610022102105201B
:1013D00001F032FB206010B105A100F029FFBDE84B
:1013E000104000F091BE00008C000020B8040020E6
:1013F000546D72510000000030B4026C0B46002A9C
:101400000BD0C1681144C1608468A14201D3016856
:10141000C16030BC1846FFF77AB830BC70472DE980
:10142000F041856B174604460026026C82B1C7B1B5
:10143000E068FFF76CF8E168206C091AE160226847
:10144000914202D2A168081AE060022F16D017E07C
:101450002068A8B9A06801F079FD06460020A060C8
:101460000EE06068FFF753F8216C60680844606024
:10147000A168884204D32068606001E005B16D1E58
:101480006D1CA5633046BDE8F08110B50446006BC5
:1014900000F06CFE2046BDE8104000F067BE000082
:1014A00010484FF42051420706D0C01D0D4920F0CE
:1014B0000700411AC1F520510B4A00230144C2E93B
:1014C00000030839183A21F0070111604B600B60E6
:1014D0000B1AC0E9001393604FF000405360506155
:1014E00070470000E0040020B8000020134E144DA7
:1014F000A6F52F774FF08058DFF8489011E000F004
:10150000C7FDF068C468201D00F010FDA868401EEB
:10151000A8606868401E686000F0F6FD2046FFF78E
:10152000B4FF68680028EAD138680128F9D9C9F8F9
:101530000080BFF34F8FBFF36F8FF2E7900400205E
:101540004400002004ED00E02DE9F05FDDE90B949C
:101550000E461746834691009A460A9DA522206BA7
:10156000FFF71AF86FF00301206B01EB87010844C5
:1015700020F007085FEA487005D04FF4587220A1A8
:1015800024A0FEF79FFE002766B100202218315CE0
:1015900082F83410315C11B1401C1028F6D384F865
:1015A000437001E084F83470202D06D340F2973266
:1015B00013A118A0FEF786FE1F25E562C4E91357A4
:1015C000201D00F03EFD04F1180000F03AFD2461FA
:1015D000C5F120006462A0616765A76584F85C704E
:1015E00084F85D7052465946404600F039FB206051
:1015F000B9F1000F01D0C9F80040BDE8F09F00002C
:101600002E2E5C4672656552544F535C7461736B49
:10161000732E63004572726F723A2025732C202559
:10162000640D0A0030B5114900E011460A68824293
:10163000FBD34B685C18844203D14068184448606F
:10164000084643681C18944209D1084C183C246889
:10165000A24209D052681A4442600A6812680260C5
:10166000814200D0086030BD0460F9E7B800002076
:1016700070B5002441600B4D0061914206D8D11A2B
:101680008269914206D2011D286907E09A4203D27D
:10169000994201D3012403E0011DE86800F0D4FC65
:1016A000204670BD8C00002010B5044600F0F0FC10
:1016B000A06B20B1002400F027FD204610BD0124BE
:1016C000F9E72DE9F0478146086892460C46002567
:1016D000F8B1486801F1080640684860B04201D19D
:1016E00040684860D0F80C80606842686260B2422E
:1016F00001D151686160606805EBC50109EB8101AA
:10170000C76853460122384600F08EFE6D1C4745DF
:10171000EAD12846BDE8F087F1B500980026846C30
:101720002CB940F6D43219A11DA0FEF7CBFDA06B59
:10173000E16B884205D340F6D53214A118A0FEF71C
:10174000C1FDA06BE16B88421ED294F94550002286
:1017500069462046FFF763FE0646681C02D07F2DCF
:1017600009D00EE0606A78B104F1240001F058FC61
:1017700050B1012608E040F6F53204A108A0FEF7BA
:10178000A1FD6D1C84F845503046F8BD2E2E5C46F8
:1017900072656552544F535C71756575652E6300B3
:1017A0004572726F723A2025732C2025640D0A0051
:1017B00070B506460D480D46C068C068C468201D57
:1017C00000F0B4FB94F82800410705D52A463146BD
:1017D000204600F0D1F803E000F0FE0084F8280075
:1017E0002046216ABDE87040084700008C000020B8
:1017F00070B586B03A4E69E00098002806DADDE957
:101800000201019A9047009800285FDB029C606902
:1018100010B1201D00F08AFB04A800F0CFF80546A7
:1018200000980A2852D2DFE800F0510505282E451D
:101830000505282E94F828002A4640F0010084F877
:1018400028000198A169034601442046FFF710FFD4
:1018500078B394F82800410707D50198A1692A4672
:101860000144204600F088F803E000F0FE0084F810
:101870002800216A2046884728E014F8280F00F045
:10188000FE00207022E094F8280040F0010084F867
:1018900028000198A06128B940F2593211A117A07F
:1018A000FEF710FDA0692B4641191A462046FFF7A6
:1018B000DFFE0BE094F82800810703D4204600F0F7
:1018C00055FC03E000F0FE0084F828000022694681
:1018D000306801F05BF900288ED106B070BD0000C1
:1018E0008C0000202E2E5C4672656552544F535C6E
:1018F00074696D6572732E63000000004572726F2B
:10190000723A2025732C2025640D0A00F8B50D4687
:10191000064600F0A9FF684600F050F8044600981B
:1019200010B101F0FBFBF8BD1148ADB101690968C8
:10193000D9B10025311B2A46006800F0B3FC01F044
:10194000EDFB0028EFD10B494FF080500860BFF34A
:101950004F8FBFF36F8FF8BDA642EBD801F0DEFBCF
:1019600021463046FFF724FFF8BD0125E2E70000DD
:101970008C00002004ED00E070B516460C460546CC
:1019800004E0A869296A044428468847A8692346D0
:10199000011932462846FFF76BFE0028F1D170BDD1
:1019A0000548016C096821B1016CC9680968816248
:1019B00070474FF0FF31FAE7440000202DE9F04175
:1019C000064601F019FA0E4D0446A868844214D266
:1019D0004FF0FF3704E0C06839460068FFF7E8FEC3
:1019E000E86801680029F6D12969C5E903100120DA
:1019F00030602046AC60BDE8F0810020F8E70000D0
:101A00008C000020002101E0401C491C0278A52A1E
:101A1000FAD0C1F38F00704708484068401C04D0DA
:101A2000CE2207A111A0FEF74DFC502080F31188B3
:101A3000BFF34F8FBFF36F8FFEE70000C0000020A1
:101A40002E2E5C4672656552544F535C706F7274F3
:101A500061626C655C525644535C41524D5F434D2C
:101A6000335C706F72742E63000000004572726FF9
:101A7000723A2025732C2025640D0A00084CE0687A
:101A8000016839B1002139B10020FFF73FFFFFF7AE
:101A9000AFFEF4E70121F6E7C0680068F5E7000053
:101AA0008C0000202DE9F041044600F0F1FA94F991
:101AB000455004F124060FE0A06C18B12046FFF752
:101AC0002BFE04E0606A48B1304601F0A9FA08B183
:101AD00000F092FD6D1E6DB2002DEDDC4FF0FF3673
:101AE00084F8456000F010FB00F0D2FA94F94450FD
:101AF00004F1100709E0206948B1384601F090FA76
:101B000008B100F079FD6D1E6DB2002DF3DC84F894
:101B10004460BDE8F04100F0F7BA10B50446FEF7A6
:101B2000B3FC2046FEF7D4FC202101E02154401CE8
:101B30000F28FBD300212154204410BD2DE9F04192
:101B40000446002600F090FE364F386808B9FFF7CB
:101B5000A7FC7869044258D1002C56D004F108053E
:101B6000A54252D968070ED005F00700C0F1080061
:101B70002844A84249D90546400704D09C222AA1FE
:101B800033A0FEF79FFB002D3FD0786885423CD8FC
:101B9000244918310846046801E02146044660687B
:101BA000A84202D220680028F7D13868B84684429B
:101BB0002BD00E682068086060680836401B10282B
:101BC0000ED96719780704D0CF2217A120A0FEF7FD
:101BD00079FB6068401B786038466560FFF722FD3E
:101BE0006168D8F804004246401AC8F80400D8F8E2
:101BF0000830984200D29060506901430020C4E947
:101C00000001D068401CC8F80C0001F087FA70078A
:101C100005D04FF4887204A10DA0FEF753FB3046A7
:101C2000BDE8F081A00000202E2E5C467265655252
:101C3000544F535C706F727461626C655C4D656D7E
:101C40004D616E675C686561705F342E63000000F3
:101C50004572726F723A2025732C2025640D0A009C
:101C600010B5031F4FF080741C601B1F21F0010191
:101C70001960191F024B0B60143940380A6010BDFF
:101C8000191A00081CB500F003FA0E490220CDE92C
:101C90000001002380220CA10D4801F073F80949CE
:101CA0000320091DCDE900010023802209A10B4872
:101CB00001F068F8002000F04DFBBDE81C4000F08A
:101CC00023BA0000180000207461736B310000001B
:101CD000E11C00087461736B32000000FD1C0008F9
:101CE000054C4FF4FA75D4F89401C143C4F894112B
:101CF000284600F0F9FAF6E700802142CCB0334FD5
:101D00001E21786800F0E4FC786800F081F9014653
:101D10002FA0FEF7D7FA00F01DF90446014633A0C4
:101D2000FEF7D0FA04EBC4008000FFF707FF05467A
:101D30000022214600F014F9064630A0FEF7C2FA50
:101D400000240BE004EBC40005EB8000D0E9011394
:101D5000026932A0FEF7B6FA641CE4B2B442F1D3D1
:101D60002420FFF7EBFE0446014605230122786894
:101D700000F05AFB2DA06168FEF7A4FA2FA021699C
:101D8000FEF7A0FA32A0A168FEF79CFA217B34A0EE
:101D9000FEF798FA218C36A0FEF794FA684600F018
:101DA000D7FB694623A0FEF78DFA0020FFF792F9D2
:101DB000012806D1684600F071FB69461DA0FEF7B8
:101DC00081FA0A2000F090FAEFE7000014000020EA
:101DD0007461736B31B5C4C8CECEF1D3C5CFC8BC66
:101DE000B6CEAAA3BA256C640D0A0000C8CECEF107
:101DF000CAFDC1BFA3BA256C640D0A00C8CECEF1DE
:101E0000C3FB0909C8CECEF1D3C5CFC8BCB609C83B
:101E1000CECEF1B1E0BAC50D0A0000002573090964
:101E2000256C6409256C640D0A000000C8CECEF153
:101E3000C3FBA3BA25730D0A00000000C8CECEF183
:101E4000D3C5CFC8BCB6A3BA256C640D0A00000088
:101E5000C8CECEF1B1E0BAC5A3BA256C640D0A00B4
:101E6000C8CECEF1D7B4CCACA3BA25640D0A00001D
:101E7000C8CECEF1D5BBC0FACAB7CAA3D3E0D7EE5D
:101E8000D0A1D6B5A3BA25640D0A000070B50546E9
:101E900086B0012144F20400FEF7E4FD4FF4007027
:101EA000ADF8100003248DF8124018201D4E8DF857
:101EB000130004A93046FEF733FD3015ADF81000CD
:101EC00004208DF8130004A93046FEF729FD2520D3
:101ED0008DF814008DF815408DF8164001208DF80E
:101EE000170005A8FEF776FD0020ADF80400ADF858
:101EF0000600ADF80800ADF80C000C200A4CADF857
:101F00000A00009569462046FEF7BCFF012240F218
:101F100025512046FEF79DFF01212046FEF770FF68
:101F200006B070BD0008014000380140D0E9013220
:101F300001699A60D0E901235A604A68824201D15E
:101F400082684A60002202610868401E08600868D2
:101F5000704700000148806870470000440000207E
:101F60002DE9F04717460A4606460024202500F0D2
:101F70007BFCDFF88C80D8F8080082423BD3DFF886
:101F800084906D1E05EB850104EBC40009EB810113
:101F900006EB80000122FFF794FB0444002DF0D1F2
:101FA00004EBC40006EB800002224546D8F840103E
:101FB000FFF787FB044404EBC40006EB8000022219
:101FC000696CFFF77EFB044404EBC40006EB800061
:101FD00004220D49FFF775FB04440B4904EBC400D0
:101FE00006EB800003221431FFF76BFB044417B1AA
:101FF00006480068386001F091F82046BDE8F08797
:1020000044000020D4010020900400202000002083
:1020100010B5044600F03CF80CB903480468E46AC3
:1020200000F072F8204610BD4400002000F10801C5
:102030004FF0FF32C0E90112C1600161002101606F
:10204000704700210161704730B50C68621C02D0F6
:1020500000F1080202E0026904E01A4653681D68B4
:10206000A542FAD953684B6099608A605160086153
:102070000168491C016030BD42684A6093688B600A
:1020800093685960916008610168491C016070475C
:10209000502080F31188BFF34F8FBFF36F8F094932
:1020A0004868401C486001280AD10748006810F0C1
:1020B000FF0F05D040F2731204A10FA0FEF702B982
:1020C00070470000C000002004ED00E02E2E5C46AA
:1020D00072656552544F535C706F727461626C65C7
:1020E0005C525644535C41524D5F434D335C706FBC
:1020F00072742E63000000004572726F723A2025E0
:10210000732C2025640D0A0010B5084C606828B9AE
:102110004FF4BD7206A111A0FEF7D4F86068401E0E
:10212000606001D180F3118810BD0000C000002064
:102130002E2E5C4672656552544F535C706F7274FC
:1021400061626C655C525644535C41524D5F434D35
:10215000335C706F72742E63000000004572726F02
:10216000723A2025732C2025640D0A0070B50028D2
:102170002DD0174DA0F1080460686969084205D1A7
:102180004FF4927213A11DA0FEF79CF8206828B1AD
:1021900040F225120FA119A0FEF794F86068696952
:1021A000084214D02268002A11D18843606000F0F0
:1021B0005BFB60686968084468602046FFF732FA94
:1021C0002869401C2861BDE8704000F0A7BF70BDC1
:1021D000A00000202E2E5C4672656552544F535C61
:1021E000706F727461626C655C4D656D4D616E6798
:1021F0005C686561705F342E630000004572726F29
:10220000723A2025732C2025640D0A004FF0E0203F
:1022100000210161816105494FF4FA520968B1FB5F
:10222000F2F1491E41610321016170470000002065
:1022300070B50E4605004FF0000405D140F6C922E6
:102240000EA113A0FEF73EF8002E15D0144900226F
:1022500001EBC2004368AB4202D101EBC20407E0CC
:102260001CB951F8323003B90446521C082AEFD386
:10227000002C01D0C4E9006570BD00002E2E5C4624
:1022800072656552544F535C71756575652E6300B8
:102290004572726F723A2025732C2025640D0A0056
:1022A0009401002070B515460E460446FFF7F0FE77
:1022B00094F944100020491C01D184F8440094F999
:1022C0004510491C01D184F84500FFF71DFFA06BA4
:1022D00028B92A46314604F1240000F0BDF9204611
:1022E000BDE87040FFF7DEBB10B5040012D00E4908
:1022F000496B29B140F249520CA111A0FDF7E2FF50
:1023000000F0B2FA00212046FEF78EFF00F006FF33
:10231000002807D10E494FF080500860BFF34F8F5F
:10232000BFF36F8F10BD0000440000202E2E5C46CE
:1023300072656552544F535C7461736B732E630006
:102340004572726F723A2025732C2025640D0A00A5
:1023500004ED00E070B50446FFF79AFE254D04B980
:102360002C68201DFFF7E2FD58B9E06A224A00EB15
:10237000800152F8211021B9012181402869884348
:102380002861A06A18B104F11800FFF7CFFD686A50
:10239000401C68622868844207D1211D1748FFF756
:1023A0006BFE6868401C686004E0A868401EA86076
:1023B000FFF7F6FAFFF7A8FE2868844202D020460D
:1023C000FFF763F86869002812D0286884420FD1AB
:1023D000686B28B140F2DC4209A10EA0FDF772FF44
:1023E00010494FF080500860BFF34F8FBFF36F8FDD
:1023F00070BD000044000020D401002090040020A3
:102400002E2E5C4672656552544F535C7461736B3B
:10241000732E63004572726F723A2025732C20254B
:10242000640D0A0004ED00E02DE9F0410C461A4964
:102430001746B0B1054605F13400C4E90050E86A1A
:102440002061286BE061686CA060E86C6061686D79
:102450000026A061052B12D00868854203D126739F
:1024600011E00D68E7E72373032B0CD100F0FCF9B2
:10247000A86A08B10220207300F050FE03E028464D
:10248000FEF7B0FD20732FB1286BFFF7BBFA208455
:10249000BDE8F0812684FBE7440000202DE9F843E5
:1024A0000746002038701F488468806800EBC00031
:1024B0008000FFF743FB060031D06A462146FFF754
:1024C0004FFD814600986421B0FBF1F0009018B3F5
:1024D00000241FE004EBC40006EB80050099A86906
:1024E000B0FBF1F838466968FFF717FB0746AA69A1
:1024F0005FEA080005D003460BA13846FDF7EEFE63
:1025000003E00CA13846FDF7E9FE3846FDF7E0FF91
:102510000744641C4C45DDD33046FFF727FEBDE879
:10252000F883000044000020092575090925752558
:10253000250D0A0009257509093C3125250D0A00DC
:1025400002490A6A0260C96841607047440000207D
:102550002DE9FC470021804601702248846880688C
:1025600000EBC0008000FFF7E9FA070038D0002236
:102570002146FFF7F5FC814600262AE006EBC6005F
:1025800007EB8005287B05280ED2DFE800F0030565
:1025900007090B00582408E0522406E0422404E016
:1025A000532402E0442400E0002440466968FFF719
:1025B000B4FA8046A968288CCDE9000122460AA118
:1025C00040462B69FDF78AFE4046FDF781FF8044B7
:1025D000761C4E45D2D33846BDE8FC47FFF7C6BD52
:1025E000BDE8FC87440000200925630925750925FD
:1025F000750925750D0A000001490120C861704761
:102600004400002070B50D46040005D140F61C4280
:1026100007A10CA0FDF756FE0E48016820461831B0
:10262000FFF712FD2846BDE870400121FEF7FCBD12
:102630002E2E5C4672656552544F535C7461736B09
:10264000732E63004572726F723A2025732C202519
:10265000640D0A004400002070B515460E460400C3
:1026600005D140F6524210A114A0FDF72BFE1749E8
:1026700060680A68D06182680B681A620A688368B9
:1026800018325A600A6818328260086884622068CA
:10269000401C20600DB14FF0FF3629463046BDE8A2
:1026A0007040FEF7C1BD00002E2E5C46726565527B
:1026B000544F535C7461736B732E63004572726F79
:1026C000723A2025732C2025640D0A004400002056
:1026D0002DE9F04100260D460446202906D340F29C
:1026E000156230A134A0FDF7EDFD1F25FFF7D0FCEA
:1026F000354F04B93C68E06CA8424FD03968854238
:1027000006D98C4207D03968C96AA94202D902E0C9
:102710008C4200D10126E16A8846884200D1E562F8
:10272000E564A069002802DBC5F12000A061274D07
:1027300008EB8800616905EB8000814225D1201DEE
:10274000FFF7F4FB012120B93A6901FA08F082434E
:102750003A61E06A3A6981401143396100EB8000D7
:1027600005EB80004068A0608168E1608268211DFF
:1027700051608160E06A00EB800005EB80016161DF
:1027800055F82010491C45F820103EB110494FF073
:1027900080500860BFF34F8FBFF36F8FBDE8F041EB
:1027A000FFF7B2BC2E2E5C4672656552544F535CE7
:1027B0007461736B732E63004572726F723A2025D9
:1027C000732C2025640D0A0044000020D401002051
:1027D00004ED00E07CB517480025CDE900502B46FC
:1027E000802215A1164800F0CDFA124C2C3C01288D
:1027F00003D100F039FD012802D0401C12D017E0AF
:10280000502080F31188BFF34F8FBFF36F8F4FF0CD
:10281000FF30A06201206061E560FEF719F800F06A
:102820007BF805E04FF4046206A10BA0FDF74AFD1A
:10283000206B7CBD7000002049444C450000000026
:10284000ED1400082E2E5C4672656552544F535CA1
:102850007461736B732E63004572726F723A202538
:10286000732C2025640D0A000248416B491C41630A
:10287000704700004400002070B51B4C606B10B125
:102880000120E06170BD0020E06118480068E0634D
:10289000E06BA16B884205D92068E36B426D591A41
:1028A00011444165E06BA0632069114EB0FA80F0DD
:1028B000C0F11F0000EB800556F8250028B940F64E
:1028C00002420CA110A0FDF7FDFC06EB850000F113
:1028D0000802416849684160914201D149684160FC
:1028E000C868206070BD0000440000202000002067
:1028F000D40100202E2E5C4672656552544F535C05
:102900007461736B732E63004572726F723A202587
:10291000732C2025640D0A007CB52A4D287801907F
:10292000FF20287028788DF800009DF800009DF8A1
:10293000001000F0F000884205D040F21F1222A1E2
:102940002CA0FDF7BFFC9DF800002E4C00F05000BD
:1029500020700720A06006E0401EA0609DF80000E7
:1029600040008DF800009DF800000006A068F3D438
:1029700003280ED040F2331213A11EA0FDF7A2FCD3
:10298000A068032805D04FF49E720FA119A0FDF78F
:1029900099FC207A000200F4E060A06001982870A1
:1029A0001948016841F470010160016841F070410B
:1029B0000160FFF72BFC00206060FDF727FC002082
:1029C0007CBD000000E400E02E2E5C46726565527E
:1029D000544F535C706F727461626C655C52564404
:1029E000535C41524D5F434D335C706F72742E6384
:1029F000000000004572726F723A2025732C20256A
:102A0000640D0A00C000002020ED00E010B5502049
:102A100080F31188BFF34F8FBFF36F8F00F0F2F98F
:102A200018B104494FF080500860002080F31188ED
:102A300010BD000004ED00E02DE9F04117460E4600
:102A400005004FF000041FD0601EB0FBF5F0B0424F
:102A50001AD305FB06F010F1550F15D85430FFF7C7
:102A60006DF8040016D004F154005EB12060C4E992
:102A70000F562046012100F023F884F85070002101
:102A8000A16407E02460F2E74FF4E37203A108A019
:102A9000FDF718FC2046BDE8F08100002E2E5C46B4
:102AA00072656552544F535C71756575652E630090
:102AB0004572726F723A2025732C2025640D0A002E
:102AC0002DE9F0410E4604004FF001052AD0E06BDD
:102AD00070B3AF1EB7FBF0F1206C814228D3FFF733
:102AE000D7FAD4E90F20216802FB0011A160002170
:102AF000A163216861600A46D4E90F01401E00FB12
:102B000001212046E16000F8447F477004F1100085
:102B1000C6B1FFF78BFA04F12400FFF787FAFFF73D
:102B2000F3FA0CE04FF488720EA113A0FDF7CAFB74
:102B3000002540F245120BA10FA0FDF7C3FB28466C
:102B4000BDE8F08121690029E9D000F069FA002888
:102B5000E5D00D494FF080500860BFF34F8FBFF3B1
:102B60006F8FDCE72E2E5C4672656552544F535CC6
:102B700071756575652E63004572726F723A202516
:102B8000732C2025640D0A0004ED00E02DE9F747C1
:102B900083B08A4604004FF0000605D140F251523E
:102BA00044A149A0FDF78EFBBAF1000F07D1206CBC
:102BB00028B140F255523FA143A0FDF783FB00F03E
:102BC0000DF938B9059828B140F25A5239A13EA002
:102BD000FDF778FB00274FF08058DFF8FC90FFF7F7
:102BE00057FAA56BC5B151462046FEF705FC6D1E90
:102BF000A563206950B104F1100000F011FA28B16A
:102C0000C9F80080BFF34F8FBFF36F8FFFF77CFAD7
:102C1000012006B0BDE8F087059808B11EB106E0B6
:102C2000FFF772FA27E06846FFF78AFC0126FFF7F4
:102C30006BFAFFF719FEFFF72BFA94F94400401CDA
:102C400001D184F8447094F94500401C01D184F806
:102C50004570FFF759FA05A9684600F03FF80028CB
:102C600020460AD0FEF71EFF00F058FA2046FEF775
:102C70001BFD0028B3D00020CBE7FEF715FD90B177
:102C800004F124000599FFF7BDFC2046FEF70AFF7A
:102C900000F044FA0028A2D1C9F80080BFF34F8F9A
:102CA000BFF36F8F9BE72046FEF7FCFE00F036FA7D
:102CB00095E700002E2E5C4672656552544F535CBA
:102CC00071756575652E63004572726F723A2025C5
:102CD000732C2025640D0A0004ED00E02DE9F0417D
:102CE0000D46040005D140F6FD421CA120A0FDF7D1
:102CF000E9FA2DB940F6FE4218A11DA0FDF7E2FA4F
:102D0000FFF7C6F91E4EF16863683068CA1A0027DB
:102D100090F85D0018B1306880F85D7018E02868A0
:102D2000B0F1FF3F09D0D4F800C0366AB44506D0F0
:102D30008B4204D801242F600BE0002409E090426C
:102D400005D9801A28602046FFF7FAFBF5E72F60C7
:102D50000124FFF7D9F92046BDE8F0812E2E5C460C
:102D600072656552544F535C7461736B732E6300CC
:102D70004572726F723A2025732C2025640D0A006B
:102D8000440000202DE9FF5F8346DDE90E87994668
:102D900016468A469000FEF7D1FE05001AD0602044
:102DA000FEF7CCFE040012D025630021CDE90241DC
:102DB000CDE900874B46324651465846FEF7C4FBE4
:102DC0002046FEF779FA012004B0BDE8F09F2846BE
:102DD000FFF7CCF94FF0FF30F6E7000005484169F6
:102DE00019B1406B18B100207047012070470220D4
:102DF00070470000440000200148C0687047000090
:102E0000440000202DE9F041454E0025706B28B1AB
:102E1000B069401CB0612846BDE8F081F468641CCC
:102E2000F46011D1306C006828B140F6C7223DA192
:102E300041A0FDF747FA306C716C31647064306A00
:102E4000401C3062FEF7ACFDB06ADFF8FCE0844263
:102E50000BD34FF0000C306C0068A0B1306CC06830
:102E6000C1684868844211D2B0623068C06A00EB21
:102E700080005EF82000012800D90125F0690028B3
:102E8000C9D00125C7E74FF0FF30EDE7D1E90232A5
:102E900048699A60D1E902235A6043680A1D934247
:102EA00001D1CB684360C1F814C003685B1E0360A6
:102EB000886A88B1D1E907379F60D1E907377B601D
:102EC000476801F118039F4201D10B6A4360C1F8C2
:102ED00028C003685B1E0360C86A0123376983400A
:102EE0003B43336100EB80000EEB8000406888605C
:102EF0008368CB6083685A608260C86A00EB800098
:102F00000EEB80024A615EF82020521C4EF8202011
:102F1000C86A3168C96A88429DD301259BE70000D1
:102F2000440000202E2E5C4672656552544F535C5F
:102F30007461736B732E63004572726F723A202551
:102F4000732C2025640D0A00D401002070B5040004
:102F50004FF000064BD0274D2868844205D041F23F
:102F60004F0225A129A0FDF7ADF9206D28B941F246
:102F7000500221A125A0FDF7A5F9206D401E206576
:102F8000E26CE16A914232D088BB201DFEF7CEFF91
:102F9000012130B994F82C002A6901FA00F082432B
:102FA0002A61E06CE062C0F12000A061E06A2A6959
:102FB000814011432961194A00EB800002EB800037
:102FC0004068A0608168E1608368211D596081606C
:102FD000E06A00EB800002EB80006061E06A00EBD9
:102FE000800052F82010491C42F82010012630467B
:102FF00070BD0000440000202E2E5C4672656552B4
:10300000544F535C7461736B732E63004572726F1F
:10301000723A2025732C2025640D0A00D40100206B
:1030200070B5C068C4682CB940F682422FA134A0A4
:10303000FDF748F9D4E90721A06A9160D4E90712A5
:103040005160426804F118018A4201D1226A42604B
:103050000025A5620268521E02602D4A506B0123B2
:1030600098B12C4D6868E061866826628668716058
:103070008160A5622868401C2860E06A1168C96AFE
:10308000884231D90120D36170BDD4E90261606901
:10309000B160D4E9021671604668211D8E4201D1EB
:1030A000E6684660656105686D1E0560E06A166940
:1030B00003FA00F535431561174D00EB800005EB71
:1030C00080004068A0608668E66086687160816004
:1030D000E06A00EB800005EB8001616155F820108B
:1030E000491C45F82010C8E7002070BD2E2E5C4614
:1030F00072656552544F535C7461736B732E630039
:103100004572726F723A2025732C2025640D0A00D7
:10311000440000207C040020D40100202DE9F04769
:10312000444D0024A146686B28B940F6B30242A181
:1031300046A0FDF7C7F8FEF7ABFF686B401E68635B
:10314000686B002870D1A868DFF810C100264FF026
:103150000108E8BB68E0DCF80C00C468D4E907218A
:10316000A06A9160D4E907125160426804F1180125
:103170008A4201D1216A4160A6620168491E01604C
:10318000D4E9022160699160D4E902125160426879
:10319000211D8A4201D1E268426066610268521EC6
:1031A0000260E06A2F69434608FA00F23A432A6156
:1031B0002B4A00EB800002EB80004068A06087682B
:1031C000E760876879608160E06A00EB800000E07A
:1031D0000DE002EB8001616152F82010491C42F8B9
:1031E0002010E06A2968C96A884200D3EB61DCF8E4
:1031F00000000028AFD10CB1FEF7D2FBAC693CB1A6
:103200004746FFF7FFFD00B1EF61641EF9D1AE61E3
:10321000E86948B113494FF080504FF00109086048
:10322000BFF34F8FBFF36F8FFEF76EFF4846BDE8C9
:10323000F0870000440000202E2E5C467265655227
:10324000544F535C7461736B732E63004572726FDD
:10325000723A2025732C2025640D0A007C0400207E
:10326000D401002004ED00E01CB50024FEF79CF81A
:103270000C48006868B10B491F20091DCDE9000109
:1032800000234FF4807208A10948FFF77BFD04007A
:1032900005D140F2191207A10CA0FDF713F8204642
:1032A0001CBD00008C000020546D7220537663001A
:1032B0007D1A00082E2E5C4672656552544F535C91
:1032C00074696D6572732E63000000004572726F41
:1032D000723A2025732C2025640D0A00FC32000868
:1032E00000000020CC0000006C010008C83300087A
:1032F000CC000020743200008801000800A24A04BB
:103300000000000000000000010203040607080995
:1033100000000000000000000000000000000000AD
:103320000100000000000000000000000204060888
:10333000000000000102030401020304060708095B
:10334000000000000000000000000000000000007D
:10335000000000000000000000000000000000006D
:10336000000000000000000000000000000000005D
:103370001F0000000000000000000000000000002E
:10338000000000000000000000000000000000003D
:10339000000000000000000000000000000000002D
:1033A000000000000000000000000000000000001D
:1033B000000000000000000000000000000000000D
:0833C000AAAAAAAA000000005D
:04000005080002816C
:00000001FF
